{
  "address": "0x8E557363AC9E5cbf09A2616A302CA3c8f6ab2b7A",
  "abi": [
    {
      "inputs": [],
      "stateMutability": "nonpayable",
      "type": "constructor"
    },
    {
      "anonymous": false,
      "inputs": [
        {
          "indexed": false,
          "internalType": "uint256",
          "name": "depositMaturity",
          "type": "uint256"
        },
        {
          "indexed": false,
          "internalType": "uint256",
          "name": "maturityDate",
          "type": "uint256"
        }
      ],
      "name": "Activated",
      "type": "event"
    },
    {
      "anonymous": false,
      "inputs": [
        {
          "indexed": true,
          "internalType": "address",
          "name": "lender",
          "type": "address"
        }
      ],
      "name": "CallbackCancelled",
      "type": "event"
    },
    {
      "anonymous": false,
      "inputs": [
        {
          "indexed": true,
          "internalType": "address",
          "name": "lender",
          "type": "address"
        }
      ],
      "name": "CallbackCreated",
      "type": "event"
    },
    {
      "anonymous": false,
      "inputs": [],
      "name": "Closed",
      "type": "event"
    },
    {
      "anonymous": false,
      "inputs": [],
      "name": "ConvertedToPublic",
      "type": "event"
    },
    {
      "anonymous": false,
      "inputs": [],
      "name": "Defaulted",
      "type": "event"
    },
    {
      "anonymous": false,
      "inputs": [
        {
          "indexed": false,
          "internalType": "uint8",
          "name": "version",
          "type": "uint8"
        }
      ],
      "name": "Initialized",
      "type": "event"
    },
    {
      "anonymous": false,
      "inputs": [
        {
          "indexed": false,
          "internalType": "address",
          "name": "lender",
          "type": "address"
        }
      ],
      "name": "LenderBlacklisted",
      "type": "event"
    },
    {
      "anonymous": false,
      "inputs": [
        {
          "indexed": false,
          "internalType": "address",
          "name": "lender",
          "type": "address"
        }
      ],
      "name": "LenderWhitelisted",
      "type": "event"
    },
    {
      "anonymous": false,
      "inputs": [
        {
          "indexed": true,
          "internalType": "address",
          "name": "lender",
          "type": "address"
        },
        {
          "indexed": false,
          "internalType": "uint256",
          "name": "amount",
          "type": "uint256"
        }
      ],
      "name": "Lent",
      "type": "event"
    },
    {
      "anonymous": false,
      "inputs": [
        {
          "indexed": true,
          "internalType": "address",
          "name": "lender",
          "type": "address"
        },
        {
          "indexed": false,
          "internalType": "uint256",
          "name": "repayed",
          "type": "uint256"
        },
        {
          "indexed": false,
          "internalType": "uint256",
          "name": "spreadFee",
          "type": "uint256"
        },
        {
          "indexed": false,
          "internalType": "uint256",
          "name": "originationFee",
          "type": "uint256"
        },
        {
          "indexed": false,
          "internalType": "uint256",
          "name": "penalty",
          "type": "uint256"
        }
      ],
      "name": "Repayed",
      "type": "event"
    },
    {
      "anonymous": false,
      "inputs": [
        {
          "indexed": true,
          "internalType": "address",
          "name": "lender",
          "type": "address"
        },
        {
          "indexed": false,
          "internalType": "uint256",
          "name": "repayed",
          "type": "uint256"
        },
        {
          "indexed": false,
          "internalType": "uint256",
          "name": "spreadFee",
          "type": "uint256"
        },
        {
          "indexed": false,
          "internalType": "uint256",
          "name": "penalty",
          "type": "uint256"
        }
      ],
      "name": "RepayedInterest",
      "type": "event"
    },
    {
      "anonymous": false,
      "inputs": [
        {
          "indexed": true,
          "internalType": "uint256",
          "name": "rollId",
          "type": "uint256"
        },
        {
          "indexed": false,
          "internalType": "uint256",
          "name": "newMaturity",
          "type": "uint256"
        }
      ],
      "name": "RollAccepted",
      "type": "event"
    },
    {
      "anonymous": false,
      "inputs": [
        {
          "indexed": true,
          "internalType": "uint256",
          "name": "rollId",
          "type": "uint256"
        },
        {
          "indexed": false,
          "internalType": "address",
          "name": "user",
          "type": "address"
        }
      ],
      "name": "RollRejected",
      "type": "event"
    },
    {
      "anonymous": false,
      "inputs": [
        {
          "indexed": true,
          "internalType": "uint256",
          "name": "rollId",
          "type": "uint256"
        }
      ],
      "name": "RollRequested",
      "type": "event"
    },
    {
      "inputs": [],
      "name": "YEAR",
      "outputs": [
        {
          "internalType": "uint256",
          "name": "",
          "type": "uint256"
        }
      ],
      "stateMutability": "view",
      "type": "function"
    },
    {
      "inputs": [
        {
          "internalType": "address",
          "name": "_borrower",
          "type": "address"
        },
        {
          "internalType": "uint256",
          "name": "_spreadRate",
          "type": "uint256"
        },
        {
          "internalType": "uint256",
          "name": "_originationRate",
          "type": "uint256"
        },
        {
          "internalType": "uint256",
          "name": "_incrementPerRoll",
          "type": "uint256"
        },
        {
          "internalType": "uint256",
          "name": "_penaltyRatePerYear",
          "type": "uint256"
        },
        {
          "components": [
            {
              "internalType": "bool",
              "name": "isBulletLoan",
              "type": "bool"
            },
            {
              "internalType": "address",
              "name": "asset",
              "type": "address"
            },
            {
              "internalType": "uint256",
              "name": "size",
              "type": "uint256"
            },
            {
              "internalType": "uint256",
              "name": "tenor",
              "type": "uint256"
            },
            {
              "internalType": "uint256",
              "name": "rateMantissa",
              "type": "uint256"
            },
            {
              "internalType": "uint256",
              "name": "depositWindow",
              "type": "uint256"
            }
          ],
          "internalType": "struct IPool.PoolData",
          "name": "_poolData",
          "type": "tuple"
        },
        {
          "internalType": "bytes",
          "name": "_members",
          "type": "bytes"
        }
      ],
      "name": "__Pool_init",
      "outputs": [],
      "stateMutability": "nonpayable",
      "type": "function"
    },
    {
      "inputs": [],
      "name": "acceptRoll",
      "outputs": [],
      "stateMutability": "nonpayable",
      "type": "function"
    },
    {
      "inputs": [],
      "name": "activeRollId",
      "outputs": [
        {
          "internalType": "uint256",
          "name": "",
          "type": "uint256"
        }
      ],
      "stateMutability": "view",
      "type": "function"
    },
    {
      "inputs": [],
      "name": "asset",
      "outputs": [
        {
          "internalType": "address",
          "name": "",
          "type": "address"
        }
      ],
      "stateMutability": "view",
      "type": "function"
    },
    {
      "inputs": [
        {
          "internalType": "address",
          "name": "lender",
          "type": "address"
        }
      ],
      "name": "balanceOf",
      "outputs": [
        {
          "internalType": "uint256",
          "name": "balance",
          "type": "uint256"
        }
      ],
      "stateMutability": "view",
      "type": "function"
    },
    {
      "inputs": [
        {
          "internalType": "bytes",
          "name": "lenders",
          "type": "bytes"
        }
      ],
      "name": "blacklistLenders",
      "outputs": [
        {
          "internalType": "bool",
          "name": "success",
          "type": "bool"
        }
      ],
      "stateMutability": "nonpayable",
      "type": "function"
    },
    {
      "inputs": [],
      "name": "borrower",
      "outputs": [
        {
          "internalType": "address",
          "name": "",
          "type": "address"
        }
      ],
      "stateMutability": "view",
      "type": "function"
    },
    {
      "inputs": [],
      "name": "canBeDefaulted",
      "outputs": [
        {
          "internalType": "bool",
          "name": "isAbleToDefault",
          "type": "bool"
        }
      ],
      "stateMutability": "view",
      "type": "function"
    },
    {
      "inputs": [],
      "name": "cancelCallBack",
      "outputs": [
        {
          "internalType": "bool",
          "name": "success",
          "type": "bool"
        }
      ],
      "stateMutability": "nonpayable",
      "type": "function"
    },
    {
      "inputs": [],
      "name": "close",
      "outputs": [
        {
          "internalType": "bool",
          "name": "success",
          "type": "bool"
        }
      ],
      "stateMutability": "nonpayable",
      "type": "function"
    },
    {
      "inputs": [],
      "name": "currentSize",
      "outputs": [
        {
          "internalType": "uint256",
          "name": "",
          "type": "uint256"
        }
      ],
      "stateMutability": "view",
      "type": "function"
    },
    {
      "inputs": [],
      "name": "defaultedAt",
      "outputs": [
        {
          "internalType": "uint256",
          "name": "",
          "type": "uint256"
        }
      ],
      "stateMutability": "view",
      "type": "function"
    },
    {
      "inputs": [],
      "name": "depositMaturity",
      "outputs": [
        {
          "internalType": "uint256",
          "name": "",
          "type": "uint256"
        }
      ],
      "stateMutability": "view",
      "type": "function"
    },
    {
      "inputs": [],
      "name": "depositWindow",
      "outputs": [
        {
          "internalType": "uint256",
          "name": "",
          "type": "uint256"
        }
      ],
      "stateMutability": "view",
      "type": "function"
    },
    {
      "inputs": [
        {
          "internalType": "address",
          "name": "lender",
          "type": "address"
        }
      ],
      "name": "dueInterestOf",
      "outputs": [
        {
          "internalType": "uint256",
          "name": "due",
          "type": "uint256"
        },
        {
          "internalType": "uint256",
          "name": "spreadFee",
          "type": "uint256"
        },
        {
          "internalType": "uint256",
          "name": "penalty",
          "type": "uint256"
        }
      ],
      "stateMutability": "view",
      "type": "function"
    },
    {
      "inputs": [
        {
          "internalType": "address",
          "name": "lender",
          "type": "address"
        }
      ],
      "name": "dueOf",
      "outputs": [
        {
          "internalType": "uint256",
          "name": "due",
          "type": "uint256"
        },
        {
          "internalType": "uint256",
          "name": "spreadFee",
          "type": "uint256"
        },
        {
          "internalType": "uint256",
          "name": "originationFee",
          "type": "uint256"
        },
        {
          "internalType": "uint256",
          "name": "penalty",
          "type": "uint256"
        }
      ],
      "stateMutability": "view",
      "type": "function"
    },
    {
      "inputs": [],
      "name": "factory",
      "outputs": [
        {
          "internalType": "contract IPoolFactory",
          "name": "",
          "type": "address"
        }
      ],
      "stateMutability": "view",
      "type": "function"
    },
    {
      "inputs": [],
      "name": "getNextPaymentTimestamp",
      "outputs": [
        {
          "internalType": "uint256",
          "name": "payableToTimestamp",
          "type": "uint256"
        }
      ],
      "stateMutability": "view",
      "type": "function"
    },
    {
      "inputs": [],
      "name": "incrementPerRoll",
      "outputs": [
        {
          "internalType": "uint256",
          "name": "",
          "type": "uint256"
        }
      ],
      "stateMutability": "view",
      "type": "function"
    },
    {
      "inputs": [],
      "name": "isBulletLoan",
      "outputs": [
        {
          "internalType": "bool",
          "name": "",
          "type": "bool"
        }
      ],
      "stateMutability": "view",
      "type": "function"
    },
    {
      "inputs": [],
      "name": "isClosed",
      "outputs": [
        {
          "internalType": "bool",
          "name": "",
          "type": "bool"
        }
      ],
      "stateMutability": "view",
      "type": "function"
    },
    {
      "inputs": [],
      "name": "isPublic",
      "outputs": [
        {
          "internalType": "bool",
          "name": "",
          "type": "bool"
        }
      ],
      "stateMutability": "view",
      "type": "function"
    },
    {
      "inputs": [],
      "name": "isRollRequested",
      "outputs": [
        {
          "internalType": "bool",
          "name": "",
          "type": "bool"
        }
      ],
      "stateMutability": "view",
      "type": "function"
    },
    {
      "inputs": [],
      "name": "lastPaidTimestamp",
      "outputs": [
        {
          "internalType": "uint256",
          "name": "",
          "type": "uint256"
        }
      ],
      "stateMutability": "view",
      "type": "function"
    },
    {
      "inputs": [
        {
          "internalType": "uint256",
          "name": "amount",
          "type": "uint256"
        }
      ],
      "name": "lend",
      "outputs": [
        {
          "internalType": "bool",
          "name": "success",
          "type": "bool"
        }
      ],
      "stateMutability": "nonpayable",
      "type": "function"
    },
    {
      "inputs": [],
      "name": "markPoolDefaulted",
      "outputs": [],
      "stateMutability": "nonpayable",
      "type": "function"
    },
    {
      "inputs": [],
      "name": "maturityDate",
      "outputs": [
        {
          "internalType": "uint256",
          "name": "",
          "type": "uint256"
        }
      ],
      "stateMutability": "view",
      "type": "function"
    },
    {
      "inputs": [],
      "name": "maxSize",
      "outputs": [
        {
          "internalType": "uint256",
          "name": "",
          "type": "uint256"
        }
      ],
      "stateMutability": "view",
      "type": "function"
    },
    {
      "inputs": [],
      "name": "originationRate",
      "outputs": [
        {
          "internalType": "uint256",
          "name": "",
          "type": "uint256"
        }
      ],
      "stateMutability": "view",
      "type": "function"
    },
    {
      "inputs": [
        {
          "internalType": "address",
          "name": "lender",
          "type": "address"
        }
      ],
      "name": "penaltyOf",
      "outputs": [
        {
          "internalType": "uint256",
          "name": "penalty",
          "type": "uint256"
        }
      ],
      "stateMutability": "view",
      "type": "function"
    },
    {
      "inputs": [
        {
          "internalType": "uint256",
          "name": "interval",
          "type": "uint256"
        }
      ],
      "name": "penaltyRate",
      "outputs": [
        {
          "internalType": "uint256",
          "name": "",
          "type": "uint256"
        }
      ],
      "stateMutability": "view",
      "type": "function"
    },
    {
      "inputs": [],
      "name": "penaltyRatePerYear",
      "outputs": [
        {
          "internalType": "uint256",
          "name": "",
          "type": "uint256"
        }
      ],
      "stateMutability": "view",
      "type": "function"
    },
    {
      "inputs": [],
      "name": "prime",
      "outputs": [
        {
          "internalType": "contract IPrime",
          "name": "primeInstance",
          "type": "address"
        }
      ],
      "stateMutability": "view",
      "type": "function"
    },
    {
      "inputs": [],
      "name": "rateMantissa",
      "outputs": [
        {
          "internalType": "uint256",
          "name": "",
          "type": "uint256"
        }
      ],
      "stateMutability": "view",
      "type": "function"
    },
    {
      "inputs": [
        {
          "internalType": "address",
          "name": "lender",
          "type": "address"
        }
      ],
      "name": "repay",
      "outputs": [
        {
          "internalType": "bool",
          "name": "success",
          "type": "bool"
        }
      ],
      "stateMutability": "nonpayable",
      "type": "function"
    },
    {
      "inputs": [],
      "name": "repayAll",
      "outputs": [
        {
          "internalType": "bool",
          "name": "success",
          "type": "bool"
        }
      ],
      "stateMutability": "nonpayable",
      "type": "function"
    },
    {
      "inputs": [],
      "name": "repayInterest",
      "outputs": [],
      "stateMutability": "nonpayable",
      "type": "function"
    },
    {
      "inputs": [],
      "name": "requestCallBack",
      "outputs": [
        {
          "internalType": "bool",
          "name": "success",
          "type": "bool"
        }
      ],
      "stateMutability": "nonpayable",
      "type": "function"
    },
    {
      "inputs": [],
      "name": "requestRoll",
      "outputs": [],
      "stateMutability": "nonpayable",
      "type": "function"
    },
    {
      "inputs": [],
      "name": "spreadRate",
      "outputs": [
        {
          "internalType": "uint256",
          "name": "",
          "type": "uint256"
        }
      ],
      "stateMutability": "view",
      "type": "function"
    },
    {
      "inputs": [],
      "name": "switchToPublic",
      "outputs": [
        {
          "internalType": "bool",
          "name": "success",
          "type": "bool"
        }
      ],
      "stateMutability": "nonpayable",
      "type": "function"
    },
    {
      "inputs": [],
      "name": "tenor",
      "outputs": [
        {
          "internalType": "uint256",
          "name": "",
          "type": "uint256"
        }
      ],
      "stateMutability": "view",
      "type": "function"
    },
    {
      "inputs": [],
      "name": "totalDue",
      "outputs": [
        {
          "internalType": "uint256",
          "name": "totalDueAmount",
          "type": "uint256"
        }
      ],
      "stateMutability": "view",
      "type": "function"
    },
    {
      "inputs": [],
      "name": "totalDueInterest",
      "outputs": [
        {
          "internalType": "uint256",
          "name": "totalInterest",
          "type": "uint256"
        }
      ],
      "stateMutability": "view",
      "type": "function"
    },
    {
      "inputs": [
        {
          "internalType": "bytes",
          "name": "lenders",
          "type": "bytes"
        }
      ],
      "name": "whitelistLenders",
      "outputs": [
        {
          "internalType": "bool",
          "name": "success",
          "type": "bool"
        }
      ],
      "stateMutability": "nonpayable",
      "type": "function"
    }
  ],
  "transactionHash": "0x8154c8163613247223485ecb0201f2831373378ec1b055c501e21d3bac7dc9dc",
  "args": [],
  "numDeployments": 1,
  "solcInputHash": "9e74de8f4cfb240fa0503b18f7461ad5",
  "bytecode": "0x60806040523480156200001157600080fd5b506200001c62000022565b620000e4565b600054610100900460ff16156200008f5760405162461bcd60e51b815260206004820152602760248201527f496e697469616c697a61626c653a20636f6e747261637420697320696e697469604482015266616c697a696e6760c81b606482015260840160405180910390fd5b60005460ff9081161015620000e2576000805460ff191660ff9081179091556040519081527f7f26b83ff96e1f2b6a682f133852f6798a09c465da95921460cefb38474024989060200160405180910390a15b565b61320c80620000f46000396000f3fe608060405234801561001057600080fd5b50600436106102895760003560e01c8063839145401161015c578063b75a197d116100ce578063d59624b411610087578063d59624b414610507578063dc9a153514610510578063e6ad04c914610522578063f13fa0c11461052a578063fa3ae6dc14610533578063fa5d30b51461053b57600080fd5b8063b75a197d1461049a578063bda1504b146104c8578063c2b6b58c146104d1578063c45a0155146104e4578063c7ee005e146104f7578063c9d0cf0a146104ff57600080fd5b8063a15612d111610120578063a15612d114610442578063a2d273f91461044b578063a4af9d4614610458578063a6aa57ce1461046b578063a8ce6bbd1461047e578063b5cae5321461049157600080fd5b8063839145401461040c5780638a9e667c146104175780638fd0aeb21461041f57806393e88f3a146104275780639f7c73e91461042f57600080fd5b806343d726d61161020057806370a08231116101b957806370a08231146103b257806370acf929146103c557806376bc05ae146103d85780637bf04e3f146103e15780637df1f1b9146103e9578063821b10b01461040357600080fd5b806343d726d614610369578063443388191461037157806355e172d9146103845780635ab2af51146103975780635ceeb36c146103a05780636e4a3a56146103a857600080fd5b80631d097974116102525780631d097974146102dc5780632565b159146102f0578063337e04c1146102f95780633551dd8c1461032c57806338d52e0f146103355780633e0b06db1461036057600080fd5b806280af811461028e5780630afbd5c9146102aa5780630d692cc1146102b2578063125f01c8146102bb578063179541ca146102d3575b600080fd5b61029760415481565b6040519081526020015b60405180910390f35b610297610543565b61029760395481565b6102c36105bd565b60405190151581526020016102a1565b610297604b5481565b6033546102c3906301000000900460ff1681565b61029760375481565b61030c610307366004612dcb565b610695565b6040805194855260208501939093529183015260608201526080016102a1565b610297603d5481565b603454610348906001600160a01b031681565b6040516001600160a01b0390911681526020016102a1565b61029760385481565b6102c3610713565b6102c361037f366004612e31565b6107b4565b610297610392366004612dcb565b610861565b610297603a5481565b6102c361086c565b6103b06108ca565b005b6102976103c0366004612dcb565b6109e1565b6103b06103d3366004612e73565b610aff565b610297603c5481565b610297610c28565b60335461034890600160201b90046001600160a01b031681565b610297603b5481565b6102976301da9c0081565b6103b0610c6a565b6102c3610e08565b610297610eb0565b6102c361043d366004612dcb565b610f32565b610297603e5481565b6033546102c39060ff1681565b6102c3610466366004612e31565b610fe5565b6102c3610479366004612f0e565b6110a2565b61029761048c366004612f0e565b611150565b61029760425481565b6104ad6104a8366004612dcb565b61116f565b604080519384526020840192909252908201526060016102a1565b61029760365481565b6033546102c39062010000900460ff1681565b603554610348906001600160a01b031681565b61034861123a565b6103b06112ad565b610297603f5481565b6033546102c390610100900460ff1681565b6102c3611352565b61029760405481565b6102c36114ed565b6103b06115a7565b604354600090815b818110156105b85760006043828154811061056857610568612f27565b60009182526020822001546001600160a01b03169150806105888361116f565b5090925090506105988183612f53565b6105a29087612f53565b9550505050806105b190612f66565b905061054b565b505090565b60006042546000146105ea5760405162461bcd60e51b81526004016105e190612f7f565b60405180910390fd5b60335462010000900460ff16156106135760405162461bcd60e51b81526004016105e190612f9c565b61061c336117a8565b336000908152604a602052604090205460ff1661064b5760405162461bcd60e51b81526004016105e190612fb9565b336000818152604a6020526040808220805460ff19168155600101829055517f6fa5f2f133d0fabc383ccf7982b3fd93ab389a1dbad7e1a5e6d20e58ae3acf759190a25060015b90565b6001600160a01b038116600090815260476020526040812060018101548291829182919082036106d35760008060008094509450945094505061070c565b6106e68682600401548360020154611851565b919650945091506106f6866118fc565b92508060010154856107089190612f53565b9450505b9193509193565b603354600090600160201b90046001600160a01b031633146107475760405162461bcd60e51b81526004016105e190612fd6565b60335462010000900460ff16156107705760405162461bcd60e51b81526004016105e190612f9c565b603654156107a65760405162461bcd60e51b815260206004820152600360248201526213d21160ea1b60448201526064016105e1565b6107ae611b16565b50600190565b603354600090600160201b90046001600160a01b031633146107e85760405162461bcd60e51b81526004016105e190612fd6565b6107f0611b52565b60008290036108275760405162461bcd60e51b815260206004820152600360248201526226262d60e91b60448201526064016105e1565b603354610100900460ff1615610843576033805461ff00191690555b61084f60018484611bab565b50600161085b60018055565b92915050565b600061085b82611c6f565b600060425460001415806108805750604554155b1561088b5750600090565b60335460ff16156108ad57604e54603f546108a69190612f53565b4211905090565b604e54604c546041546108c09190612f53565b6108a69190612f53565b60335462010000900460ff16156108f35760405162461bcd60e51b81526004016105e190612f9c565b604254156109135760405162461bcd60e51b81526004016105e190612f7f565b6035546001600160a01b031633146109b25761092e336117a8565b603354600160201b90046001600160a01b03163314610978573360009081526047602052604081206001015490036109785760405162461bcd60e51b81526004016105e190612ff3565b61098061086c565b6109b25760405162461bcd60e51b815260206004820152600360248201526222a22960e91b60448201526064016105e1565b426042556040517f46b9cd4891c2c9c48ba40bb38b2058575e06ecdaab42ec43bcb2574c4be226be90600090a1565b6001600160a01b038116600090815260476020526040812060018101548203610a0d5750600092915050565b604254429015610a1c57506042545b60018201546001600160a01b0385166000908152604960205260408120549194505b81811015610af6576001600160a01b0386166000908152604960205260408120805483908110610a7057610a70612f27565b600091825260209182902060408051606081018252600390930290910180548352600181015493830184905260020154908201819052909250610ab39190613010565b6020820151610ac29086613010565b8251610ace9190613023565b610ad8919061303a565b610ae29087612f53565b95505080610aef90612f66565b9050610a3e565b50505050919050565b600054610100900460ff1615808015610b1f5750600054600160ff909116105b80610b395750303b158015610b39575060005460ff166001145b610b9c5760405162461bcd60e51b815260206004820152602e60248201527f496e697469616c697a61626c653a20636f6e747261637420697320616c72656160448201526d191e481a5b9a5d1a585b1a5e995960921b60648201526084016105e1565b6000805460ff191660011790558015610bbf576000805461ff0019166101001790555b610bc7611d58565b610bd78989898989898989611d87565b8015610c1d576000805461ff0019169055604051600181527f7f26b83ff96e1f2b6a682f133852f6798a09c465da95921460cefb38474024989060200160405180910390a15b505050505050505050565b6041548015801590610c455750604c54610c429042612f53565b81105b1561069257604c54610c579082612f53565b9050603f548111156106925750603f5490565b603354600160201b90046001600160a01b03163314610c9b5760405162461bcd60e51b81526004016105e190612fd6565b60425415610cbb5760405162461bcd60e51b81526004016105e190612f7f565b60335462010000900460ff1615610ce45760405162461bcd60e51b81526004016105e190612f9c565b6033546301000000900460ff1615610d245760405162461bcd60e51b81526020600482015260036024820152622920a960e91b60448201526064016105e1565b604554600114610d5c5760405162461bcd60e51b81526020600482015260036024820152622921a960e91b60448201526064016105e1565b603d5442118015610d7b57506040805460009081526048602052205442115b8015610d955750604d54603f54610d929190613010565b42105b610dc75760405162461bcd60e51b8152602060048201526003602482015262292a2960e91b60448201526064016105e1565b6033805463ff000000191663010000001790556044546040517fc9fce8903c0374743352608574b0e3bfc73ce3af1d4f17bdd3a08045547a820890600090a2565b603354600090600160201b90046001600160a01b03163314610e3c5760405162461bcd60e51b81526004016105e190612fd6565b610e44611b52565b603354610100900460ff1615610e6c5760405162461bcd60e51b81526004016105e190612fb9565b6033805461ff0019166101001790556040517f0a2faf0a3c3f5b47a50a6a353f0fe6478f470cb962e2045989e4bcbede93887c90600090a150600161069260018055565b604354600090815b818110156105b8576000806000610ef560438581548110610edb57610edb612f27565b6000918252602090912001546001600160a01b0316610695565b509194509250905080610f088385612f53565b610f129190612f53565b610f1c9087612f53565b955050505080610f2b90612f66565b9050610eb8565b603354600090600160201b90046001600160a01b03163314610f665760405162461bcd60e51b81526004016105e190612fd6565b816001600160a01b038116610fa35760405162461bcd60e51b81526020600482015260036024820152624e5a4160e81b60448201526064016105e1565b60425415610fc35760405162461bcd60e51b81526004016105e190612f7f565b610fcb611b52565b610fd483611ec3565b9150610fdf60018055565b50919050565b603354600090600160201b90046001600160a01b031633146110195760405162461bcd60e51b81526004016105e190612fd6565b611021611b52565b603354610100900460ff161561105f5760405162461bcd60e51b815260206004820152600360248201526204f50560ec1b60448201526064016105e1565b60008290036110965760405162461bcd60e51b815260206004820152600360248201526226262d60e91b60448201526064016105e1565b61084f60008484611bab565b60006110ac611b52565b6110b5336117a8565b81806000036110ec5760405162461bcd60e51b815260206004820152600360248201526216959360ea1b60448201526064016105e1565b60335462010000900460ff16156111155760405162461bcd60e51b81526004016105e190612f9c565b604254156111355760405162461bcd60e51b81526004016105e190612f7f565b61113f83336120f1565b91505061114b60018055565b919050565b60006301da9c0082604b546111659190613023565b61085b919061303a565b6001600160a01b038116600090815260476020526040812060018101548291829182036111a757600080600093509350935050611233565b60335460ff16156111d1576111c58582600401548360020154611851565b91955093509150611231565b60006111db610c28565b905060008142116111ec57816111ee565b425b90506042546000146111ff57506042545b6112128360040154846002015483612450565b909650945061122087611c6f565b935061122c8487612f53565b955050505b505b9193909250565b603554604080516363f7002f60e11b815290516000926001600160a01b03169163c7ee005e9160048083019260209291908290030181865afa158015611284573d6000803e3d6000fd5b505050506040513d601f19601f820116820180604052508101906112a8919061305c565b905090565b603354600160201b90046001600160a01b031633146112de5760405162461bcd60e51b81526004016105e190612fd6565b604254156112fe5760405162461bcd60e51b81526004016105e190612f7f565b611306611b52565b60335460ff161561133f5760405162461bcd60e51b815260206004820152600360248201526213935360ea1b60448201526064016105e1565b6113476124b8565b61135060018055565b565b600061135d336117a8565b6042541561137d5760405162461bcd60e51b81526004016105e190612f7f565b60335462010000900460ff16156113a65760405162461bcd60e51b81526004016105e190612f9c565b3360009081526047602052604081206001015490036113ed5760405162461bcd60e51b815260206004820152600360248201526213169360ea1b60448201526064016105e1565b336000908152604a602052604090205460ff161561141d5760405162461bcd60e51b81526004016105e190612fb9565b603f5442106114545760405162461bcd60e51b815260206004820152600360248201526211535160ea1b60448201526064016105e1565b6033546301000000900460ff161561146e5761146e612552565b6046805490600061147e83612f66565b90915550506040805180820182526001808252426020808401918252336000818152604a9092528582209451855460ff191690151517855591519390920192909255915190917fa64980a49b0572c7b3106aa75a1480ce0e6c5ce99caf11c0aacb03354173e03591a250600190565b603354600090600160201b90046001600160a01b031633146115215760405162461bcd60e51b81526004016105e190612fd6565b604254156115415760405162461bcd60e51b81526004016105e190612f7f565b611549611b52565b60435460005b81811015611598576115876043828154811061156d5761156d612f27565b6000918252602090912001546001600160a01b0316611ec3565b5061159181612f66565b905061154f565b50600191505061069260018055565b6115b0336117a8565b60335462010000900460ff16156115d95760405162461bcd60e51b81526004016105e190612f9c565b604254156115f95760405162461bcd60e51b81526004016105e190612f7f565b6033546301000000900460ff166116385760405162461bcd60e51b815260206004820152600360248201526241524d60e81b60448201526064016105e1565b603f54421061166f5760405162461bcd60e51b8152602060048201526003602482015262292a2960e91b60448201526064016105e1565b33600090815260476020526040812060018101549091036116a25760405162461bcd60e51b81526004016105e190612ff3565b6033805463ff00000019169055604480549060006116bf83612f66565b9091555060408181558051808201909152603f54808252603e5460208301916116e89190612f53565b9052600082815260486020908152604090912082518155910151600190910155603854603e54670de0b6b3a76400009161172191612597565b83600101546117309190613023565b61173a919061303a565b82600401600082825461174d9190612f53565b9091555050603e54603f8054600090611767908490612f53565b9091555050603f5460405190815281907f01d3e7d9e37a1ba8e45cd56d6778b3f9eea1dfc58752d6522349db020479de599060200160405180910390a25050565b6117b061123a565b60405163288c314960e21b81526001600160a01b038381166004830152919091169063a230c52490602401602060405180830381865afa1580156117f8573d6000803e3d6000fd5b505050506040513d601f19601f8201168201806040525081019061181c9190613087565b61184e5760405162461bcd60e51b81526020600482015260036024820152624e504d60e81b60448201526064016105e1565b50565b600080600080603f54905060425460001461186f57506042546118cb565b603f544211156118805750426118cb565b6001600160a01b0387166000908152604a602052604090205460ff1680156118a95750603f5442105b156118cb5750603354429060ff161580156118c357508085115b156118cb5750835b6118d6868683612450565b90945092506118e487611c6f565b91506118f08285612f53565b93505093509350939050565b6000603a5460000361191057506000919050565b506001600160a01b03811660009081526047602090815260408083206003810154604a90935292205490919060ff1680156119665750603e54603c54603d546119599190613010565b6119639190612f53565b42105b156119b957600042603f5461197b9190613010565b9050670de0b6b3a7640000611992603a5483612597565b83600101546119a19190613023565b6119ab919061303a565b6119b59084613010565b9250505b6044546001141580156119cd5750603b5415155b15610fdf576000670de0b6b3a7640000603b54670de0b6b3a76400006119f7603a54603e54612597565b8560010154611a069190613023565b611a10919061303a565b611a1a9190613023565b611a24919061303a565b6001600160a01b0385166000908152604a602052604090205490915060ff168015611a795750600160005260486020527f149d903478f13b7f42654b0aa3a0f06ce2ec329315e01622f824555dff9970635442115b8015611a865750603f5442105b15611ae957603e54600160005260486020527f149d903478f13b7f42654b0aa3a0f06ce2ec329315e01622f824555dff99706354611ac49042613010565b611ace9083613023565b611ad8919061303a565b611ae29084612f53565b9250611b0f565b6001604454611af89190613010565b611b029082613023565b611b0c9084612f53565b92505b5050919050565b6033805462ff00001916620100001790556040517f1cdde67b72a90f19919ac732a437ac2f7a10fc128d28c2a6e525d89ce5cd9d3a90600090a1565b600260015403611ba45760405162461bcd60e51b815260206004820152601f60248201527f5265656e7472616e637947756172643a207265656e7472616e742063616c6c0060448201526064016105e1565b6002600155565b6014819003611be657611be183611bc284846125b9565b600081518110611bd457611bd4612f27565b6020026020010151612697565b505050565b6000611bf283836125b9565b8051909150603c811115611c2e5760405162461bcd60e51b815260206004820152600360248201526211505360ea1b60448201526064016105e1565b60005b81811015611c6157611c4f86848381518110611bd457611bd4612f27565b80611c5981612f66565b915050611c31565b505050505050565b60018055565b6001600160a01b038116600090815260476020526040812060018101548203611c9b5750600092915050565b60335460009060ff16611cbf57604c548260020154611cba9190612f53565b611cc3565b603f545b60335490915060ff16158015611cda5750603f5481115b15611ce45750603f545b604254429015611cf357506042545b81811115611d4d576000611d0a61048c8484613010565b905080600003611d205750600095945050505050565b670de0b6b3a7640000846001015482611d399190613023565b611d43919061303a565b9695505050505050565b506000949350505050565b600054610100900460ff16611d7f5760405162461bcd60e51b81526004016105e1906130a4565b61135061278a565b600054610100900460ff16611dae5760405162461bcd60e51b81526004016105e1906130a4565b60338054640100000000600160c01b031916600160201b6001600160a01b038b1602179055611de36040840160208501612dcb565b603480546001600160a01b0319166001600160a01b039290921691909117905560408301356037556060830135603e55608083013560385560a0830135603c55611e3060208401846130ef565b6033805460ff19169115159190911790556039879055603a869055603b859055604b84905562278d00604c556202a300604d556203f480604e5560448054600090611e7a90612f66565b90915550603580546001600160a01b031916331790556000819003611ead576033805461ff001916610100179055611eb9565b611eb960018383611bab565b5050505050505050565b6001600160a01b038116600090815260476020526040812060018101548203611eef5750600192915050565b600080600080611efe87610695565b6001600160a01b038b166000908152604a60205260409020549397509195509350915060ff1615611f4a576001600160a01b0387166000908152604a60205260409020805460ff191690555b60405415611f585760006040555b6040805185815260208101859052908101839052606081018290526001600160a01b038816907f4d717b642cf5faf5bf4c2e2dfa4d80e68dd08aa4530694c0a67fe5006a28caa49060800160405180910390a2846001015460366000828254611fc19190613010565b9091555050600060048601819055600386018190556001860181905542600287015560458054909190611ff39061310c565b909155506001600160a01b038716600090815260496020526040812061201891612d74565b60365415801561202a575042603d5411155b1561203757612037611b16565b60006120438385612f53565b905080156120cb576034546120cb906001600160a01b03163361206461123a565b6001600160a01b03166361d027b36040518163ffffffff1660e01b8152600401602060405180830381865afa1580156120a1573d6000803e3d6000fd5b505050506040513d601f19601f820116820180604052508101906120c5919061305c565b846127b1565b6034546120e3906001600160a01b0316338a886127b1565b506001979650505050505050565b6000603754836036546121049190612f53565b11156121385760405162461bcd60e51b81526020600482015260036024820152624f534560e81b60448201526064016105e1565b6001600160a01b0382166000908152604760205260409020603354610100900460ff16156121705761216b8360016127cc565b612196565b8054610100900460ff166121965760405162461bcd60e51b81526004016105e190612ff3565b603d5460000361221a57603c546121ad9042612f53565b603d55603e546121bd9042612f53565b603f5560335460ff166121cf57426041555b7f4867887a5b0bebacccb6e4c9c656b3a6b2fe478e226ea1fa5230d9b4bdabc26e603d54603f5460405161220d929190918252602082015260400190565b60405180910390a1612252565b603d544211156122525760405162461bcd60e51b815260206004820152600360248201526244574360e81b60448201526064016105e1565b83603660008282546122649190612f53565b9091555050600181015460000361228f5760456000815461228490612f66565b909155504260028201555b600042603f5461229f9190613010565b905060496000856001600160a01b03166001600160a01b031681526020019081526020016000206040518060600160405280670de0b6b3a76400006122e660385486612597565b6122f0908a613023565b6122fa919061303a565b815242602080830191909152603f54604092830152835460018181018655600095865294829020845160039092020190815590830151938101939093550151600290910155603854670de0b6b3a7640000906123569083612597565b6123609087613023565b61236a919061303a565b82600401600082825461237d9190612f53565b92505081905550670de0b6b3a7640000612399603a5483612597565b6123a39087613023565b6123ad919061303a565b8260030160008282546123c09190612f53565b92505081905550848260010160008282546123db9190612f53565b90915550506040518581526001600160a01b038516907f26ff3f6dedac6d273c293b8c866e073f40896739d99ad513862fe7ba70cf63ca9060200160405180910390a2603454603354612445916001600160a01b03908116918791600160201b90910416886127b1565b506001949350505050565b60008083603f546124619190613010565b61246b8585613010565b6124759087613023565b61247f919061303a565b9150670de0b6b3a7640000603954836124989190613023565b6124a2919061303a565b90506124ae8183613010565b9150935093915050565b60415442116124ef5760405162461bcd60e51b815260206004820152600360248201526252544560e81b60448201526064016105e1565b60006124f9610c28565b60435490915060005b8181101561254b5761253b6043828154811061252057612520612f27565b6000918252602090912001546001600160a01b03168461290a565b61254481612f66565b9050612502565b5050604155565b6033805463ff000000191690556044546040513381527f5c34576b5e454f10dc4c9d9bd51b9c481a15af0738c70a740634b1ce47dc36379060200160405180910390a2565b60006301da9c006125a88385613023565b6125b2919061303a565b9392505050565b606060006125c860148461303a565b90508067ffffffffffffffff8111156125e3576125e3613123565b60405190808252806020026020018201604052801561260c578160200160208202803683370190505b50915060005b8181101561268f57612653858561262a846014613023565b90612636856001612f53565b612641906014613023565b9261264e93929190613139565b612a8a565b83828151811061266557612665612f27565b6001600160a01b03909216602092830291909101909101528061268781612f66565b915050612612565b505092915050565b6126a0816117a8565b6001600160a01b0381166000908152604760205260409020821561272757805460ff166126d7576126d28260016127cc565b6126e5565b805461ff0019166101001781555b6040516001600160a01b03831681527feafaba2a6f658ac7632689fd61982a1c5387c8437e5ff730560eb63d3c935ed1906020015b60405180910390a1505050565b805460ff166127485760405162461bcd60e51b81526004016105e190612ff3565b805461ff00191681556040516001600160a01b03831681527f646f70a08891433fa5fa07bd0874c798dfc78b4b8be5b9db947619f1cc9df3a39060200161271a565b600054610100900460ff16611c695760405162461bcd60e51b81526004016105e1906130a4565b6127c66001600160a01b038516848484612acf565b50505050565b6001600160a01b03821660009081526047602052604090205460ff16612906576033546001600160a01b03808416600160201b90920416036128365760405162461bcd60e51b8152602060048201526003602482015262424c5360e81b60448201526064016105e1565b6040805160c081018252600180825283151560208084019182526000848601818152606086018281526080870183815260a088018481526001600160a01b038c16808652604790965298842097518854965161ffff1990971690151561ff00191617610100961515969096029590951787559051868601555160028601559151600385015593516004909301929092556043805491820181559091527f9690ad99d6ce244efa8a0f6c2d04036d3b33a9474db32a71b71135c6951027930180546001600160a01b03191690911790555b5050565b6001600160a01b0382166000908152604760205260408120600181015490910361293357505050565b60008060006129418661116f565b9250925092508360020154603f546129599190613010565b60028501546129689087613010565b85600401546129779190613023565b612981919061303a565b8460040160008282546129949190613010565b90915550506002840185905560408051848152602081018490529081018290526001600160a01b038716907f4b17857dbdcd87f2659c612a7f181d1c2ff8f5f2d77a3d4fe275f559c94351b29060600160405180910390a28115612a7257603454612a72906001600160a01b031633612a0b61123a565b6001600160a01b03166361d027b36040518163ffffffff1660e01b8152600401602060405180830381865afa158015612a48573d6000803e3d6000fd5b505050506040513d601f19601f82011682018060405250810190612a6c919061305c565b856127b1565b603454611c61906001600160a01b03163388866127b1565b60008083838080601f01602080910402602001604051908101604052809392919081815260200183838082843760009201919091525050505060140151949350505050565b604080516001600160a01b038581166024830152848116604483015260648083018590528351808403909101815260849092018352602080830180516001600160e01b03166323b872dd60e01b17905283518085019094528084527f5361666545524332303a206c6f772d6c6576656c2063616c6c206661696c6564908401526127c692879291600091612b67918516908490612be4565b805190915015611be15780806020019051810190612b859190613087565b611be15760405162461bcd60e51b815260206004820152602a60248201527f5361666545524332303a204552433230206f7065726174696f6e20646964206e6044820152691bdd081cdd58d8d9595960b21b60648201526084016105e1565b6060612bf38484600085612bfb565b949350505050565b606082471015612c5c5760405162461bcd60e51b815260206004820152602660248201527f416464726573733a20696e73756666696369656e742062616c616e636520666f6044820152651c8818d85b1b60d21b60648201526084016105e1565b600080866001600160a01b03168587604051612c789190613187565b60006040518083038185875af1925050503d8060008114612cb5576040519150601f19603f3d011682016040523d82523d6000602084013e612cba565b606091505b5091509150612ccb87838387612cd6565b979650505050505050565b60608315612d45578251600003612d3e576001600160a01b0385163b612d3e5760405162461bcd60e51b815260206004820152601d60248201527f416464726573733a2063616c6c20746f206e6f6e2d636f6e747261637400000060448201526064016105e1565b5081612bf3565b612bf38383815115612d5a5781518083602001fd5b8060405162461bcd60e51b81526004016105e191906131a3565b508054600082556003029060005260206000209081019061184e91905b80821115612db2576000808255600182018190556002820155600301612d91565b5090565b6001600160a01b038116811461184e57600080fd5b600060208284031215612ddd57600080fd5b81356125b281612db6565b60008083601f840112612dfa57600080fd5b50813567ffffffffffffffff811115612e1257600080fd5b602083019150836020828501011115612e2a57600080fd5b9250929050565b60008060208385031215612e4457600080fd5b823567ffffffffffffffff811115612e5b57600080fd5b612e6785828601612de8565b90969095509350505050565b600080600080600080600080888a03610180811215612e9157600080fd5b8935612e9c81612db6565b985060208a0135975060408a0135965060608a0135955060808a0135945060c0609f1982011215612ecc57600080fd5b5060a08901925061016089013567ffffffffffffffff811115612eee57600080fd5b612efa8b828c01612de8565b999c989b5096995094979396929594505050565b600060208284031215612f2057600080fd5b5035919050565b634e487b7160e01b600052603260045260246000fd5b634e487b7160e01b600052601160045260246000fd5b8082018082111561085b5761085b612f3d565b600060018201612f7857612f78612f3d565b5060010190565b60208082526003908201526214111160ea1b604082015260600190565b6020808252600390820152624f414360e81b604082015260600190565b60208082526003908201526210505160ea1b604082015260600190565b6020808252600390820152622721a960e91b604082015260600190565b60208082526003908201526224a6a160e91b604082015260600190565b8181038181111561085b5761085b612f3d565b808202811582820484141761085b5761085b612f3d565b60008261305757634e487b7160e01b600052601260045260246000fd5b500490565b60006020828403121561306e57600080fd5b81516125b281612db6565b801515811461184e57600080fd5b60006020828403121561309957600080fd5b81516125b281613079565b6020808252602b908201527f496e697469616c697a61626c653a20636f6e7472616374206973206e6f74206960408201526a6e697469616c697a696e6760a81b606082015260800190565b60006020828403121561310157600080fd5b81356125b281613079565b60008161311b5761311b612f3d565b506000190190565b634e487b7160e01b600052604160045260246000fd5b6000808585111561314957600080fd5b8386111561315657600080fd5b5050820193919092039150565b60005b8381101561317e578181015183820152602001613166565b50506000910152565b60008251613199818460208701613163565b9190910192915050565b60208152600082518060208401526131c2816040850160208701613163565b601f01601f1916919091016040019291505056fea2646970667358221220a4c4cdf94e1b0bd777f54abe1d2133ab5d2e3fee12ddf56c31f21ac292a57c4c64736f6c63430008110033",
  "devdoc": {
    "events": {
      "Activated(uint256,uint256)": {
        "params": {
          "depositMaturity": "- Lender can deposit until this timestamp",
          "maturityDate": "- Borrower's maturity date (timestamp)"
        }
      },
      "RollAccepted(uint256,uint256)": {
        "params": {
          "newMaturity": "- New maturity date (timestamp)",
          "rollId": "- Id of the new roll"
        }
      },
      "RollRejected(uint256,address)": {
        "params": {
          "rollId": "- Id of the roll",
          "user": "- Address of the user who rejected the roll"
        }
      },
      "RollRequested(uint256)": {
        "params": {
          "rollId": "- Id of the roll"
        }
      }
    },
    "kind": "dev",
    "methods": {
      "__Pool_init(address,uint256,uint256,uint256,uint256,(bool,address,uint256,uint256,uint256,uint256),bytes)": {
        "details": "This function is called only once during the pool creation",
        "params": {
          "_borrower": "- Pool borrower address",
          "_incrementPerRoll": "- Pool rolling increment rate of origination fee",
          "_members": "- Pool members (lenders) addresses encoded in bytes",
          "_originationRate": "- Pool origination fee rate",
          "_penaltyRatePerYear": "- Pool penalty rate calculated for 1 year",
          "_poolData": "- Pool data struct: asset, size, tenor, rateMantissa, depositWindow",
          "_spreadRate": "- Pool protocol spread rate"
        }
      },
      "acceptRoll()": {
        "details": "Can be called only by the whitelisted Prime lenders"
      },
      "balanceOf(address)": {
        "params": {
          "lender": "- The address of the lender"
        },
        "returns": {
          "balance": "interestAccrued - Accrued amount until today"
        }
      },
      "blacklistLenders(bytes)": {
        "details": "Can be called only by the borrower",
        "params": {
          "lenders": "- Lenders addresses encoded in bytes"
        }
      },
      "canBeDefaulted()": {
        "returns": {
          "isAbleToDefault": "True if the pool can be defaulted"
        }
      },
      "cancelCallBack()": {
        "details": "Can be called only by the whitelisted Prime lenders",
        "returns": {
          "success": "- True if the callback is cancelled by the lender"
        }
      },
      "close()": {
        "details": "Can be called only by the borrower",
        "returns": {
          "success": "- True if the pool is closed"
        }
      },
      "constructor": {
        "custom:oz-upgrades-unsafe-allow": "constructor"
      },
      "dueInterestOf(address)": {
        "params": {
          "lender": "The lender address"
        },
        "returns": {
          "due": "The interest amount",
          "penalty": "The penalty amount",
          "spreadFee": "The spread amount"
        }
      },
      "dueOf(address)": {
        "params": {
          "lender": "- The address of the lender"
        },
        "returns": {
          "due": "- Due amount for repayment",
          "originationFee": "- Origination protocol fee",
          "penalty": "- Penalty fee",
          "spreadFee": "- Protocol spread fee"
        }
      },
      "getNextPaymentTimestamp()": {
        "returns": {
          "payableToTimestamp": "- The timestamp of the next payment"
        }
      },
      "lend(uint256)": {
        "details": "Can be called only by the whitelisted Prime lenders",
        "params": {
          "amount": "- Amount of funds to lend"
        },
        "returns": {
          "success": "- True if the funds are lent"
        }
      },
      "markPoolDefaulted()": {
        "details": "Can be called only by lender or borrower if time conditions are metCan be called by governor without time conditions"
      },
      "penaltyOf(address)": {
        "params": {
          "lender": "- The address of the lender"
        },
        "returns": {
          "penalty": "penaltyFee - Penalty fee"
        }
      },
      "penaltyRate(uint256)": {
        "params": {
          "interval": "The interval in seconds"
        },
        "returns": {
          "_0": "The penalty rate as a mantissa between [0, 1e18]"
        }
      },
      "prime()": {
        "details": "Prime converted as IPrime interface",
        "returns": {
          "primeInstance": "- Prime address"
        }
      },
      "repay(address)": {
        "details": "Can be called only by the borrower",
        "params": {
          "lender": "- Lender address"
        },
        "returns": {
          "success": "- True if the lender is repaid"
        }
      },
      "repayAll()": {
        "details": "Can be called only by the borrower",
        "returns": {
          "success": "- True if all lenders are repaid"
        }
      },
      "repayInterest()": {
        "details": "Can be called only by the borrower in monthly loans"
      },
      "requestCallBack()": {
        "details": "Can be called only by the whitelisted Prime lenders",
        "returns": {
          "success": "- True if the callback is created by the lender"
        }
      },
      "requestRoll()": {
        "details": "Can be called only by the borrower"
      },
      "switchToPublic()": {
        "details": "Can be called only by the borrower",
        "returns": {
          "success": "- True if the pool is converted to public"
        }
      },
      "totalDue()": {
        "returns": {
          "totalDueAmount": "- Total due amount for repayment"
        }
      },
      "totalDueInterest()": {
        "returns": {
          "totalInterest": "The interest amount"
        }
      },
      "whitelistLenders(bytes)": {
        "details": "Can be called only by the borrower",
        "params": {
          "lenders": "- Lenders addresses encoded in bytes"
        }
      }
    },
    "title": "Pool contract is responsible for managing the pool",
    "version": 1
  },
  "userdoc": {
    "events": {
      "Activated(uint256,uint256)": {
        "notice": "Emitted when the pool is activated"
      },
      "CallbackCancelled(address)": {
        "notice": "Emitted when callback is cancelled"
      },
      "CallbackCreated(address)": {
        "notice": "Emitted when callback is created"
      },
      "Closed()": {
        "notice": "Emitted when the pool is closed"
      },
      "ConvertedToPublic()": {
        "notice": "Emitted when pool is converted to public"
      },
      "Defaulted()": {
        "notice": "Emitted when pool is defaulted"
      },
      "LenderBlacklisted(address)": {
        "notice": "Emitted when lender is removed from the pool"
      },
      "LenderWhitelisted(address)": {
        "notice": "Emitted when new lender is added to the pool"
      },
      "Lent(address,uint256)": {
        "notice": "Emitted when funds are lent to the pool"
      },
      "Repayed(address,uint256,uint256,uint256,uint256)": {
        "notice": "Emitted when lender is fully repayed"
      },
      "RepayedInterest(address,uint256,uint256,uint256)": {
        "notice": "Emitted when interest is repayed to the lender"
      },
      "RollAccepted(uint256,uint256)": {
        "notice": "Emitted when the pool is rolled"
      },
      "RollRejected(uint256,address)": {
        "notice": "Emitted when the roll is rejected"
      },
      "RollRequested(uint256)": {
        "notice": "Emitted when the roll is requested"
      }
    },
    "kind": "user",
    "methods": {
      "YEAR()": {
        "notice": "Standart year in seconds"
      },
      "__Pool_init(address,uint256,uint256,uint256,uint256,(bool,address,uint256,uint256,uint256,uint256),bytes)": {
        "notice": "Initialize the pool"
      },
      "acceptRoll()": {
        "notice": "Accepts the roll"
      },
      "activeRollId()": {
        "notice": "Pool active roll id"
      },
      "asset()": {
        "notice": "Asset address of the pool"
      },
      "balanceOf(address)": {
        "notice": "Calculates the accrued amount until today, excluding penalty"
      },
      "blacklistLenders(bytes)": {
        "notice": "Blacklists lenders"
      },
      "borrower()": {
        "notice": "Pool borrower address"
      },
      "canBeDefaulted()": {
        "notice": "Checks if the pool can be defaulted by borrower or lender"
      },
      "cancelCallBack()": {
        "notice": "Cancels the callback"
      },
      "close()": {
        "notice": "Closes the pool"
      },
      "currentSize()": {
        "notice": "Pool current size"
      },
      "defaultedAt()": {
        "notice": "If pool is defaulted, this is the timestamp of the default"
      },
      "depositMaturity()": {
        "notice": "Pool deposit maturity"
      },
      "depositWindow()": {
        "notice": "Pool deposit window (in seconds)"
      },
      "dueInterestOf(address)": {
        "notice": "Calculates the total interest and penalty for the next payment to the lender"
      },
      "dueOf(address)": {
        "notice": "Calculates the due amount for repayment including interestAccrued, penalty fee and spread for the lender"
      },
      "factory()": {
        "notice": "Pool factory address"
      },
      "getNextPaymentTimestamp()": {
        "notice": "Calculates the next payment timestamp for the borrower"
      },
      "incrementPerRoll()": {
        "notice": "Pool rolling increment fee rate"
      },
      "isBulletLoan()": {
        "notice": "Pool repayment option. Bullet loan or monthly repayment"
      },
      "isClosed()": {
        "notice": "Pool availability status"
      },
      "isPublic()": {
        "notice": "Pool publicity status"
      },
      "isRollRequested()": {
        "notice": "Roll request status"
      },
      "lastPaidTimestamp()": {
        "notice": "The last timestamp at which a payment was made or received in monthly repayment pool."
      },
      "lend(uint256)": {
        "notice": "Lends funds to the pool"
      },
      "markPoolDefaulted()": {
        "notice": "Defaults the pool"
      },
      "maturityDate()": {
        "notice": "Pool maturity date"
      },
      "maxSize()": {
        "notice": "Pool maximum size"
      },
      "originationRate()": {
        "notice": "Origination fee rate"
      },
      "penaltyOf(address)": {
        "notice": "When maturity date passed, calculates the penalty fee for the lender"
      },
      "penaltyRate(uint256)": {
        "notice": "Calculates the penalty rate for a given interval"
      },
      "penaltyRatePerYear()": {
        "notice": "Pool penalty rate calculated for 1 year"
      },
      "prime()": {
        "notice": "Returns Prime address"
      },
      "rateMantissa()": {
        "notice": "Pool interest rate (in mantissa)"
      },
      "repay(address)": {
        "notice": "Fully repays the lender with the principal and interest"
      },
      "repayAll()": {
        "notice": "Repays all lenders with the principal and interest"
      },
      "repayInterest()": {
        "notice": "Repays interest to the lender"
      },
      "requestCallBack()": {
        "notice": "Creates the callback"
      },
      "requestRoll()": {
        "notice": "Requests the roll"
      },
      "spreadRate()": {
        "notice": "Protocol spread rate"
      },
      "switchToPublic()": {
        "notice": "Converts the pool to public"
      },
      "tenor()": {
        "notice": "Pool tenor"
      },
      "totalDue()": {
        "notice": "Calculates the total due amount for repayment including interestAccrued, penalty fee and spread for all lenders"
      },
      "totalDueInterest()": {
        "notice": "Calculates the total interest and penalty amount for the next payment for all lenders"
      },
      "whitelistLenders(bytes)": {
        "notice": "Whitelists lenders"
      }
    },
    "version": 1
  },
  "storageLayout": {
    "storage": [
      {
        "astId": 138,
        "contract": "contracts/Pool/Pool.sol:Pool",
        "label": "_initialized",
        "offset": 0,
        "slot": "0",
        "type": "t_uint8"
      },
      {
        "astId": 141,
        "contract": "contracts/Pool/Pool.sol:Pool",
        "label": "_initializing",
        "offset": 1,
        "slot": "0",
        "type": "t_bool"
      },
      {
        "astId": 314,
        "contract": "contracts/Pool/Pool.sol:Pool",
        "label": "_status",
        "offset": 0,
        "slot": "1",
        "type": "t_uint256"
      },
      {
        "astId": 372,
        "contract": "contracts/Pool/Pool.sol:Pool",
        "label": "__gap",
        "offset": 0,
        "slot": "2",
        "type": "t_array(t_uint256)49_storage"
      },
      {
        "astId": 6975,
        "contract": "contracts/Pool/Pool.sol:Pool",
        "label": "isBulletLoan",
        "offset": 0,
        "slot": "51",
        "type": "t_bool"
      },
      {
        "astId": 6978,
        "contract": "contracts/Pool/Pool.sol:Pool",
        "label": "isPublic",
        "offset": 1,
        "slot": "51",
        "type": "t_bool"
      },
      {
        "astId": 6981,
        "contract": "contracts/Pool/Pool.sol:Pool",
        "label": "isClosed",
        "offset": 2,
        "slot": "51",
        "type": "t_bool"
      },
      {
        "astId": 6984,
        "contract": "contracts/Pool/Pool.sol:Pool",
        "label": "isRollRequested",
        "offset": 3,
        "slot": "51",
        "type": "t_bool"
      },
      {
        "astId": 6987,
        "contract": "contracts/Pool/Pool.sol:Pool",
        "label": "borrower",
        "offset": 4,
        "slot": "51",
        "type": "t_address"
      },
      {
        "astId": 6990,
        "contract": "contracts/Pool/Pool.sol:Pool",
        "label": "asset",
        "offset": 0,
        "slot": "52",
        "type": "t_address"
      },
      {
        "astId": 6994,
        "contract": "contracts/Pool/Pool.sol:Pool",
        "label": "factory",
        "offset": 0,
        "slot": "53",
        "type": "t_contract(IPoolFactory)6934"
      },
      {
        "astId": 6997,
        "contract": "contracts/Pool/Pool.sol:Pool",
        "label": "currentSize",
        "offset": 0,
        "slot": "54",
        "type": "t_uint256"
      },
      {
        "astId": 7000,
        "contract": "contracts/Pool/Pool.sol:Pool",
        "label": "maxSize",
        "offset": 0,
        "slot": "55",
        "type": "t_uint256"
      },
      {
        "astId": 7003,
        "contract": "contracts/Pool/Pool.sol:Pool",
        "label": "rateMantissa",
        "offset": 0,
        "slot": "56",
        "type": "t_uint256"
      },
      {
        "astId": 7006,
        "contract": "contracts/Pool/Pool.sol:Pool",
        "label": "spreadRate",
        "offset": 0,
        "slot": "57",
        "type": "t_uint256"
      },
      {
        "astId": 7009,
        "contract": "contracts/Pool/Pool.sol:Pool",
        "label": "originationRate",
        "offset": 0,
        "slot": "58",
        "type": "t_uint256"
      },
      {
        "astId": 7012,
        "contract": "contracts/Pool/Pool.sol:Pool",
        "label": "incrementPerRoll",
        "offset": 0,
        "slot": "59",
        "type": "t_uint256"
      },
      {
        "astId": 7015,
        "contract": "contracts/Pool/Pool.sol:Pool",
        "label": "depositWindow",
        "offset": 0,
        "slot": "60",
        "type": "t_uint256"
      },
      {
        "astId": 7018,
        "contract": "contracts/Pool/Pool.sol:Pool",
        "label": "depositMaturity",
        "offset": 0,
        "slot": "61",
        "type": "t_uint256"
      },
      {
        "astId": 7021,
        "contract": "contracts/Pool/Pool.sol:Pool",
        "label": "tenor",
        "offset": 0,
        "slot": "62",
        "type": "t_uint256"
      },
      {
        "astId": 7024,
        "contract": "contracts/Pool/Pool.sol:Pool",
        "label": "maturityDate",
        "offset": 0,
        "slot": "63",
        "type": "t_uint256"
      },
      {
        "astId": 7027,
        "contract": "contracts/Pool/Pool.sol:Pool",
        "label": "activeRollId",
        "offset": 0,
        "slot": "64",
        "type": "t_uint256"
      },
      {
        "astId": 7030,
        "contract": "contracts/Pool/Pool.sol:Pool",
        "label": "lastPaidTimestamp",
        "offset": 0,
        "slot": "65",
        "type": "t_uint256"
      },
      {
        "astId": 7033,
        "contract": "contracts/Pool/Pool.sol:Pool",
        "label": "defaultedAt",
        "offset": 0,
        "slot": "66",
        "type": "t_uint256"
      },
      {
        "astId": 7037,
        "contract": "contracts/Pool/Pool.sol:Pool",
        "label": "_lenders",
        "offset": 0,
        "slot": "67",
        "type": "t_array(t_address)dyn_storage"
      },
      {
        "astId": 7040,
        "contract": "contracts/Pool/Pool.sol:Pool",
        "label": "_nextRollId",
        "offset": 0,
        "slot": "68",
        "type": "t_uint256"
      },
      {
        "astId": 7043,
        "contract": "contracts/Pool/Pool.sol:Pool",
        "label": "_activeLendersCount",
        "offset": 0,
        "slot": "69",
        "type": "t_uint256"
      },
      {
        "astId": 7046,
        "contract": "contracts/Pool/Pool.sol:Pool",
        "label": "_activeCallbacksCount",
        "offset": 0,
        "slot": "70",
        "type": "t_uint256"
      },
      {
        "astId": 7052,
        "contract": "contracts/Pool/Pool.sol:Pool",
        "label": "poolMembers",
        "offset": 0,
        "slot": "71",
        "type": "t_mapping(t_address,t_struct(Member)6709_storage)"
      },
      {
        "astId": 7058,
        "contract": "contracts/Pool/Pool.sol:Pool",
        "label": "_poolRolls",
        "offset": 0,
        "slot": "72",
        "type": "t_mapping(t_uint256,t_struct(Roll)6714_storage)"
      },
      {
        "astId": 7065,
        "contract": "contracts/Pool/Pool.sol:Pool",
        "label": "_lenderPositions",
        "offset": 0,
        "slot": "73",
        "type": "t_mapping(t_address,t_array(t_struct(Position)6726_storage)dyn_storage)"
      },
      {
        "astId": 7071,
        "contract": "contracts/Pool/Pool.sol:Pool",
        "label": "_poolCallbacks",
        "offset": 0,
        "slot": "74",
        "type": "t_mapping(t_address,t_struct(CallBack)6719_storage)"
      },
      {
        "astId": 7074,
        "contract": "contracts/Pool/Pool.sol:Pool",
        "label": "penaltyRatePerYear",
        "offset": 0,
        "slot": "75",
        "type": "t_uint256"
      },
      {
        "astId": 7077,
        "contract": "contracts/Pool/Pool.sol:Pool",
        "label": "monthlyPaymentRoundDuration",
        "offset": 0,
        "slot": "76",
        "type": "t_uint256"
      },
      {
        "astId": 7080,
        "contract": "contracts/Pool/Pool.sol:Pool",
        "label": "rollRangeDuration",
        "offset": 0,
        "slot": "77",
        "type": "t_uint256"
      },
      {
        "astId": 7083,
        "contract": "contracts/Pool/Pool.sol:Pool",
        "label": "gracePeriodDuration",
        "offset": 0,
        "slot": "78",
        "type": "t_uint256"
      }
    ],
    "types": {
      "t_address": {
        "encoding": "inplace",
        "label": "address",
        "numberOfBytes": "20"
      },
      "t_array(t_address)dyn_storage": {
        "base": "t_address",
        "encoding": "dynamic_array",
        "label": "address[]",
        "numberOfBytes": "32"
      },
      "t_array(t_struct(Position)6726_storage)dyn_storage": {
        "base": "t_struct(Position)6726_storage",
        "encoding": "dynamic_array",
        "label": "struct IPool.Position[]",
        "numberOfBytes": "32"
      },
      "t_array(t_uint256)49_storage": {
        "base": "t_uint256",
        "encoding": "inplace",
        "label": "uint256[49]",
        "numberOfBytes": "1568"
      },
      "t_bool": {
        "encoding": "inplace",
        "label": "bool",
        "numberOfBytes": "1"
      },
      "t_contract(IPoolFactory)6934": {
        "encoding": "inplace",
        "label": "contract IPoolFactory",
        "numberOfBytes": "20"
      },
      "t_mapping(t_address,t_array(t_struct(Position)6726_storage)dyn_storage)": {
        "encoding": "mapping",
        "key": "t_address",
        "label": "mapping(address => struct IPool.Position[])",
        "numberOfBytes": "32",
        "value": "t_array(t_struct(Position)6726_storage)dyn_storage"
      },
      "t_mapping(t_address,t_struct(CallBack)6719_storage)": {
        "encoding": "mapping",
        "key": "t_address",
        "label": "mapping(address => struct IPool.CallBack)",
        "numberOfBytes": "32",
        "value": "t_struct(CallBack)6719_storage"
      },
      "t_mapping(t_address,t_struct(Member)6709_storage)": {
        "encoding": "mapping",
        "key": "t_address",
        "label": "mapping(address => struct IPool.Member)",
        "numberOfBytes": "32",
        "value": "t_struct(Member)6709_storage"
      },
      "t_mapping(t_uint256,t_struct(Roll)6714_storage)": {
        "encoding": "mapping",
        "key": "t_uint256",
        "label": "mapping(uint256 => struct IPool.Roll)",
        "numberOfBytes": "32",
        "value": "t_struct(Roll)6714_storage"
      },
      "t_struct(CallBack)6719_storage": {
        "encoding": "inplace",
        "label": "struct IPool.CallBack",
        "members": [
          {
            "astId": 6716,
            "contract": "contracts/Pool/Pool.sol:Pool",
            "label": "isCreated",
            "offset": 0,
            "slot": "0",
            "type": "t_bool"
          },
          {
            "astId": 6718,
            "contract": "contracts/Pool/Pool.sol:Pool",
            "label": "timestamp",
            "offset": 0,
            "slot": "1",
            "type": "t_uint256"
          }
        ],
        "numberOfBytes": "64"
      },
      "t_struct(Member)6709_storage": {
        "encoding": "inplace",
        "label": "struct IPool.Member",
        "members": [
          {
            "astId": 6698,
            "contract": "contracts/Pool/Pool.sol:Pool",
            "label": "isCreated",
            "offset": 0,
            "slot": "0",
            "type": "t_bool"
          },
          {
            "astId": 6700,
            "contract": "contracts/Pool/Pool.sol:Pool",
            "label": "isWhitelisted",
            "offset": 1,
            "slot": "0",
            "type": "t_bool"
          },
          {
            "astId": 6702,
            "contract": "contracts/Pool/Pool.sol:Pool",
            "label": "principal",
            "offset": 0,
            "slot": "1",
            "type": "t_uint256"
          },
          {
            "astId": 6704,
            "contract": "contracts/Pool/Pool.sol:Pool",
            "label": "accrualTs",
            "offset": 0,
            "slot": "2",
            "type": "t_uint256"
          },
          {
            "astId": 6706,
            "contract": "contracts/Pool/Pool.sol:Pool",
            "label": "totalOriginationFee",
            "offset": 0,
            "slot": "3",
            "type": "t_uint256"
          },
          {
            "astId": 6708,
            "contract": "contracts/Pool/Pool.sol:Pool",
            "label": "totalInterest",
            "offset": 0,
            "slot": "4",
            "type": "t_uint256"
          }
        ],
        "numberOfBytes": "160"
      },
      "t_struct(Position)6726_storage": {
        "encoding": "inplace",
        "label": "struct IPool.Position",
        "members": [
          {
            "astId": 6721,
            "contract": "contracts/Pool/Pool.sol:Pool",
            "label": "interest",
            "offset": 0,
            "slot": "0",
            "type": "t_uint256"
          },
          {
            "astId": 6723,
            "contract": "contracts/Pool/Pool.sol:Pool",
            "label": "startAt",
            "offset": 0,
            "slot": "1",
            "type": "t_uint256"
          },
          {
            "astId": 6725,
            "contract": "contracts/Pool/Pool.sol:Pool",
            "label": "endAt",
            "offset": 0,
            "slot": "2",
            "type": "t_uint256"
          }
        ],
        "numberOfBytes": "96"
      },
      "t_struct(Roll)6714_storage": {
        "encoding": "inplace",
        "label": "struct IPool.Roll",
        "members": [
          {
            "astId": 6711,
            "contract": "contracts/Pool/Pool.sol:Pool",
            "label": "startDate",
            "offset": 0,
            "slot": "0",
            "type": "t_uint256"
          },
          {
            "astId": 6713,
            "contract": "contracts/Pool/Pool.sol:Pool",
            "label": "endDate",
            "offset": 0,
            "slot": "1",
            "type": "t_uint256"
          }
        ],
        "numberOfBytes": "64"
      },
      "t_uint256": {
        "encoding": "inplace",
        "label": "uint256",
        "numberOfBytes": "32"
      },
      "t_uint8": {
        "encoding": "inplace",
        "label": "uint8",
        "numberOfBytes": "1"
      }
    }
  }
}