{
  "address": "0xA91ac11A4233A541D88BcB0602869aa4976C60be",
  "abi": [
    {
      "inputs": [
        {
          "internalType": "address",
          "name": "token",
          "type": "address"
        },
        {
          "internalType": "string",
          "name": "symbol",
          "type": "string"
        },
        {
          "internalType": "bool",
          "name": "isMintable",
          "type": "bool"
        }
      ],
      "name": "addTokenToList",
      "outputs": [
        {
          "internalType": "bool",
          "name": "",
          "type": "bool"
        }
      ],
      "stateMutability": "nonpayable",
      "type": "function"
    },
    {
      "inputs": [
        {
          "internalType": "uint256",
          "name": "",
          "type": "uint256"
        }
      ],
      "name": "allTokens",
      "outputs": [
        {
          "internalType": "address",
          "name": "",
          "type": "address"
        }
      ],
      "stateMutability": "view",
      "type": "function"
    },
    {
      "inputs": [
        {
          "internalType": "address",
          "name": "token",
          "type": "address"
        },
        {
          "internalType": "uint256",
          "name": "amount",
          "type": "uint256"
        }
      ],
      "name": "claim",
      "outputs": [
        {
          "internalType": "bool",
          "name": "",
          "type": "bool"
        }
      ],
      "stateMutability": "nonpayable",
      "type": "function"
    },
    {
      "inputs": [],
      "name": "claimAll",
      "outputs": [
        {
          "internalType": "bool",
          "name": "",
          "type": "bool"
        }
      ],
      "stateMutability": "nonpayable",
      "type": "function"
    },
    {
      "inputs": [
        {
          "internalType": "address",
          "name": "",
          "type": "address"
        }
      ],
      "name": "isTokenExists",
      "outputs": [
        {
          "internalType": "bool",
          "name": "",
          "type": "bool"
        }
      ],
      "stateMutability": "view",
      "type": "function"
    },
    {
      "inputs": [
        {
          "internalType": "address",
          "name": "",
          "type": "address"
        }
      ],
      "name": "isTokenMintable",
      "outputs": [
        {
          "internalType": "bool",
          "name": "",
          "type": "bool"
        }
      ],
      "stateMutability": "view",
      "type": "function"
    },
    {
      "inputs": [
        {
          "internalType": "address",
          "name": "token",
          "type": "address"
        },
        {
          "internalType": "address",
          "name": "to",
          "type": "address"
        },
        {
          "internalType": "uint256",
          "name": "amount",
          "type": "uint256"
        }
      ],
      "name": "mintTokenTo",
      "outputs": [
        {
          "internalType": "bool",
          "name": "",
          "type": "bool"
        }
      ],
      "stateMutability": "nonpayable",
      "type": "function"
    },
    {
      "inputs": [
        {
          "internalType": "address",
          "name": "token",
          "type": "address"
        }
      ],
      "name": "myBalanceOf",
      "outputs": [
        {
          "internalType": "uint256",
          "name": "",
          "type": "uint256"
        }
      ],
      "stateMutability": "view",
      "type": "function"
    },
    {
      "inputs": [
        {
          "internalType": "string",
          "name": "",
          "type": "string"
        }
      ],
      "name": "tokenBySymbol",
      "outputs": [
        {
          "internalType": "address",
          "name": "",
          "type": "address"
        }
      ],
      "stateMutability": "view",
      "type": "function"
    },
    {
      "inputs": [
        {
          "internalType": "address",
          "name": "token",
          "type": "address"
        },
        {
          "internalType": "address",
          "name": "newOwner",
          "type": "address"
        }
      ],
      "name": "transferOwnershipOfToken",
      "outputs": [],
      "stateMutability": "nonpayable",
      "type": "function"
    },
    {
      "inputs": [
        {
          "internalType": "address",
          "name": "token",
          "type": "address"
        },
        {
          "internalType": "address",
          "name": "from",
          "type": "address"
        },
        {
          "internalType": "address",
          "name": "to",
          "type": "address"
        },
        {
          "internalType": "uint256",
          "name": "amount",
          "type": "uint256"
        }
      ],
      "name": "transferTokenFromTo",
      "outputs": [
        {
          "internalType": "bool",
          "name": "",
          "type": "bool"
        }
      ],
      "stateMutability": "nonpayable",
      "type": "function"
    },
    {
      "inputs": [
        {
          "internalType": "address",
          "name": "token",
          "type": "address"
        },
        {
          "internalType": "address",
          "name": "to",
          "type": "address"
        },
        {
          "internalType": "uint256",
          "name": "amount",
          "type": "uint256"
        }
      ],
      "name": "transferTokenTo",
      "outputs": [
        {
          "internalType": "bool",
          "name": "",
          "type": "bool"
        }
      ],
      "stateMutability": "nonpayable",
      "type": "function"
    },
    {
      "inputs": [
        {
          "internalType": "address",
          "name": "token",
          "type": "address"
        },
        {
          "internalType": "uint256",
          "name": "amount",
          "type": "uint256"
        }
      ],
      "name": "transferTokenToMe",
      "outputs": [
        {
          "internalType": "bool",
          "name": "",
          "type": "bool"
        }
      ],
      "stateMutability": "nonpayable",
      "type": "function"
    }
  ],
  "transactionHash": "0x967da2f697186e99b5fb4c999d2d8c23c1ad613d54bd3266b83f6482e01ec878",
  "args": [],
  "numDeployments": 1,
  "solcInputHash": "8c5f1d733fcdadb859f8259dc1ed9ca5",
  "bytecode": "0x608060405234801561001057600080fd5b50610f6b806100206000396000f3fe608060405234801561001057600080fd5b50600436106100cf5760003560e01c80639ed4fa5a1161008c578063b3a842ff11610066578063b3a842ff146101da578063bdb636061461020e578063d1058e5914610221578063d2a7780c1461022957600080fd5b80639ed4fa5a14610191578063aad3ec96146101b4578063afcc6303146101c757600080fd5b8063055dbc28146100d45780630d172a01146100fa578063480a3e891461011d57806356ea8fd2146101305780635da619a914610143578063634282af14610166575b600080fd5b6100e76100e2366004610ac5565b61023e565b6040519081526020015b60405180910390f35b61010d610108366004610ae7565b6102af565b60405190151581526020016100f1565b61010d61012b366004610b23565b61036e565b61010d61013e366004610ae7565b6103bd565b61010d610151366004610ac5565b60026020526000908152604090205460ff1681565b610179610174366004610b4d565b6104c4565b6040516001600160a01b0390911681526020016100f1565b61010d61019f366004610ac5565b60036020526000908152604090205460ff1681565b61010d6101c2366004610b23565b6104ee565b61010d6101d5366004610b66565b6106ac565b6101796101e8366004610bc7565b80516020818301810180516001825292820191909301209152546001600160a01b031681565b61010d61021c366004610c89565b61076b565b61010d61090c565b61023c610237366004610d1f565b610a0f565b005b6040516370a0823160e01b81523360048201526000906001600160a01b038316906370a0823190602401602060405180830381865afa158015610285573d6000803e3d6000fd5b505050506040513d601f19601f820116820180604052508101906102a99190610d52565b92915050565b6001600160a01b038316600090815260036020526040812054849060ff166102f25760405162461bcd60e51b81526004016102e990610d6b565b60405180910390fd5b60405163a9059cbb60e01b81526001600160a01b0385811660048301526024820185905286169063a9059cbb906044016020604051808303816000875af1158015610341573d6000803e3d6000fd5b505050506040513d601f19601f820116820180604052508101906103659190610d99565b95945050505050565b6001600160a01b038216600090815260036020526040812054839060ff166103a85760405162461bcd60e51b81526004016102e990610d6b565b6103b38433856102af565b91505b5092915050565b6001600160a01b038316600090815260036020526040812054849060ff166103f75760405162461bcd60e51b81526004016102e990610d6b565b6001600160a01b03851660009081526002602052604090205460ff166104575760405162461bcd60e51b8152602060048201526015602482015274546f6b656e206973206e6f74206d696e7461626c6560581b60448201526064016102e9565b6040516340c10f1960e01b81526001600160a01b038581166004830152602482018590528616906340c10f1990604401600060405180830381600087803b1580156104a157600080fd5b505af11580156104b5573d6000803e3d6000fd5b50600198975050505050505050565b600081815481106104d457600080fd5b6000918252602090912001546001600160a01b0316905081565b6001600160a01b038216600090815260036020526040812054839060ff166105285760405162461bcd60e51b81526004016102e990610d6b565b6040516370a0823160e01b81523060048201526000906001600160a01b038616906370a0823190602401602060405180830381865afa15801561056f573d6000803e3d6000fd5b505050506040513d601f19601f820116820180604052508101906105939190610d52565b9050838111156106165760405163a9059cbb60e01b8152336004820152602481018590526001600160a01b0386169063a9059cbb906044016020604051808303816000875af11580156105ea573d6000803e3d6000fd5b505050506040513d601f19601f8201168201806040525081019061060e9190610d99565b9250506103b6565b6001600160a01b03851660009081526002602052604090205460ff16156106a1576040516340c10f1960e01b8152336004820152602481018590526001600160a01b038616906340c10f1990604401600060405180830381600087803b15801561067f57600080fd5b505af1158015610693573d6000803e3d6000fd5b5050505060019250506103b6565b506000949350505050565b6001600160a01b038416600090815260036020526040812054859060ff166106e65760405162461bcd60e51b81526004016102e990610d6b565b6040516323b872dd60e01b81526001600160a01b0386811660048301528581166024830152604482018590528716906323b872dd906064016020604051808303816000875af115801561073d573d6000803e3d6000fd5b505050506040513d601f19601f820116820180604052508101906107619190610d99565b9695505050505050565b6001600160a01b03841660009081526003602052604081205460ff16156107cb5760405162461bcd60e51b8152602060048201526014602482015273546f6b656e20616c72656164792065786973747360601b60448201526064016102e9565b60006001600160a01b0316600185856040516107e8929190610db6565b908152604051908190036020019020546001600160a01b0316146108465760405162461bcd60e51b815260206004820152601560248201527453796d626f6c20616c72656164792065786973747360581b60448201526064016102e9565b60008054600180820183557f290decd9548b62a8d60345a988386fc84ba6bc95484008f6362f93160ef3e56390910180546001600160a01b0319166001600160a01b0389169081179091558252600260209081526040808420805460ff199081168815151790915560039092529283902080549091168217905590518691906108d29087908790610db6565b90815260405190819003602001902080546001600160a01b03929092166001600160a01b0319909216919091179055506001949350505050565b6000805b600054811015610a0757600080828154811061092e5761092e610dc6565b600091825260209182902001546040805163313ce56760e01b815290516001600160a01b039092169263313ce567926004808401938290030181865afa15801561097c573d6000803e3d6000fd5b505050506040513d601f19601f820116820180604052508101906109a09190610ddc565b60ff16905060006109b282600a610ef9565b6109be906103e8610f05565b90506109f1600084815481106109d6576109d6610dc6565b6000918252602090912001546001600160a01b0316826104ee565b50505080806109ff90610f1c565b915050610910565b506001905090565b6001600160a01b038216600090815260036020526040902054829060ff16610a495760405162461bcd60e51b81526004016102e990610d6b565b60405163f2fde38b60e01b81526001600160a01b03838116600483015284169063f2fde38b90602401600060405180830381600087803b158015610a8c57600080fd5b505af1158015610aa0573d6000803e3d6000fd5b50505050505050565b80356001600160a01b0381168114610ac057600080fd5b919050565b600060208284031215610ad757600080fd5b610ae082610aa9565b9392505050565b600080600060608486031215610afc57600080fd5b610b0584610aa9565b9250610b1360208501610aa9565b9150604084013590509250925092565b60008060408385031215610b3657600080fd5b610b3f83610aa9565b946020939093013593505050565b600060208284031215610b5f57600080fd5b5035919050565b60008060008060808587031215610b7c57600080fd5b610b8585610aa9565b9350610b9360208601610aa9565b9250610ba160408601610aa9565b9396929550929360600135925050565b634e487b7160e01b600052604160045260246000fd5b600060208284031215610bd957600080fd5b813567ffffffffffffffff80821115610bf157600080fd5b818401915084601f830112610c0557600080fd5b813581811115610c1757610c17610bb1565b604051601f8201601f19908116603f01168101908382118183101715610c3f57610c3f610bb1565b81604052828152876020848701011115610c5857600080fd5b826020860160208301376000928101602001929092525095945050505050565b8015158114610c8657600080fd5b50565b60008060008060608587031215610c9f57600080fd5b610ca885610aa9565b9350602085013567ffffffffffffffff80821115610cc557600080fd5b818701915087601f830112610cd957600080fd5b813581811115610ce857600080fd5b886020828501011115610cfa57600080fd5b6020830195508094505050506040850135610d1481610c78565b939692955090935050565b60008060408385031215610d3257600080fd5b610d3b83610aa9565b9150610d4960208401610aa9565b90509250929050565b600060208284031215610d6457600080fd5b5051919050565b602080825260149082015273151bdad95b88191bd95cc81b9bdd08195e1a5cdd60621b604082015260600190565b600060208284031215610dab57600080fd5b8151610ae081610c78565b8183823760009101908152919050565b634e487b7160e01b600052603260045260246000fd5b600060208284031215610dee57600080fd5b815160ff81168114610ae057600080fd5b634e487b7160e01b600052601160045260246000fd5b600181815b80851115610e50578160001904821115610e3657610e36610dff565b80851615610e4357918102915b93841c9390800290610e1a565b509250929050565b600082610e67575060016102a9565b81610e74575060006102a9565b8160018114610e8a5760028114610e9457610eb0565b60019150506102a9565b60ff841115610ea557610ea5610dff565b50506001821b6102a9565b5060208310610133831016604e8410600b8410161715610ed3575081810a6102a9565b610edd8383610e15565b8060001904821115610ef157610ef1610dff565b029392505050565b6000610ae08383610e58565b80820281158282048414176102a9576102a9610dff565b600060018201610f2e57610f2e610dff565b506001019056fea2646970667358221220e0b71039abfd6238a46538f88a49f9c67a848bfaabc37f9854ac1b3f4e654bab64736f6c63430008110033",
  "devdoc": {
    "kind": "dev",
    "methods": {
      "addTokenToList(address,string,bool)": {
        "params": {
          "isMintable": "Whether the token is mintable",
          "symbol": "Symbol of the token",
          "token": "Address of the token"
        }
      }
    },
    "version": 1
  },
  "userdoc": {
    "kind": "user",
    "methods": {
      "addTokenToList(address,string,bool)": {
        "notice": "Adds token to the list of tokens"
      },
      "claim(address,uint256)": {
        "notice": "Gives amount of token to msg.sender"
      },
      "claimAll()": {
        "notice": "Gives 1000 of each token to msg.sender"
      },
      "mintTokenTo(address,address,uint256)": {
        "notice": "Mints token to 'to'"
      },
      "myBalanceOf(address)": {
        "notice": "Returns msg.sender's balance of token"
      },
      "transferOwnershipOfToken(address,address)": {
        "notice": "Transfers ownership of token to 'newOwner'"
      },
      "transferTokenFromTo(address,address,address,uint256)": {
        "notice": "Transfers token from 'from' to 'to'"
      },
      "transferTokenTo(address,address,uint256)": {
        "notice": "Transfers token from this to 'to'"
      },
      "transferTokenToMe(address,uint256)": {
        "notice": "Transfers token from this to msg.sender"
      }
    },
    "version": 1
  },
  "storageLayout": {
    "storage": [
      {
        "astId": 10220,
        "contract": "contracts/mock/CoinKeeperGoerli.sol:CoinKeeperGoerli",
        "label": "allTokens",
        "offset": 0,
        "slot": "0",
        "type": "t_array(t_address)dyn_storage"
      },
      {
        "astId": 10224,
        "contract": "contracts/mock/CoinKeeperGoerli.sol:CoinKeeperGoerli",
        "label": "tokenBySymbol",
        "offset": 0,
        "slot": "1",
        "type": "t_mapping(t_string_memory_ptr,t_address)"
      },
      {
        "astId": 10228,
        "contract": "contracts/mock/CoinKeeperGoerli.sol:CoinKeeperGoerli",
        "label": "isTokenMintable",
        "offset": 0,
        "slot": "2",
        "type": "t_mapping(t_address,t_bool)"
      },
      {
        "astId": 10232,
        "contract": "contracts/mock/CoinKeeperGoerli.sol:CoinKeeperGoerli",
        "label": "isTokenExists",
        "offset": 0,
        "slot": "3",
        "type": "t_mapping(t_address,t_bool)"
      }
    ],
    "types": {
      "t_address": {
        "encoding": "inplace",
        "label": "address",
        "numberOfBytes": "20"
      },
      "t_array(t_address)dyn_storage": {
        "base": "t_address",
        "encoding": "dynamic_array",
        "label": "address[]",
        "numberOfBytes": "32"
      },
      "t_bool": {
        "encoding": "inplace",
        "label": "bool",
        "numberOfBytes": "1"
      },
      "t_mapping(t_address,t_bool)": {
        "encoding": "mapping",
        "key": "t_address",
        "label": "mapping(address => bool)",
        "numberOfBytes": "32",
        "value": "t_bool"
      },
      "t_mapping(t_string_memory_ptr,t_address)": {
        "encoding": "mapping",
        "key": "t_string_memory_ptr",
        "label": "mapping(string => address)",
        "numberOfBytes": "32",
        "value": "t_address"
      },
      "t_string_memory_ptr": {
        "encoding": "bytes",
        "label": "string",
        "numberOfBytes": "32"
      }
    }
  }
}