{
  "address": "0xb7A2ECc2e2A87b4BD0a5323142974783101028C6",
  "abi": [
    {
      "anonymous": false,
      "inputs": [
        {
          "indexed": false,
          "internalType": "uint256",
          "name": "depositMaturity",
          "type": "uint256"
        },
        {
          "indexed": false,
          "internalType": "uint256",
          "name": "maturityDate",
          "type": "uint256"
        }
      ],
      "name": "Activated",
      "type": "event"
    },
    {
      "anonymous": false,
      "inputs": [
        {
          "indexed": true,
          "internalType": "address",
          "name": "lender",
          "type": "address"
        }
      ],
      "name": "CallbackCancelled",
      "type": "event"
    },
    {
      "anonymous": false,
      "inputs": [
        {
          "indexed": true,
          "internalType": "address",
          "name": "lender",
          "type": "address"
        }
      ],
      "name": "CallbackCreated",
      "type": "event"
    },
    {
      "anonymous": false,
      "inputs": [],
      "name": "Closed",
      "type": "event"
    },
    {
      "anonymous": false,
      "inputs": [],
      "name": "ConvertedToPublic",
      "type": "event"
    },
    {
      "anonymous": false,
      "inputs": [],
      "name": "Defaulted",
      "type": "event"
    },
    {
      "anonymous": false,
      "inputs": [
        {
          "indexed": false,
          "internalType": "uint256",
          "name": "newPeriod",
          "type": "uint256"
        }
      ],
      "name": "GracePeriodChanged",
      "type": "event"
    },
    {
      "anonymous": false,
      "inputs": [
        {
          "indexed": false,
          "internalType": "uint8",
          "name": "version",
          "type": "uint8"
        }
      ],
      "name": "Initialized",
      "type": "event"
    },
    {
      "anonymous": false,
      "inputs": [
        {
          "indexed": false,
          "internalType": "address",
          "name": "lender",
          "type": "address"
        }
      ],
      "name": "LenderBlacklisted",
      "type": "event"
    },
    {
      "anonymous": false,
      "inputs": [
        {
          "indexed": false,
          "internalType": "address",
          "name": "lender",
          "type": "address"
        }
      ],
      "name": "LenderWhitelisted",
      "type": "event"
    },
    {
      "anonymous": false,
      "inputs": [
        {
          "indexed": true,
          "internalType": "address",
          "name": "lender",
          "type": "address"
        },
        {
          "indexed": false,
          "internalType": "uint256",
          "name": "amount",
          "type": "uint256"
        }
      ],
      "name": "Lent",
      "type": "event"
    },
    {
      "anonymous": false,
      "inputs": [
        {
          "indexed": false,
          "internalType": "uint256",
          "name": "newPeriod",
          "type": "uint256"
        }
      ],
      "name": "MonthlyRoundPeriodChanged",
      "type": "event"
    },
    {
      "anonymous": false,
      "inputs": [
        {
          "indexed": true,
          "internalType": "address",
          "name": "lender",
          "type": "address"
        },
        {
          "indexed": false,
          "internalType": "uint256",
          "name": "repayed",
          "type": "uint256"
        },
        {
          "indexed": false,
          "internalType": "uint256",
          "name": "spreadFee",
          "type": "uint256"
        },
        {
          "indexed": false,
          "internalType": "uint256",
          "name": "originationFee",
          "type": "uint256"
        },
        {
          "indexed": false,
          "internalType": "uint256",
          "name": "penalty",
          "type": "uint256"
        }
      ],
      "name": "Repayed",
      "type": "event"
    },
    {
      "anonymous": false,
      "inputs": [
        {
          "indexed": true,
          "internalType": "address",
          "name": "lender",
          "type": "address"
        },
        {
          "indexed": false,
          "internalType": "uint256",
          "name": "repayed",
          "type": "uint256"
        },
        {
          "indexed": false,
          "internalType": "uint256",
          "name": "spreadFee",
          "type": "uint256"
        },
        {
          "indexed": false,
          "internalType": "uint256",
          "name": "penalty",
          "type": "uint256"
        }
      ],
      "name": "RepayedInterest",
      "type": "event"
    },
    {
      "anonymous": false,
      "inputs": [
        {
          "indexed": true,
          "internalType": "uint256",
          "name": "rollId",
          "type": "uint256"
        },
        {
          "indexed": false,
          "internalType": "uint256",
          "name": "newMaturity",
          "type": "uint256"
        }
      ],
      "name": "RollAccepted",
      "type": "event"
    },
    {
      "anonymous": false,
      "inputs": [
        {
          "indexed": false,
          "internalType": "uint256",
          "name": "newPeriod",
          "type": "uint256"
        }
      ],
      "name": "RollRangePeriodChanged",
      "type": "event"
    },
    {
      "anonymous": false,
      "inputs": [
        {
          "indexed": true,
          "internalType": "uint256",
          "name": "rollId",
          "type": "uint256"
        },
        {
          "indexed": false,
          "internalType": "address",
          "name": "user",
          "type": "address"
        }
      ],
      "name": "RollRejected",
      "type": "event"
    },
    {
      "anonymous": false,
      "inputs": [
        {
          "indexed": true,
          "internalType": "uint256",
          "name": "rollId",
          "type": "uint256"
        }
      ],
      "name": "RollRequested",
      "type": "event"
    },
    {
      "inputs": [],
      "name": "YEAR",
      "outputs": [
        {
          "internalType": "uint256",
          "name": "",
          "type": "uint256"
        }
      ],
      "stateMutability": "view",
      "type": "function"
    },
    {
      "inputs": [
        {
          "internalType": "address",
          "name": "_borrower",
          "type": "address"
        },
        {
          "internalType": "uint256",
          "name": "_spreadRate",
          "type": "uint256"
        },
        {
          "internalType": "uint256",
          "name": "_originationRate",
          "type": "uint256"
        },
        {
          "internalType": "uint256",
          "name": "_incrementPerRoll",
          "type": "uint256"
        },
        {
          "internalType": "uint256",
          "name": "_penaltyRatePerYear",
          "type": "uint256"
        },
        {
          "components": [
            {
              "internalType": "bool",
              "name": "isBulletLoan",
              "type": "bool"
            },
            {
              "internalType": "address",
              "name": "asset",
              "type": "address"
            },
            {
              "internalType": "uint256",
              "name": "size",
              "type": "uint256"
            },
            {
              "internalType": "uint256",
              "name": "tenor",
              "type": "uint256"
            },
            {
              "internalType": "uint256",
              "name": "rateMantissa",
              "type": "uint256"
            },
            {
              "internalType": "uint256",
              "name": "depositWindow",
              "type": "uint256"
            }
          ],
          "internalType": "struct IPool.PoolData",
          "name": "_poolData",
          "type": "tuple"
        },
        {
          "internalType": "bytes",
          "name": "_members",
          "type": "bytes"
        }
      ],
      "name": "__Pool_init",
      "outputs": [],
      "stateMutability": "nonpayable",
      "type": "function"
    },
    {
      "inputs": [],
      "name": "acceptRoll",
      "outputs": [],
      "stateMutability": "nonpayable",
      "type": "function"
    },
    {
      "inputs": [],
      "name": "activeRollId",
      "outputs": [
        {
          "internalType": "uint256",
          "name": "",
          "type": "uint256"
        }
      ],
      "stateMutability": "view",
      "type": "function"
    },
    {
      "inputs": [],
      "name": "asset",
      "outputs": [
        {
          "internalType": "address",
          "name": "",
          "type": "address"
        }
      ],
      "stateMutability": "view",
      "type": "function"
    },
    {
      "inputs": [
        {
          "internalType": "address",
          "name": "lender",
          "type": "address"
        }
      ],
      "name": "balanceOf",
      "outputs": [
        {
          "internalType": "uint256",
          "name": "balance",
          "type": "uint256"
        }
      ],
      "stateMutability": "view",
      "type": "function"
    },
    {
      "inputs": [
        {
          "internalType": "bytes",
          "name": "lenders",
          "type": "bytes"
        }
      ],
      "name": "blacklistLenders",
      "outputs": [
        {
          "internalType": "bool",
          "name": "success",
          "type": "bool"
        }
      ],
      "stateMutability": "nonpayable",
      "type": "function"
    },
    {
      "inputs": [],
      "name": "borrower",
      "outputs": [
        {
          "internalType": "address",
          "name": "",
          "type": "address"
        }
      ],
      "stateMutability": "view",
      "type": "function"
    },
    {
      "inputs": [],
      "name": "canBeDefaulted",
      "outputs": [
        {
          "internalType": "bool",
          "name": "isAbleToDefault",
          "type": "bool"
        }
      ],
      "stateMutability": "view",
      "type": "function"
    },
    {
      "inputs": [],
      "name": "cancelCallBack",
      "outputs": [
        {
          "internalType": "bool",
          "name": "success",
          "type": "bool"
        }
      ],
      "stateMutability": "nonpayable",
      "type": "function"
    },
    {
      "inputs": [],
      "name": "close",
      "outputs": [
        {
          "internalType": "bool",
          "name": "success",
          "type": "bool"
        }
      ],
      "stateMutability": "nonpayable",
      "type": "function"
    },
    {
      "inputs": [],
      "name": "currentSize",
      "outputs": [
        {
          "internalType": "uint256",
          "name": "",
          "type": "uint256"
        }
      ],
      "stateMutability": "view",
      "type": "function"
    },
    {
      "inputs": [],
      "name": "defaultedAt",
      "outputs": [
        {
          "internalType": "uint256",
          "name": "",
          "type": "uint256"
        }
      ],
      "stateMutability": "view",
      "type": "function"
    },
    {
      "inputs": [],
      "name": "depositMaturity",
      "outputs": [
        {
          "internalType": "uint256",
          "name": "",
          "type": "uint256"
        }
      ],
      "stateMutability": "view",
      "type": "function"
    },
    {
      "inputs": [],
      "name": "depositWindow",
      "outputs": [
        {
          "internalType": "uint256",
          "name": "",
          "type": "uint256"
        }
      ],
      "stateMutability": "view",
      "type": "function"
    },
    {
      "inputs": [
        {
          "internalType": "address",
          "name": "lender",
          "type": "address"
        }
      ],
      "name": "dueInterestOf",
      "outputs": [
        {
          "internalType": "uint256",
          "name": "due",
          "type": "uint256"
        },
        {
          "internalType": "uint256",
          "name": "spreadFee",
          "type": "uint256"
        },
        {
          "internalType": "uint256",
          "name": "penalty",
          "type": "uint256"
        }
      ],
      "stateMutability": "view",
      "type": "function"
    },
    {
      "inputs": [
        {
          "internalType": "address",
          "name": "lender",
          "type": "address"
        }
      ],
      "name": "dueOf",
      "outputs": [
        {
          "internalType": "uint256",
          "name": "due",
          "type": "uint256"
        },
        {
          "internalType": "uint256",
          "name": "spreadFee",
          "type": "uint256"
        },
        {
          "internalType": "uint256",
          "name": "originationFee",
          "type": "uint256"
        },
        {
          "internalType": "uint256",
          "name": "penalty",
          "type": "uint256"
        }
      ],
      "stateMutability": "view",
      "type": "function"
    },
    {
      "inputs": [],
      "name": "factory",
      "outputs": [
        {
          "internalType": "contract IPoolFactory",
          "name": "",
          "type": "address"
        }
      ],
      "stateMutability": "view",
      "type": "function"
    },
    {
      "inputs": [],
      "name": "getNextPaymentTimestamp",
      "outputs": [
        {
          "internalType": "uint256",
          "name": "payableToTimestamp",
          "type": "uint256"
        }
      ],
      "stateMutability": "view",
      "type": "function"
    },
    {
      "inputs": [],
      "name": "incrementPerRoll",
      "outputs": [
        {
          "internalType": "uint256",
          "name": "",
          "type": "uint256"
        }
      ],
      "stateMutability": "view",
      "type": "function"
    },
    {
      "inputs": [],
      "name": "isBulletLoan",
      "outputs": [
        {
          "internalType": "bool",
          "name": "",
          "type": "bool"
        }
      ],
      "stateMutability": "view",
      "type": "function"
    },
    {
      "inputs": [],
      "name": "isClosed",
      "outputs": [
        {
          "internalType": "bool",
          "name": "",
          "type": "bool"
        }
      ],
      "stateMutability": "view",
      "type": "function"
    },
    {
      "inputs": [],
      "name": "isPublic",
      "outputs": [
        {
          "internalType": "bool",
          "name": "",
          "type": "bool"
        }
      ],
      "stateMutability": "view",
      "type": "function"
    },
    {
      "inputs": [],
      "name": "isRollRequested",
      "outputs": [
        {
          "internalType": "bool",
          "name": "",
          "type": "bool"
        }
      ],
      "stateMutability": "view",
      "type": "function"
    },
    {
      "inputs": [],
      "name": "lastPaidTimestamp",
      "outputs": [
        {
          "internalType": "uint256",
          "name": "",
          "type": "uint256"
        }
      ],
      "stateMutability": "view",
      "type": "function"
    },
    {
      "inputs": [
        {
          "internalType": "uint256",
          "name": "amount",
          "type": "uint256"
        }
      ],
      "name": "lend",
      "outputs": [
        {
          "internalType": "bool",
          "name": "success",
          "type": "bool"
        }
      ],
      "stateMutability": "nonpayable",
      "type": "function"
    },
    {
      "inputs": [],
      "name": "markPoolDefaulted",
      "outputs": [],
      "stateMutability": "nonpayable",
      "type": "function"
    },
    {
      "inputs": [],
      "name": "maturityDate",
      "outputs": [
        {
          "internalType": "uint256",
          "name": "",
          "type": "uint256"
        }
      ],
      "stateMutability": "view",
      "type": "function"
    },
    {
      "inputs": [],
      "name": "maxSize",
      "outputs": [
        {
          "internalType": "uint256",
          "name": "",
          "type": "uint256"
        }
      ],
      "stateMutability": "view",
      "type": "function"
    },
    {
      "inputs": [],
      "name": "originationRate",
      "outputs": [
        {
          "internalType": "uint256",
          "name": "",
          "type": "uint256"
        }
      ],
      "stateMutability": "view",
      "type": "function"
    },
    {
      "inputs": [
        {
          "internalType": "address",
          "name": "lender",
          "type": "address"
        }
      ],
      "name": "penaltyOf",
      "outputs": [
        {
          "internalType": "uint256",
          "name": "penalty",
          "type": "uint256"
        }
      ],
      "stateMutability": "view",
      "type": "function"
    },
    {
      "inputs": [
        {
          "internalType": "uint256",
          "name": "interval",
          "type": "uint256"
        }
      ],
      "name": "penaltyRate",
      "outputs": [
        {
          "internalType": "uint256",
          "name": "",
          "type": "uint256"
        }
      ],
      "stateMutability": "view",
      "type": "function"
    },
    {
      "inputs": [],
      "name": "penaltyRatePerYear",
      "outputs": [
        {
          "internalType": "uint256",
          "name": "",
          "type": "uint256"
        }
      ],
      "stateMutability": "view",
      "type": "function"
    },
    {
      "inputs": [],
      "name": "prime",
      "outputs": [
        {
          "internalType": "contract IPrime",
          "name": "primeInstance",
          "type": "address"
        }
      ],
      "stateMutability": "view",
      "type": "function"
    },
    {
      "inputs": [],
      "name": "rateMantissa",
      "outputs": [
        {
          "internalType": "uint256",
          "name": "",
          "type": "uint256"
        }
      ],
      "stateMutability": "view",
      "type": "function"
    },
    {
      "inputs": [
        {
          "internalType": "address",
          "name": "lender",
          "type": "address"
        }
      ],
      "name": "repay",
      "outputs": [
        {
          "internalType": "bool",
          "name": "success",
          "type": "bool"
        }
      ],
      "stateMutability": "nonpayable",
      "type": "function"
    },
    {
      "inputs": [],
      "name": "repayAll",
      "outputs": [
        {
          "internalType": "bool",
          "name": "success",
          "type": "bool"
        }
      ],
      "stateMutability": "nonpayable",
      "type": "function"
    },
    {
      "inputs": [],
      "name": "repayInterest",
      "outputs": [],
      "stateMutability": "nonpayable",
      "type": "function"
    },
    {
      "inputs": [],
      "name": "requestCallBack",
      "outputs": [
        {
          "internalType": "bool",
          "name": "success",
          "type": "bool"
        }
      ],
      "stateMutability": "nonpayable",
      "type": "function"
    },
    {
      "inputs": [],
      "name": "requestRoll",
      "outputs": [],
      "stateMutability": "nonpayable",
      "type": "function"
    },
    {
      "inputs": [],
      "name": "spreadRate",
      "outputs": [
        {
          "internalType": "uint256",
          "name": "",
          "type": "uint256"
        }
      ],
      "stateMutability": "view",
      "type": "function"
    },
    {
      "inputs": [],
      "name": "switchToPublic",
      "outputs": [
        {
          "internalType": "bool",
          "name": "success",
          "type": "bool"
        }
      ],
      "stateMutability": "nonpayable",
      "type": "function"
    },
    {
      "inputs": [],
      "name": "tenor",
      "outputs": [
        {
          "internalType": "uint256",
          "name": "",
          "type": "uint256"
        }
      ],
      "stateMutability": "view",
      "type": "function"
    },
    {
      "inputs": [],
      "name": "totalDue",
      "outputs": [
        {
          "internalType": "uint256",
          "name": "totalDueAmount",
          "type": "uint256"
        }
      ],
      "stateMutability": "view",
      "type": "function"
    },
    {
      "inputs": [],
      "name": "totalDueInterest",
      "outputs": [
        {
          "internalType": "uint256",
          "name": "totalInterest",
          "type": "uint256"
        }
      ],
      "stateMutability": "view",
      "type": "function"
    },
    {
      "inputs": [
        {
          "internalType": "uint256",
          "name": "newPeriod",
          "type": "uint256"
        }
      ],
      "name": "updateGracePeriod",
      "outputs": [],
      "stateMutability": "nonpayable",
      "type": "function"
    },
    {
      "inputs": [
        {
          "internalType": "uint256",
          "name": "newPeriod",
          "type": "uint256"
        }
      ],
      "name": "updateMonthlyRoundPeriod",
      "outputs": [],
      "stateMutability": "nonpayable",
      "type": "function"
    },
    {
      "inputs": [
        {
          "internalType": "uint256",
          "name": "newPeriod",
          "type": "uint256"
        }
      ],
      "name": "updateRollRangePeriod",
      "outputs": [],
      "stateMutability": "nonpayable",
      "type": "function"
    },
    {
      "inputs": [
        {
          "internalType": "bytes",
          "name": "lenders",
          "type": "bytes"
        }
      ],
      "name": "whitelistLenders",
      "outputs": [
        {
          "internalType": "bool",
          "name": "success",
          "type": "bool"
        }
      ],
      "stateMutability": "nonpayable",
      "type": "function"
    }
  ],
  "transactionHash": "0x87ea4c95c570806227f1a33344f391525b39d329ad5e1833d5ae892538710287",
  "args": [],
  "numDeployments": 1,
  "solcInputHash": "9181f1895be71e0b2a923dc04020d530",
  "bytecode": "0x60806040523480156200001157600080fd5b506200001c62000022565b620000e4565b600054610100900460ff16156200008f5760405162461bcd60e51b815260206004820152602760248201527f496e697469616c697a61626c653a20636f6e747261637420697320696e697469604482015266616c697a696e6760c81b606482015260840160405180910390fd5b60005460ff9081161015620000e2576000805460ff191660ff9081179091556040519081527f7f26b83ff96e1f2b6a682f133852f6798a09c465da95921460cefb38474024989060200160405180910390a15b565b6133af80620000f46000396000f3fe608060405234801561001057600080fd5b50600436106102ba5760003560e01c8063821b10b011610182578063b5cae532116100e9578063c9d0cf0a116100a2578063e6ad04c91161007c578063e6ad04c91461058c578063f13fa0c114610594578063fa3ae6dc1461059d578063fa5d30b5146105a557600080fd5b8063c9d0cf0a14610569578063d59624b414610571578063dc9a15351461057a57600080fd5b8063b5cae532146104fb578063b75a197d14610504578063bda1504b14610532578063c2b6b58c1461053b578063c45a01551461054e578063c7ee005e1461056157600080fd5b80639f7c73e91161013b5780639f7c73e914610499578063a15612d1146104ac578063a2d273f9146104b5578063a4af9d46146104c2578063a6aa57ce146104d5578063a8ce6bbd146104e857600080fd5b8063821b10b01461045a57806382a3c6891461046357806383914540146104765780638a9e667c146104815780638fd0aeb21461048957806393e88f3a1461049157600080fd5b806343d726d6116102265780636e4a3a56116101df5780636e4a3a561461040157806370a082311461040957806370acf9291461041c57806376bc05ae1461042f5780637bf04e3f146104385780637df1f1b91461044057600080fd5b806343d726d6146103af57806344338819146103b757806355e172d9146103ca5780635ab2af51146103dd5780635ab98d5a146103e65780635ceeb36c146103f957600080fd5b80631d097974116102785780631d097974146103225780632565b15914610336578063337e04c11461033f5780633551dd8c1461037257806338d52e0f1461037b5780633e0b06db146103a657600080fd5b806280af81146102bf5780630afbd5c9146102db5780630c8e6fbf146102e35780630d692cc1146102f8578063125f01c814610301578063179541ca14610319575b600080fd5b6102c860415481565b6040519081526020015b60405180910390f35b6102c86105ad565b6102f66102f1366004612f59565b610627565b005b6102c860395481565b61030961069d565b60405190151581526020016102d2565b6102c8604b5481565b603354610309906301000000900460ff1681565b6102c860375481565b61035261034d366004612f87565b61076c565b6040805194855260208501939093529183015260608201526080016102d2565b6102c8603d5481565b60345461038e906001600160a01b031681565b6040516001600160a01b0390911681526020016102d2565b6102c860385481565b6103096107ea565b6103096103c5366004612fed565b61088b565b6102c86103d8366004612f87565b610938565b6102c8603a5481565b6102f66103f4366004612f59565b610943565b6103096109a9565b6102f6610a07565b6102c8610417366004612f87565b610b1e565b6102f661042a36600461302f565b610c3c565b6102c8603c5481565b6102c8610d65565b60335461038e90600160201b90046001600160a01b031681565b6102c8603b5481565b6102f6610471366004612f59565b610da7565b6102c86301da9c0081565b6102f6610e0d565b610309610fab565b6102c8611053565b6103096104a7366004612f87565b6110d5565b6102c8603e5481565b6033546103099060ff1681565b6103096104d0366004612fed565b611188565b6103096104e3366004612f59565b611245565b6102c86104f6366004612f59565b6112f3565b6102c860425481565b610517610512366004612f87565b611312565b604080519384526020840192909252908201526060016102d2565b6102c860365481565b6033546103099062010000900460ff1681565b60355461038e906001600160a01b031681565b61038e6113dd565b6102f6611450565b6102c8603f5481565b60335461030990610100900460ff1681565b6103096114f5565b6102c860405481565b610309611690565b6102f661174a565b604354600090815b81811015610622576000604382815481106105d2576105d26130ca565b60009182526020822001546001600160a01b03169150806105f283611312565b50909250905061060281836130f6565b61060c90876130f6565b95505050508061061b90613109565b90506105b5565b505090565b603354600160201b90046001600160a01b031633146106615760405162461bcd60e51b815260040161065890613122565b60405180910390fd5b604d8190556040518181527ff3fbd8ebfad00f564284e96213596558d8333b4589dda9cff72bd54879e12b06906020015b60405180910390a150565b60006042546000146106c15760405162461bcd60e51b81526004016106589061313f565b60335462010000900460ff16156106ea5760405162461bcd60e51b81526004016106589061315c565b6106f33361194b565b336000908152604a602052604090205460ff166107225760405162461bcd60e51b815260040161065890613179565b336000818152604a6020526040808220805460ff19168155600101829055517f6fa5f2f133d0fabc383ccf7982b3fd93ab389a1dbad7e1a5e6d20e58ae3acf759190a25060015b90565b6001600160a01b038116600090815260476020526040812060018101548291829182919082036107aa576000806000809450945094509450506107e3565b6107bd86826004015483600201546119f4565b919650945091506107cd86611a9f565b92508060010154856107df91906130f6565b9450505b9193509193565b603354600090600160201b90046001600160a01b0316331461081e5760405162461bcd60e51b815260040161065890613122565b60335462010000900460ff16156108475760405162461bcd60e51b81526004016106589061315c565b6036541561087d5760405162461bcd60e51b815260206004820152600360248201526213d21160ea1b6044820152606401610658565b610885611cb9565b50600190565b603354600090600160201b90046001600160a01b031633146108bf5760405162461bcd60e51b815260040161065890613122565b6108c7611cf5565b60008290036108fe5760405162461bcd60e51b815260206004820152600360248201526226262d60e91b6044820152606401610658565b603354610100900460ff161561091a576033805461ff00191690555b61092660018484611d4e565b50600161093260018055565b92915050565b600061093282611e12565b603354600160201b90046001600160a01b031633146109745760405162461bcd60e51b815260040161065890613122565b604e8190556040518181527fcc2c34a1adf0911114053f75b51b2b1f8fc9ef9e25f0a5f12f210032b5b0a1b290602001610692565b600060425460001415806109bd5750604554155b156109c85750600090565b60335460ff16156109ea57604e54603f546109e391906130f6565b4211905090565b604e54604c546041546109fd91906130f6565b6109e391906130f6565b60335462010000900460ff1615610a305760405162461bcd60e51b81526004016106589061315c565b60425415610a505760405162461bcd60e51b81526004016106589061313f565b6035546001600160a01b03163314610aef57610a6b3361194b565b603354600160201b90046001600160a01b03163314610ab557336000908152604760205260408120600101549003610ab55760405162461bcd60e51b815260040161065890613196565b610abd6109a9565b610aef5760405162461bcd60e51b815260206004820152600360248201526222a22960e91b6044820152606401610658565b426042556040517f46b9cd4891c2c9c48ba40bb38b2058575e06ecdaab42ec43bcb2574c4be226be90600090a1565b6001600160a01b038116600090815260476020526040812060018101548203610b4a5750600092915050565b604254429015610b5957506042545b60018201546001600160a01b0385166000908152604960205260408120549194505b81811015610c33576001600160a01b0386166000908152604960205260408120805483908110610bad57610bad6130ca565b600091825260209182902060408051606081018252600390930290910180548352600181015493830184905260020154908201819052909250610bf091906131b3565b6020820151610bff90866131b3565b8251610c0b91906131c6565b610c1591906131dd565b610c1f90876130f6565b95505080610c2c90613109565b9050610b7b565b50505050919050565b600054610100900460ff1615808015610c5c5750600054600160ff909116105b80610c765750303b158015610c76575060005460ff166001145b610cd95760405162461bcd60e51b815260206004820152602e60248201527f496e697469616c697a61626c653a20636f6e747261637420697320616c72656160448201526d191e481a5b9a5d1a585b1a5e995960921b6064820152608401610658565b6000805460ff191660011790558015610cfc576000805461ff0019166101001790555b610d04611efb565b610d148989898989898989611f2a565b8015610d5a576000805461ff0019169055604051600181527f7f26b83ff96e1f2b6a682f133852f6798a09c465da95921460cefb38474024989060200160405180910390a15b505050505050505050565b6041548015801590610d825750604c54610d7f90426130f6565b81105b1561076957604c54610d9490826130f6565b9050603f548111156107695750603f5490565b603354600160201b90046001600160a01b03163314610dd85760405162461bcd60e51b815260040161065890613122565b604c8190556040518181527f67a13d58848dff592b23439bd1f005cc5f94da61fb5e46295fe6dc6dd2b1bf1790602001610692565b603354600160201b90046001600160a01b03163314610e3e5760405162461bcd60e51b815260040161065890613122565b60425415610e5e5760405162461bcd60e51b81526004016106589061313f565b60335462010000900460ff1615610e875760405162461bcd60e51b81526004016106589061315c565b6033546301000000900460ff1615610ec75760405162461bcd60e51b81526020600482015260036024820152622920a960e91b6044820152606401610658565b604554600114610eff5760405162461bcd60e51b81526020600482015260036024820152622921a960e91b6044820152606401610658565b603d5442118015610f1e57506040805460009081526048602052205442115b8015610f385750604d54603f54610f3591906131b3565b42105b610f6a5760405162461bcd60e51b8152602060048201526003602482015262292a2960e91b6044820152606401610658565b6033805463ff000000191663010000001790556044546040517fc9fce8903c0374743352608574b0e3bfc73ce3af1d4f17bdd3a08045547a820890600090a2565b603354600090600160201b90046001600160a01b03163314610fdf5760405162461bcd60e51b815260040161065890613122565b610fe7611cf5565b603354610100900460ff161561100f5760405162461bcd60e51b815260040161065890613179565b6033805461ff0019166101001790556040517f0a2faf0a3c3f5b47a50a6a353f0fe6478f470cb962e2045989e4bcbede93887c90600090a150600161076960018055565b604354600090815b818110156106225760008060006110986043858154811061107e5761107e6130ca565b6000918252602090912001546001600160a01b031661076c565b5091945092509050806110ab83856130f6565b6110b591906130f6565b6110bf90876130f6565b9550505050806110ce90613109565b905061105b565b603354600090600160201b90046001600160a01b031633146111095760405162461bcd60e51b815260040161065890613122565b816001600160a01b0381166111465760405162461bcd60e51b81526020600482015260036024820152624e5a4160e81b6044820152606401610658565b604254156111665760405162461bcd60e51b81526004016106589061313f565b61116e611cf5565b61117783612066565b915061118260018055565b50919050565b603354600090600160201b90046001600160a01b031633146111bc5760405162461bcd60e51b815260040161065890613122565b6111c4611cf5565b603354610100900460ff16156112025760405162461bcd60e51b815260206004820152600360248201526204f50560ec1b6044820152606401610658565b60008290036112395760405162461bcd60e51b815260206004820152600360248201526226262d60e91b6044820152606401610658565b61092660008484611d4e565b600061124f611cf5565b6112583361194b565b818060000361128f5760405162461bcd60e51b815260206004820152600360248201526216959360ea1b6044820152606401610658565b60335462010000900460ff16156112b85760405162461bcd60e51b81526004016106589061315c565b604254156112d85760405162461bcd60e51b81526004016106589061313f565b6112e28333612294565b9150506112ee60018055565b919050565b60006301da9c0082604b5461130891906131c6565b61093291906131dd565b6001600160a01b0381166000908152604760205260408120600181015482918291820361134a576000806000935093509350506113d6565b60335460ff16156113745761136885826004015483600201546119f4565b919550935091506113d4565b600061137e610d65565b9050600081421161138f5781611391565b425b90506042546000146113a257506042545b6113b583600401548460020154836125f3565b90965094506113c387611e12565b93506113cf84876130f6565b955050505b505b9193909250565b603554604080516363f7002f60e11b815290516000926001600160a01b03169163c7ee005e9160048083019260209291908290030181865afa158015611427573d6000803e3d6000fd5b505050506040513d601f19601f8201168201806040525081019061144b91906131ff565b905090565b603354600160201b90046001600160a01b031633146114815760405162461bcd60e51b815260040161065890613122565b604254156114a15760405162461bcd60e51b81526004016106589061313f565b6114a9611cf5565b60335460ff16156114e25760405162461bcd60e51b815260206004820152600360248201526213935360ea1b6044820152606401610658565b6114ea61265b565b6114f360018055565b565b60006115003361194b565b604254156115205760405162461bcd60e51b81526004016106589061313f565b60335462010000900460ff16156115495760405162461bcd60e51b81526004016106589061315c565b3360009081526047602052604081206001015490036115905760405162461bcd60e51b815260206004820152600360248201526213169360ea1b6044820152606401610658565b336000908152604a602052604090205460ff16156115c05760405162461bcd60e51b815260040161065890613179565b603f5442106115f75760405162461bcd60e51b815260206004820152600360248201526211535160ea1b6044820152606401610658565b6033546301000000900460ff1615611611576116116126f5565b6046805490600061162183613109565b90915550506040805180820182526001808252426020808401918252336000818152604a9092528582209451855460ff191690151517855591519390920192909255915190917fa64980a49b0572c7b3106aa75a1480ce0e6c5ce99caf11c0aacb03354173e03591a250600190565b603354600090600160201b90046001600160a01b031633146116c45760405162461bcd60e51b815260040161065890613122565b604254156116e45760405162461bcd60e51b81526004016106589061313f565b6116ec611cf5565b60435460005b8181101561173b5761172a60438281548110611710576117106130ca565b6000918252602090912001546001600160a01b0316612066565b5061173481613109565b90506116f2565b50600191505061076960018055565b6117533361194b565b60335462010000900460ff161561177c5760405162461bcd60e51b81526004016106589061315c565b6042541561179c5760405162461bcd60e51b81526004016106589061313f565b6033546301000000900460ff166117db5760405162461bcd60e51b815260206004820152600360248201526241524d60e81b6044820152606401610658565b603f5442106118125760405162461bcd60e51b8152602060048201526003602482015262292a2960e91b6044820152606401610658565b33600090815260476020526040812060018101549091036118455760405162461bcd60e51b815260040161065890613196565b6033805463ff000000191690556044805490600061186283613109565b9091555060408181558051808201909152603f54808252603e54602083019161188b91906130f6565b9052600082815260486020908152604090912082518155910151600190910155603854603e54670de0b6b3a7640000916118c49161273a565b83600101546118d391906131c6565b6118dd91906131dd565b8260040160008282546118f091906130f6565b9091555050603e54603f805460009061190a9084906130f6565b9091555050603f5460405190815281907f01d3e7d9e37a1ba8e45cd56d6778b3f9eea1dfc58752d6522349db020479de599060200160405180910390a25050565b6119536113dd565b60405163288c314960e21b81526001600160a01b038381166004830152919091169063a230c52490602401602060405180830381865afa15801561199b573d6000803e3d6000fd5b505050506040513d601f19601f820116820180604052508101906119bf919061322a565b6119f15760405162461bcd60e51b81526020600482015260036024820152624e504d60e81b6044820152606401610658565b50565b600080600080603f549050604254600014611a125750604254611a6e565b603f54421115611a23575042611a6e565b6001600160a01b0387166000908152604a602052604090205460ff168015611a4c5750603f5442105b15611a6e5750603354429060ff16158015611a6657508085115b15611a6e5750835b611a798686836125f3565b9094509250611a8787611e12565b9150611a9382856130f6565b93505093509350939050565b6000603a54600003611ab357506000919050565b506001600160a01b03811660009081526047602090815260408083206003810154604a90935292205490919060ff168015611b095750603e54603c54603d54611afc91906131b3565b611b0691906130f6565b42105b15611b5c57600042603f54611b1e91906131b3565b9050670de0b6b3a7640000611b35603a548361273a565b8360010154611b4491906131c6565b611b4e91906131dd565b611b5890846131b3565b9250505b604454600114158015611b705750603b5415155b15611182576000670de0b6b3a7640000603b54670de0b6b3a7640000611b9a603a54603e5461273a565b8560010154611ba991906131c6565b611bb391906131dd565b611bbd91906131c6565b611bc791906131dd565b6001600160a01b0385166000908152604a602052604090205490915060ff168015611c1c5750600160005260486020527f149d903478f13b7f42654b0aa3a0f06ce2ec329315e01622f824555dff9970635442115b8015611c295750603f5442105b15611c8c57603e54600160005260486020527f149d903478f13b7f42654b0aa3a0f06ce2ec329315e01622f824555dff99706354611c6790426131b3565b611c7190836131c6565b611c7b91906131dd565b611c8590846130f6565b9250611cb2565b6001604454611c9b91906131b3565b611ca590826131c6565b611caf90846130f6565b92505b5050919050565b6033805462ff00001916620100001790556040517f1cdde67b72a90f19919ac732a437ac2f7a10fc128d28c2a6e525d89ce5cd9d3a90600090a1565b600260015403611d475760405162461bcd60e51b815260206004820152601f60248201527f5265656e7472616e637947756172643a207265656e7472616e742063616c6c006044820152606401610658565b6002600155565b6014819003611d8957611d8483611d65848461275c565b600081518110611d7757611d776130ca565b602002602001015161283a565b505050565b6000611d95838361275c565b8051909150603c811115611dd15760405162461bcd60e51b815260206004820152600360248201526211505360ea1b6044820152606401610658565b60005b81811015611e0457611df286848381518110611d7757611d776130ca565b80611dfc81613109565b915050611dd4565b505050505050565b60018055565b6001600160a01b038116600090815260476020526040812060018101548203611e3e5750600092915050565b60335460009060ff16611e6257604c548260020154611e5d91906130f6565b611e66565b603f545b60335490915060ff16158015611e7d5750603f5481115b15611e875750603f545b604254429015611e9657506042545b81811115611ef0576000611ead6104f684846131b3565b905080600003611ec35750600095945050505050565b670de0b6b3a7640000846001015482611edc91906131c6565b611ee691906131dd565b9695505050505050565b506000949350505050565b600054610100900460ff16611f225760405162461bcd60e51b815260040161065890613247565b6114f361292d565b600054610100900460ff16611f515760405162461bcd60e51b815260040161065890613247565b60338054640100000000600160c01b031916600160201b6001600160a01b038b1602179055611f866040840160208501612f87565b603480546001600160a01b0319166001600160a01b039290921691909117905560408301356037556060830135603e55608083013560385560a0830135603c55611fd36020840184613292565b6033805460ff19169115159190911790556039879055603a869055603b859055604b84905562278d00604c556202a300604d556203f480604e556044805460009061201d90613109565b90915550603580546001600160a01b031916331790556000819003612050576033805461ff00191661010017905561205c565b61205c60018383611d4e565b5050505050505050565b6001600160a01b0381166000908152604760205260408120600181015482036120925750600192915050565b6000806000806120a18761076c565b6001600160a01b038b166000908152604a60205260409020549397509195509350915060ff16156120ed576001600160a01b0387166000908152604a60205260409020805460ff191690555b604054156120fb5760006040555b6040805185815260208101859052908101839052606081018290526001600160a01b038816907f4d717b642cf5faf5bf4c2e2dfa4d80e68dd08aa4530694c0a67fe5006a28caa49060800160405180910390a284600101546036600082825461216491906131b3565b9091555050600060048601819055600386018190556001860181905542600287015560458054909190612196906132af565b909155506001600160a01b03871660009081526049602052604081206121bb91612f17565b6036541580156121cd575042603d5411155b156121da576121da611cb9565b60006121e683856130f6565b9050801561226e5760345461226e906001600160a01b0316336122076113dd565b6001600160a01b03166361d027b36040518163ffffffff1660e01b8152600401602060405180830381865afa158015612244573d6000803e3d6000fd5b505050506040513d601f19601f8201168201806040525081019061226891906131ff565b84612954565b603454612286906001600160a01b0316338a88612954565b506001979650505050505050565b6000603754836036546122a791906130f6565b11156122db5760405162461bcd60e51b81526020600482015260036024820152624f534560e81b6044820152606401610658565b6001600160a01b0382166000908152604760205260409020603354610100900460ff16156123135761230e83600161296f565b612339565b8054610100900460ff166123395760405162461bcd60e51b815260040161065890613196565b603d546000036123bd57603c5461235090426130f6565b603d55603e5461236090426130f6565b603f5560335460ff1661237257426041555b7f4867887a5b0bebacccb6e4c9c656b3a6b2fe478e226ea1fa5230d9b4bdabc26e603d54603f546040516123b0929190918252602082015260400190565b60405180910390a16123f5565b603d544211156123f55760405162461bcd60e51b815260206004820152600360248201526244574360e81b6044820152606401610658565b836036600082825461240791906130f6565b909155505060018101546000036124325760456000815461242790613109565b909155504260028201555b600042603f5461244291906131b3565b905060496000856001600160a01b03166001600160a01b031681526020019081526020016000206040518060600160405280670de0b6b3a76400006124896038548661273a565b612493908a6131c6565b61249d91906131dd565b815242602080830191909152603f54604092830152835460018181018655600095865294829020845160039092020190815590830151938101939093550151600290910155603854670de0b6b3a7640000906124f9908361273a565b61250390876131c6565b61250d91906131dd565b82600401600082825461252091906130f6565b92505081905550670de0b6b3a764000061253c603a548361273a565b61254690876131c6565b61255091906131dd565b82600301600082825461256391906130f6565b925050819055508482600101600082825461257e91906130f6565b90915550506040518581526001600160a01b038516907f26ff3f6dedac6d273c293b8c866e073f40896739d99ad513862fe7ba70cf63ca9060200160405180910390a26034546033546125e8916001600160a01b03908116918791600160201b9091041688612954565b506001949350505050565b60008083603f5461260491906131b3565b61260e85856131b3565b61261890876131c6565b61262291906131dd565b9150670de0b6b3a76400006039548361263b91906131c6565b61264591906131dd565b905061265181836131b3565b9150935093915050565b60415442116126925760405162461bcd60e51b815260206004820152600360248201526252544560e81b6044820152606401610658565b600061269c610d65565b60435490915060005b818110156126ee576126de604382815481106126c3576126c36130ca565b6000918252602090912001546001600160a01b031684612aad565b6126e781613109565b90506126a5565b5050604155565b6033805463ff000000191690556044546040513381527f5c34576b5e454f10dc4c9d9bd51b9c481a15af0738c70a740634b1ce47dc36379060200160405180910390a2565b60006301da9c0061274b83856131c6565b61275591906131dd565b9392505050565b6060600061276b6014846131dd565b90508067ffffffffffffffff811115612786576127866132c6565b6040519080825280602002602001820160405280156127af578160200160208202803683370190505b50915060005b81811015612832576127f685856127cd8460146131c6565b906127d98560016130f6565b6127e49060146131c6565b926127f1939291906132dc565b612c2d565b838281518110612808576128086130ca565b6001600160a01b03909216602092830291909101909101528061282a81613109565b9150506127b5565b505092915050565b6128438161194b565b6001600160a01b038116600090815260476020526040902082156128ca57805460ff1661287a5761287582600161296f565b612888565b805461ff0019166101001781555b6040516001600160a01b03831681527feafaba2a6f658ac7632689fd61982a1c5387c8437e5ff730560eb63d3c935ed1906020015b60405180910390a1505050565b805460ff166128eb5760405162461bcd60e51b815260040161065890613196565b805461ff00191681556040516001600160a01b03831681527f646f70a08891433fa5fa07bd0874c798dfc78b4b8be5b9db947619f1cc9df3a3906020016128bd565b600054610100900460ff16611e0c5760405162461bcd60e51b815260040161065890613247565b6129696001600160a01b038516848484612c72565b50505050565b6001600160a01b03821660009081526047602052604090205460ff16612aa9576033546001600160a01b03808416600160201b90920416036129d95760405162461bcd60e51b8152602060048201526003602482015262424c5360e81b6044820152606401610658565b6040805160c081018252600180825283151560208084019182526000848601818152606086018281526080870183815260a088018481526001600160a01b038c16808652604790965298842097518854965161ffff1990971690151561ff00191617610100961515969096029590951787559051868601555160028601559151600385015593516004909301929092556043805491820181559091527f9690ad99d6ce244efa8a0f6c2d04036d3b33a9474db32a71b71135c6951027930180546001600160a01b03191690911790555b5050565b6001600160a01b03821660009081526047602052604081206001810154909103612ad657505050565b6000806000612ae486611312565b9250925092508360020154603f54612afc91906131b3565b6002850154612b0b90876131b3565b8560040154612b1a91906131c6565b612b2491906131dd565b846004016000828254612b3791906131b3565b90915550506002840185905560408051848152602081018490529081018290526001600160a01b038716907f4b17857dbdcd87f2659c612a7f181d1c2ff8f5f2d77a3d4fe275f559c94351b29060600160405180910390a28115612c1557603454612c15906001600160a01b031633612bae6113dd565b6001600160a01b03166361d027b36040518163ffffffff1660e01b8152600401602060405180830381865afa158015612beb573d6000803e3d6000fd5b505050506040513d601f19601f82011682018060405250810190612c0f91906131ff565b85612954565b603454611e04906001600160a01b0316338886612954565b60008083838080601f01602080910402602001604051908101604052809392919081815260200183838082843760009201919091525050505060140151949350505050565b604080516001600160a01b038581166024830152848116604483015260648083018590528351808403909101815260849092018352602080830180516001600160e01b03166323b872dd60e01b17905283518085019094528084527f5361666545524332303a206c6f772d6c6576656c2063616c6c206661696c65649084015261296992879291600091612d0a918516908490612d87565b805190915015611d845780806020019051810190612d28919061322a565b611d845760405162461bcd60e51b815260206004820152602a60248201527f5361666545524332303a204552433230206f7065726174696f6e20646964206e6044820152691bdd081cdd58d8d9595960b21b6064820152608401610658565b6060612d968484600085612d9e565b949350505050565b606082471015612dff5760405162461bcd60e51b815260206004820152602660248201527f416464726573733a20696e73756666696369656e742062616c616e636520666f6044820152651c8818d85b1b60d21b6064820152608401610658565b600080866001600160a01b03168587604051612e1b919061332a565b60006040518083038185875af1925050503d8060008114612e58576040519150601f19603f3d011682016040523d82523d6000602084013e612e5d565b606091505b5091509150612e6e87838387612e79565b979650505050505050565b60608315612ee8578251600003612ee1576001600160a01b0385163b612ee15760405162461bcd60e51b815260206004820152601d60248201527f416464726573733a2063616c6c20746f206e6f6e2d636f6e74726163740000006044820152606401610658565b5081612d96565b612d968383815115612efd5781518083602001fd5b8060405162461bcd60e51b81526004016106589190613346565b50805460008255600302906000526020600020908101906119f191905b80821115612f55576000808255600182018190556002820155600301612f34565b5090565b600060208284031215612f6b57600080fd5b5035919050565b6001600160a01b03811681146119f157600080fd5b600060208284031215612f9957600080fd5b813561275581612f72565b60008083601f840112612fb657600080fd5b50813567ffffffffffffffff811115612fce57600080fd5b602083019150836020828501011115612fe657600080fd5b9250929050565b6000806020838503121561300057600080fd5b823567ffffffffffffffff81111561301757600080fd5b61302385828601612fa4565b90969095509350505050565b600080600080600080600080888a0361018081121561304d57600080fd5b893561305881612f72565b985060208a0135975060408a0135965060608a0135955060808a0135945060c0609f198201121561308857600080fd5b5060a08901925061016089013567ffffffffffffffff8111156130aa57600080fd5b6130b68b828c01612fa4565b999c989b5096995094979396929594505050565b634e487b7160e01b600052603260045260246000fd5b634e487b7160e01b600052601160045260246000fd5b80820180821115610932576109326130e0565b60006001820161311b5761311b6130e0565b5060010190565b6020808252600390820152622721a960e91b604082015260600190565b60208082526003908201526214111160ea1b604082015260600190565b6020808252600390820152624f414360e81b604082015260600190565b60208082526003908201526210505160ea1b604082015260600190565b60208082526003908201526224a6a160e91b604082015260600190565b81810381811115610932576109326130e0565b8082028115828204841417610932576109326130e0565b6000826131fa57634e487b7160e01b600052601260045260246000fd5b500490565b60006020828403121561321157600080fd5b815161275581612f72565b80151581146119f157600080fd5b60006020828403121561323c57600080fd5b81516127558161321c565b6020808252602b908201527f496e697469616c697a61626c653a20636f6e7472616374206973206e6f74206960408201526a6e697469616c697a696e6760a81b606082015260800190565b6000602082840312156132a457600080fd5b81356127558161321c565b6000816132be576132be6130e0565b506000190190565b634e487b7160e01b600052604160045260246000fd5b600080858511156132ec57600080fd5b838611156132f957600080fd5b5050820193919092039150565b60005b83811015613321578181015183820152602001613309565b50506000910152565b6000825161333c818460208701613306565b9190910192915050565b6020815260008251806020840152613365816040850160208701613306565b601f01601f1916919091016040019291505056fea264697066735822122081ca567aecc363f076d794f5fbde87c17a83464eaa50430cf5f2d476461825d464736f6c63430008110033",
  "devdoc": {
    "kind": "dev",
    "methods": {
      "__Pool_init(address,uint256,uint256,uint256,uint256,(bool,address,uint256,uint256,uint256,uint256),bytes)": {
        "details": "This function is called only once during the pool creation",
        "params": {
          "_borrower": "- Pool borrower address",
          "_incrementPerRoll": "- Pool rolling increment rate of origination fee",
          "_members": "- Pool members (lenders) addresses encoded in bytes",
          "_originationRate": "- Pool origination fee rate",
          "_penaltyRatePerYear": "- Pool penalty rate calculated for 1 year",
          "_poolData": "- Pool data struct: asset, size, tenor, rateMantissa, depositWindow",
          "_spreadRate": "- Pool protocol spread rate"
        }
      },
      "acceptRoll()": {
        "details": "Can be called only by the whitelisted Prime lenders"
      },
      "balanceOf(address)": {
        "params": {
          "lender": "- The address of the lender"
        },
        "returns": {
          "balance": "interestAccrued - Accrued amount until today"
        }
      },
      "blacklistLenders(bytes)": {
        "details": "Can be called only by the borrower",
        "params": {
          "lenders": "- Lenders addresses encoded in bytes"
        }
      },
      "canBeDefaulted()": {
        "returns": {
          "isAbleToDefault": "True if the pool can be defaulted"
        }
      },
      "cancelCallBack()": {
        "details": "Can be called only by the whitelisted Prime lenders",
        "returns": {
          "success": "- True if the callback is cancelled by the lender"
        }
      },
      "close()": {
        "details": "Can be called only by the borrower",
        "returns": {
          "success": "- True if the pool is closed"
        }
      },
      "dueInterestOf(address)": {
        "params": {
          "lender": "The lender address"
        },
        "returns": {
          "due": "The interest amount",
          "penalty": "The penalty amount",
          "spreadFee": "The spread amount"
        }
      },
      "dueOf(address)": {
        "params": {
          "lender": "- The address of the lender"
        },
        "returns": {
          "due": "- Due amount for repayment",
          "originationFee": "- Origination protocol fee",
          "penalty": "- Penalty fee",
          "spreadFee": "- Protocol spread fee"
        }
      },
      "getNextPaymentTimestamp()": {
        "returns": {
          "payableToTimestamp": "- The timestamp of the next payment"
        }
      },
      "lend(uint256)": {
        "details": "Can be called only by the whitelisted Prime lenders",
        "params": {
          "amount": "- Amount of funds to lend"
        },
        "returns": {
          "success": "- True if the funds are lent"
        }
      },
      "markPoolDefaulted()": {
        "details": "Can be called only by lender or borrower if time conditions are metCan be called by governor without time conditions"
      },
      "penaltyOf(address)": {
        "params": {
          "lender": "- The address of the lender"
        },
        "returns": {
          "penalty": "penaltyFee - Penalty fee"
        }
      },
      "penaltyRate(uint256)": {
        "params": {
          "interval": "The interval in seconds"
        },
        "returns": {
          "_0": "The penalty rate as a mantissa between [0, 1e18]"
        }
      },
      "prime()": {
        "details": "Prime converted as IPrime interface",
        "returns": {
          "primeInstance": "- Prime address"
        }
      },
      "repay(address)": {
        "details": "Can be called only by the borrower",
        "params": {
          "lender": "- Lender address"
        },
        "returns": {
          "success": "- True if the lender is repaid"
        }
      },
      "repayAll()": {
        "details": "Can be called only by the borrower",
        "returns": {
          "success": "- True if all lenders are repaid"
        }
      },
      "repayInterest()": {
        "details": "Can be called only by the borrower in monthly loans"
      },
      "requestCallBack()": {
        "details": "Can be called only by the whitelisted Prime lenders",
        "returns": {
          "success": "- True if the callback is created by the lender"
        }
      },
      "requestRoll()": {
        "details": "Can be called only by the borrower"
      },
      "switchToPublic()": {
        "details": "Can be called only by the borrower",
        "returns": {
          "success": "- True if the pool is converted to public"
        }
      },
      "totalDue()": {
        "returns": {
          "totalDueAmount": "- Total due amount for repayment"
        }
      },
      "totalDueInterest()": {
        "returns": {
          "totalInterest": "The interest amount"
        }
      },
      "whitelistLenders(bytes)": {
        "details": "Can be called only by the borrower",
        "params": {
          "lenders": "- Lenders addresses encoded in bytes"
        }
      }
    },
    "version": 1
  },
  "userdoc": {
    "events": {
      "Activated(uint256,uint256)": {
        "notice": "Emitted when the pool is activated"
      },
      "CallbackCancelled(address)": {
        "notice": "Emitted when callback is cancelled"
      },
      "CallbackCreated(address)": {
        "notice": "Emitted when callback is created"
      },
      "Closed()": {
        "notice": "Emitted when the pool is closed"
      },
      "ConvertedToPublic()": {
        "notice": "Emitted when pool is converted to public"
      },
      "Defaulted()": {
        "notice": "Emitted when pool is defaulted"
      },
      "LenderBlacklisted(address)": {
        "notice": "Emitted when lender is removed from the pool"
      },
      "LenderWhitelisted(address)": {
        "notice": "Emitted when new lender is added to the pool"
      },
      "Lent(address,uint256)": {
        "notice": "Emitted when funds are lent to the pool"
      },
      "Repayed(address,uint256,uint256,uint256,uint256)": {
        "notice": "Emitted when lender is fully repayed"
      },
      "RepayedInterest(address,uint256,uint256,uint256)": {
        "notice": "Emitted when interest is repayed to the lender"
      },
      "RollAccepted(uint256,uint256)": {
        "notice": "Emitted when the pool is rolled"
      },
      "RollRejected(uint256,address)": {
        "notice": "Emitted when the roll is rejected"
      },
      "RollRequested(uint256)": {
        "notice": "Emitted when the roll is requested"
      }
    },
    "kind": "user",
    "methods": {
      "YEAR()": {
        "notice": "Standart year in seconds"
      },
      "__Pool_init(address,uint256,uint256,uint256,uint256,(bool,address,uint256,uint256,uint256,uint256),bytes)": {
        "notice": "Initialize the pool"
      },
      "acceptRoll()": {
        "notice": "Accepts the roll"
      },
      "activeRollId()": {
        "notice": "Pool active roll id"
      },
      "asset()": {
        "notice": "Asset address of the pool"
      },
      "balanceOf(address)": {
        "notice": "Calculates the accrued amount until today, excluding penalty"
      },
      "blacklistLenders(bytes)": {
        "notice": "Blacklists lenders"
      },
      "borrower()": {
        "notice": "Pool borrower address"
      },
      "canBeDefaulted()": {
        "notice": "Checks if the pool can be defaulted by borrower or lender"
      },
      "cancelCallBack()": {
        "notice": "Cancels the callback"
      },
      "close()": {
        "notice": "Closes the pool"
      },
      "currentSize()": {
        "notice": "Pool current size"
      },
      "defaultedAt()": {
        "notice": "If pool is defaulted, this is the timestamp of the default"
      },
      "depositMaturity()": {
        "notice": "Pool deposit maturity"
      },
      "depositWindow()": {
        "notice": "Pool deposit window (in seconds)"
      },
      "dueInterestOf(address)": {
        "notice": "Calculates the total interest and penalty for the next payment to the lender"
      },
      "dueOf(address)": {
        "notice": "Calculates the due amount for repayment including interestAccrued, penalty fee and spread for the lender"
      },
      "factory()": {
        "notice": "Pool factory address"
      },
      "getNextPaymentTimestamp()": {
        "notice": "Calculates the next payment timestamp for the borrower"
      },
      "incrementPerRoll()": {
        "notice": "Pool rolling increment fee rate"
      },
      "isBulletLoan()": {
        "notice": "Pool repayment option. Bullet loan or monthly repayment"
      },
      "isClosed()": {
        "notice": "Pool availability status"
      },
      "isPublic()": {
        "notice": "Pool publicity status"
      },
      "isRollRequested()": {
        "notice": "Roll request status"
      },
      "lastPaidTimestamp()": {
        "notice": "The last timestamp at which a payment was made or received in monthly repayment pool."
      },
      "lend(uint256)": {
        "notice": "Lends funds to the pool"
      },
      "markPoolDefaulted()": {
        "notice": "Defaults the pool"
      },
      "maturityDate()": {
        "notice": "Pool maturity date"
      },
      "maxSize()": {
        "notice": "Pool maximum size"
      },
      "originationRate()": {
        "notice": "Origination fee rate"
      },
      "penaltyOf(address)": {
        "notice": "When maturity date passed, calculates the penalty fee for the lender"
      },
      "penaltyRate(uint256)": {
        "notice": "Calculates the penalty rate for a given interval"
      },
      "penaltyRatePerYear()": {
        "notice": "Pool penalty rate calculated for 1 year"
      },
      "prime()": {
        "notice": "Returns Prime address"
      },
      "rateMantissa()": {
        "notice": "Pool interest rate (in mantissa)"
      },
      "repay(address)": {
        "notice": "Fully repays the lender with the principal and interest"
      },
      "repayAll()": {
        "notice": "Repays all lenders with the principal and interest"
      },
      "repayInterest()": {
        "notice": "Repays interest to the lender"
      },
      "requestCallBack()": {
        "notice": "Creates the callback"
      },
      "requestRoll()": {
        "notice": "Requests the roll"
      },
      "spreadRate()": {
        "notice": "Protocol spread rate"
      },
      "switchToPublic()": {
        "notice": "Converts the pool to public"
      },
      "tenor()": {
        "notice": "Pool tenor"
      },
      "totalDue()": {
        "notice": "Calculates the total due amount for repayment including interestAccrued, penalty fee and spread for all lenders"
      },
      "totalDueInterest()": {
        "notice": "Calculates the total interest and penalty amount for the next payment for all lenders"
      },
      "whitelistLenders(bytes)": {
        "notice": "Whitelists lenders"
      }
    },
    "version": 1
  },
  "storageLayout": {
    "storage": [
      {
        "astId": 138,
        "contract": "contracts/mock/PoolHarness.sol:PoolHarness",
        "label": "_initialized",
        "offset": 0,
        "slot": "0",
        "type": "t_uint8"
      },
      {
        "astId": 141,
        "contract": "contracts/mock/PoolHarness.sol:PoolHarness",
        "label": "_initializing",
        "offset": 1,
        "slot": "0",
        "type": "t_bool"
      },
      {
        "astId": 314,
        "contract": "contracts/mock/PoolHarness.sol:PoolHarness",
        "label": "_status",
        "offset": 0,
        "slot": "1",
        "type": "t_uint256"
      },
      {
        "astId": 372,
        "contract": "contracts/mock/PoolHarness.sol:PoolHarness",
        "label": "__gap",
        "offset": 0,
        "slot": "2",
        "type": "t_array(t_uint256)49_storage"
      },
      {
        "astId": 2228,
        "contract": "contracts/mock/PoolHarness.sol:PoolHarness",
        "label": "isBulletLoan",
        "offset": 0,
        "slot": "51",
        "type": "t_bool"
      },
      {
        "astId": 2231,
        "contract": "contracts/mock/PoolHarness.sol:PoolHarness",
        "label": "isPublic",
        "offset": 1,
        "slot": "51",
        "type": "t_bool"
      },
      {
        "astId": 2234,
        "contract": "contracts/mock/PoolHarness.sol:PoolHarness",
        "label": "isClosed",
        "offset": 2,
        "slot": "51",
        "type": "t_bool"
      },
      {
        "astId": 2237,
        "contract": "contracts/mock/PoolHarness.sol:PoolHarness",
        "label": "isRollRequested",
        "offset": 3,
        "slot": "51",
        "type": "t_bool"
      },
      {
        "astId": 2240,
        "contract": "contracts/mock/PoolHarness.sol:PoolHarness",
        "label": "borrower",
        "offset": 4,
        "slot": "51",
        "type": "t_address"
      },
      {
        "astId": 2243,
        "contract": "contracts/mock/PoolHarness.sol:PoolHarness",
        "label": "asset",
        "offset": 0,
        "slot": "52",
        "type": "t_address"
      },
      {
        "astId": 2247,
        "contract": "contracts/mock/PoolHarness.sol:PoolHarness",
        "label": "factory",
        "offset": 0,
        "slot": "53",
        "type": "t_contract(IPoolFactory)2188"
      },
      {
        "astId": 2250,
        "contract": "contracts/mock/PoolHarness.sol:PoolHarness",
        "label": "currentSize",
        "offset": 0,
        "slot": "54",
        "type": "t_uint256"
      },
      {
        "astId": 2253,
        "contract": "contracts/mock/PoolHarness.sol:PoolHarness",
        "label": "maxSize",
        "offset": 0,
        "slot": "55",
        "type": "t_uint256"
      },
      {
        "astId": 2256,
        "contract": "contracts/mock/PoolHarness.sol:PoolHarness",
        "label": "rateMantissa",
        "offset": 0,
        "slot": "56",
        "type": "t_uint256"
      },
      {
        "astId": 2259,
        "contract": "contracts/mock/PoolHarness.sol:PoolHarness",
        "label": "spreadRate",
        "offset": 0,
        "slot": "57",
        "type": "t_uint256"
      },
      {
        "astId": 2262,
        "contract": "contracts/mock/PoolHarness.sol:PoolHarness",
        "label": "originationRate",
        "offset": 0,
        "slot": "58",
        "type": "t_uint256"
      },
      {
        "astId": 2265,
        "contract": "contracts/mock/PoolHarness.sol:PoolHarness",
        "label": "incrementPerRoll",
        "offset": 0,
        "slot": "59",
        "type": "t_uint256"
      },
      {
        "astId": 2268,
        "contract": "contracts/mock/PoolHarness.sol:PoolHarness",
        "label": "depositWindow",
        "offset": 0,
        "slot": "60",
        "type": "t_uint256"
      },
      {
        "astId": 2271,
        "contract": "contracts/mock/PoolHarness.sol:PoolHarness",
        "label": "depositMaturity",
        "offset": 0,
        "slot": "61",
        "type": "t_uint256"
      },
      {
        "astId": 2274,
        "contract": "contracts/mock/PoolHarness.sol:PoolHarness",
        "label": "tenor",
        "offset": 0,
        "slot": "62",
        "type": "t_uint256"
      },
      {
        "astId": 2277,
        "contract": "contracts/mock/PoolHarness.sol:PoolHarness",
        "label": "maturityDate",
        "offset": 0,
        "slot": "63",
        "type": "t_uint256"
      },
      {
        "astId": 2280,
        "contract": "contracts/mock/PoolHarness.sol:PoolHarness",
        "label": "activeRollId",
        "offset": 0,
        "slot": "64",
        "type": "t_uint256"
      },
      {
        "astId": 2283,
        "contract": "contracts/mock/PoolHarness.sol:PoolHarness",
        "label": "lastPaidTimestamp",
        "offset": 0,
        "slot": "65",
        "type": "t_uint256"
      },
      {
        "astId": 2286,
        "contract": "contracts/mock/PoolHarness.sol:PoolHarness",
        "label": "defaultedAt",
        "offset": 0,
        "slot": "66",
        "type": "t_uint256"
      },
      {
        "astId": 2290,
        "contract": "contracts/mock/PoolHarness.sol:PoolHarness",
        "label": "_lenders",
        "offset": 0,
        "slot": "67",
        "type": "t_array(t_address)dyn_storage"
      },
      {
        "astId": 2293,
        "contract": "contracts/mock/PoolHarness.sol:PoolHarness",
        "label": "_nextRollId",
        "offset": 0,
        "slot": "68",
        "type": "t_uint256"
      },
      {
        "astId": 2296,
        "contract": "contracts/mock/PoolHarness.sol:PoolHarness",
        "label": "_activeLendersCount",
        "offset": 0,
        "slot": "69",
        "type": "t_uint256"
      },
      {
        "astId": 2299,
        "contract": "contracts/mock/PoolHarness.sol:PoolHarness",
        "label": "_activeCallbacksCount",
        "offset": 0,
        "slot": "70",
        "type": "t_uint256"
      },
      {
        "astId": 2305,
        "contract": "contracts/mock/PoolHarness.sol:PoolHarness",
        "label": "poolMembers",
        "offset": 0,
        "slot": "71",
        "type": "t_mapping(t_address,t_struct(Member)1963_storage)"
      },
      {
        "astId": 2311,
        "contract": "contracts/mock/PoolHarness.sol:PoolHarness",
        "label": "_poolRolls",
        "offset": 0,
        "slot": "72",
        "type": "t_mapping(t_uint256,t_struct(Roll)1968_storage)"
      },
      {
        "astId": 2318,
        "contract": "contracts/mock/PoolHarness.sol:PoolHarness",
        "label": "_lenderPositions",
        "offset": 0,
        "slot": "73",
        "type": "t_mapping(t_address,t_array(t_struct(Position)1980_storage)dyn_storage)"
      },
      {
        "astId": 2324,
        "contract": "contracts/mock/PoolHarness.sol:PoolHarness",
        "label": "_poolCallbacks",
        "offset": 0,
        "slot": "74",
        "type": "t_mapping(t_address,t_struct(CallBack)1973_storage)"
      },
      {
        "astId": 2327,
        "contract": "contracts/mock/PoolHarness.sol:PoolHarness",
        "label": "penaltyRatePerYear",
        "offset": 0,
        "slot": "75",
        "type": "t_uint256"
      },
      {
        "astId": 2330,
        "contract": "contracts/mock/PoolHarness.sol:PoolHarness",
        "label": "monthlyPaymentRoundDuration",
        "offset": 0,
        "slot": "76",
        "type": "t_uint256"
      },
      {
        "astId": 2333,
        "contract": "contracts/mock/PoolHarness.sol:PoolHarness",
        "label": "rollRangeDuration",
        "offset": 0,
        "slot": "77",
        "type": "t_uint256"
      },
      {
        "astId": 2336,
        "contract": "contracts/mock/PoolHarness.sol:PoolHarness",
        "label": "gracePeriodDuration",
        "offset": 0,
        "slot": "78",
        "type": "t_uint256"
      }
    ],
    "types": {
      "t_address": {
        "encoding": "inplace",
        "label": "address",
        "numberOfBytes": "20"
      },
      "t_array(t_address)dyn_storage": {
        "base": "t_address",
        "encoding": "dynamic_array",
        "label": "address[]",
        "numberOfBytes": "32"
      },
      "t_array(t_struct(Position)1980_storage)dyn_storage": {
        "base": "t_struct(Position)1980_storage",
        "encoding": "dynamic_array",
        "label": "struct IPool.Position[]",
        "numberOfBytes": "32"
      },
      "t_array(t_uint256)49_storage": {
        "base": "t_uint256",
        "encoding": "inplace",
        "label": "uint256[49]",
        "numberOfBytes": "1568"
      },
      "t_bool": {
        "encoding": "inplace",
        "label": "bool",
        "numberOfBytes": "1"
      },
      "t_contract(IPoolFactory)2188": {
        "encoding": "inplace",
        "label": "contract IPoolFactory",
        "numberOfBytes": "20"
      },
      "t_mapping(t_address,t_array(t_struct(Position)1980_storage)dyn_storage)": {
        "encoding": "mapping",
        "key": "t_address",
        "label": "mapping(address => struct IPool.Position[])",
        "numberOfBytes": "32",
        "value": "t_array(t_struct(Position)1980_storage)dyn_storage"
      },
      "t_mapping(t_address,t_struct(CallBack)1973_storage)": {
        "encoding": "mapping",
        "key": "t_address",
        "label": "mapping(address => struct IPool.CallBack)",
        "numberOfBytes": "32",
        "value": "t_struct(CallBack)1973_storage"
      },
      "t_mapping(t_address,t_struct(Member)1963_storage)": {
        "encoding": "mapping",
        "key": "t_address",
        "label": "mapping(address => struct IPool.Member)",
        "numberOfBytes": "32",
        "value": "t_struct(Member)1963_storage"
      },
      "t_mapping(t_uint256,t_struct(Roll)1968_storage)": {
        "encoding": "mapping",
        "key": "t_uint256",
        "label": "mapping(uint256 => struct IPool.Roll)",
        "numberOfBytes": "32",
        "value": "t_struct(Roll)1968_storage"
      },
      "t_struct(CallBack)1973_storage": {
        "encoding": "inplace",
        "label": "struct IPool.CallBack",
        "members": [
          {
            "astId": 1970,
            "contract": "contracts/mock/PoolHarness.sol:PoolHarness",
            "label": "isCreated",
            "offset": 0,
            "slot": "0",
            "type": "t_bool"
          },
          {
            "astId": 1972,
            "contract": "contracts/mock/PoolHarness.sol:PoolHarness",
            "label": "timestamp",
            "offset": 0,
            "slot": "1",
            "type": "t_uint256"
          }
        ],
        "numberOfBytes": "64"
      },
      "t_struct(Member)1963_storage": {
        "encoding": "inplace",
        "label": "struct IPool.Member",
        "members": [
          {
            "astId": 1952,
            "contract": "contracts/mock/PoolHarness.sol:PoolHarness",
            "label": "isCreated",
            "offset": 0,
            "slot": "0",
            "type": "t_bool"
          },
          {
            "astId": 1954,
            "contract": "contracts/mock/PoolHarness.sol:PoolHarness",
            "label": "isWhitelisted",
            "offset": 1,
            "slot": "0",
            "type": "t_bool"
          },
          {
            "astId": 1956,
            "contract": "contracts/mock/PoolHarness.sol:PoolHarness",
            "label": "principal",
            "offset": 0,
            "slot": "1",
            "type": "t_uint256"
          },
          {
            "astId": 1958,
            "contract": "contracts/mock/PoolHarness.sol:PoolHarness",
            "label": "accrualTs",
            "offset": 0,
            "slot": "2",
            "type": "t_uint256"
          },
          {
            "astId": 1960,
            "contract": "contracts/mock/PoolHarness.sol:PoolHarness",
            "label": "totalOriginationFee",
            "offset": 0,
            "slot": "3",
            "type": "t_uint256"
          },
          {
            "astId": 1962,
            "contract": "contracts/mock/PoolHarness.sol:PoolHarness",
            "label": "totalInterest",
            "offset": 0,
            "slot": "4",
            "type": "t_uint256"
          }
        ],
        "numberOfBytes": "160"
      },
      "t_struct(Position)1980_storage": {
        "encoding": "inplace",
        "label": "struct IPool.Position",
        "members": [
          {
            "astId": 1975,
            "contract": "contracts/mock/PoolHarness.sol:PoolHarness",
            "label": "interest",
            "offset": 0,
            "slot": "0",
            "type": "t_uint256"
          },
          {
            "astId": 1977,
            "contract": "contracts/mock/PoolHarness.sol:PoolHarness",
            "label": "startAt",
            "offset": 0,
            "slot": "1",
            "type": "t_uint256"
          },
          {
            "astId": 1979,
            "contract": "contracts/mock/PoolHarness.sol:PoolHarness",
            "label": "endAt",
            "offset": 0,
            "slot": "2",
            "type": "t_uint256"
          }
        ],
        "numberOfBytes": "96"
      },
      "t_struct(Roll)1968_storage": {
        "encoding": "inplace",
        "label": "struct IPool.Roll",
        "members": [
          {
            "astId": 1965,
            "contract": "contracts/mock/PoolHarness.sol:PoolHarness",
            "label": "startDate",
            "offset": 0,
            "slot": "0",
            "type": "t_uint256"
          },
          {
            "astId": 1967,
            "contract": "contracts/mock/PoolHarness.sol:PoolHarness",
            "label": "endDate",
            "offset": 0,
            "slot": "1",
            "type": "t_uint256"
          }
        ],
        "numberOfBytes": "64"
      },
      "t_uint256": {
        "encoding": "inplace",
        "label": "uint256",
        "numberOfBytes": "32"
      },
      "t_uint8": {
        "encoding": "inplace",
        "label": "uint8",
        "numberOfBytes": "1"
      }
    }
  }
}