{
  "address": "0x63F7aacD49Db3e3d94698F6218fBef840f18AF1C",
  "abi": [
    {
      "inputs": [
        {
          "internalType": "address",
          "name": "token",
          "type": "address"
        },
        {
          "internalType": "string",
          "name": "symbol",
          "type": "string"
        },
        {
          "internalType": "bool",
          "name": "isMintable",
          "type": "bool"
        }
      ],
      "name": "addTokenToList",
      "outputs": [
        {
          "internalType": "bool",
          "name": "",
          "type": "bool"
        }
      ],
      "stateMutability": "nonpayable",
      "type": "function"
    },
    {
      "inputs": [
        {
          "internalType": "uint256",
          "name": "",
          "type": "uint256"
        }
      ],
      "name": "allTokens",
      "outputs": [
        {
          "internalType": "address",
          "name": "",
          "type": "address"
        }
      ],
      "stateMutability": "view",
      "type": "function"
    },
    {
      "inputs": [
        {
          "internalType": "address",
          "name": "token",
          "type": "address"
        },
        {
          "internalType": "uint256",
          "name": "amount",
          "type": "uint256"
        }
      ],
      "name": "claim",
      "outputs": [
        {
          "internalType": "bool",
          "name": "",
          "type": "bool"
        }
      ],
      "stateMutability": "nonpayable",
      "type": "function"
    },
    {
      "inputs": [],
      "name": "claimAll",
      "outputs": [
        {
          "internalType": "bool",
          "name": "",
          "type": "bool"
        }
      ],
      "stateMutability": "nonpayable",
      "type": "function"
    },
    {
      "inputs": [
        {
          "internalType": "address",
          "name": "",
          "type": "address"
        }
      ],
      "name": "isTokenExists",
      "outputs": [
        {
          "internalType": "bool",
          "name": "",
          "type": "bool"
        }
      ],
      "stateMutability": "view",
      "type": "function"
    },
    {
      "inputs": [
        {
          "internalType": "address",
          "name": "",
          "type": "address"
        }
      ],
      "name": "isTokenMintable",
      "outputs": [
        {
          "internalType": "bool",
          "name": "",
          "type": "bool"
        }
      ],
      "stateMutability": "view",
      "type": "function"
    },
    {
      "inputs": [
        {
          "internalType": "address",
          "name": "token",
          "type": "address"
        },
        {
          "internalType": "address",
          "name": "to",
          "type": "address"
        },
        {
          "internalType": "uint256",
          "name": "amount",
          "type": "uint256"
        }
      ],
      "name": "mintTokenTo",
      "outputs": [
        {
          "internalType": "bool",
          "name": "",
          "type": "bool"
        }
      ],
      "stateMutability": "nonpayable",
      "type": "function"
    },
    {
      "inputs": [
        {
          "internalType": "address",
          "name": "token",
          "type": "address"
        },
        {
          "internalType": "uint256",
          "name": "amount",
          "type": "uint256"
        }
      ],
      "name": "mintTokenToMe",
      "outputs": [
        {
          "internalType": "bool",
          "name": "",
          "type": "bool"
        }
      ],
      "stateMutability": "nonpayable",
      "type": "function"
    },
    {
      "inputs": [
        {
          "internalType": "address",
          "name": "token",
          "type": "address"
        }
      ],
      "name": "myBalanceOf",
      "outputs": [
        {
          "internalType": "uint256",
          "name": "",
          "type": "uint256"
        }
      ],
      "stateMutability": "view",
      "type": "function"
    },
    {
      "inputs": [
        {
          "internalType": "string",
          "name": "",
          "type": "string"
        }
      ],
      "name": "tokenBySymbol",
      "outputs": [
        {
          "internalType": "address",
          "name": "",
          "type": "address"
        }
      ],
      "stateMutability": "view",
      "type": "function"
    },
    {
      "inputs": [
        {
          "internalType": "address",
          "name": "token",
          "type": "address"
        },
        {
          "internalType": "address",
          "name": "newOwner",
          "type": "address"
        }
      ],
      "name": "transferOwnershipOfToken",
      "outputs": [],
      "stateMutability": "nonpayable",
      "type": "function"
    },
    {
      "inputs": [
        {
          "internalType": "address",
          "name": "token",
          "type": "address"
        },
        {
          "internalType": "address",
          "name": "from",
          "type": "address"
        },
        {
          "internalType": "address",
          "name": "to",
          "type": "address"
        },
        {
          "internalType": "uint256",
          "name": "amount",
          "type": "uint256"
        }
      ],
      "name": "transferTokenFromTo",
      "outputs": [
        {
          "internalType": "bool",
          "name": "",
          "type": "bool"
        }
      ],
      "stateMutability": "nonpayable",
      "type": "function"
    },
    {
      "inputs": [
        {
          "internalType": "address",
          "name": "token",
          "type": "address"
        },
        {
          "internalType": "address",
          "name": "to",
          "type": "address"
        },
        {
          "internalType": "uint256",
          "name": "amount",
          "type": "uint256"
        }
      ],
      "name": "transferTokenTo",
      "outputs": [
        {
          "internalType": "bool",
          "name": "",
          "type": "bool"
        }
      ],
      "stateMutability": "nonpayable",
      "type": "function"
    },
    {
      "inputs": [
        {
          "internalType": "address",
          "name": "token",
          "type": "address"
        },
        {
          "internalType": "uint256",
          "name": "amount",
          "type": "uint256"
        }
      ],
      "name": "transferTokenToMe",
      "outputs": [
        {
          "internalType": "bool",
          "name": "",
          "type": "bool"
        }
      ],
      "stateMutability": "nonpayable",
      "type": "function"
    }
  ],
  "transactionHash": "0xa937e0bfd7aac8cbf40da7f437cc6db50c184f6ce363252860e5e9131d537ef6",
  "args": [],
  "numDeployments": 1,
  "solcInputHash": "faecb149194b1734b54ae1888daf8156",
  "bytecode": "0x608060405234801561001057600080fd5b50610fa6806100206000396000f3fe608060405234801561001057600080fd5b50600436106100ea5760003560e01c80639ed4fa5a1161008c578063b3a842ff11610066578063b3a842ff14610208578063bdb636061461023c578063d1058e591461024f578063d2a7780c1461025757600080fd5b80639ed4fa5a146101bf578063aad3ec96146101e2578063afcc6303146101f557600080fd5b8063480a3e89116100c8578063480a3e891461014b57806356ea8fd21461015e5780635da619a914610171578063634282af1461019457600080fd5b8063055dbc28146100ef5780630d172a011461011557806336849a6714610138575b600080fd5b6101026100fd366004610b07565b61026c565b6040519081526020015b60405180910390f35b610128610123366004610b22565b6102dd565b604051901515815260200161010c565b610128610146366004610b5e565b61039c565b610128610159366004610b5e565b6103b0565b61012861016c366004610b22565b6103ff565b61012861017f366004610b07565b60026020526000908152604090205460ff1681565b6101a76101a2366004610b88565b610506565b6040516001600160a01b03909116815260200161010c565b6101286101cd366004610b07565b60036020526000908152604090205460ff1681565b6101286101f0366004610b5e565b610530565b610128610203366004610ba1565b6106ee565b6101a7610216366004610c02565b80516020818301810180516001825292820191909301209152546001600160a01b031681565b61012861024a366004610cc4565b6107ad565b61012861094e565b61026a610265366004610d5a565b610a51565b005b6040516370a0823160e01b81523360048201526000906001600160a01b038316906370a0823190602401602060405180830381865afa1580156102b3573d6000803e3d6000fd5b505050506040513d601f19601f820116820180604052508101906102d79190610d8d565b92915050565b6001600160a01b038316600090815260036020526040812054849060ff166103205760405162461bcd60e51b815260040161031790610da6565b60405180910390fd5b60405163a9059cbb60e01b81526001600160a01b0385811660048301526024820185905286169063a9059cbb906044016020604051808303816000875af115801561036f573d6000803e3d6000fd5b505050506040513d601f19601f820116820180604052508101906103939190610dd4565b95945050505050565b60006103a98333846103ff565b9392505050565b6001600160a01b038216600090815260036020526040812054839060ff166103ea5760405162461bcd60e51b815260040161031790610da6565b6103f58433856102dd565b91505b5092915050565b6001600160a01b038316600090815260036020526040812054849060ff166104395760405162461bcd60e51b815260040161031790610da6565b6001600160a01b03851660009081526002602052604090205460ff166104995760405162461bcd60e51b8152602060048201526015602482015274546f6b656e206973206e6f74206d696e7461626c6560581b6044820152606401610317565b604051632f2ab52560e11b81526001600160a01b03858116600483015260248201859052861690635e556a4a90604401600060405180830381600087803b1580156104e357600080fd5b505af11580156104f7573d6000803e3d6000fd5b50600198975050505050505050565b6000818154811061051657600080fd5b6000918252602090912001546001600160a01b0316905081565b6001600160a01b038216600090815260036020526040812054839060ff1661056a5760405162461bcd60e51b815260040161031790610da6565b6040516370a0823160e01b81523060048201526000906001600160a01b038616906370a0823190602401602060405180830381865afa1580156105b1573d6000803e3d6000fd5b505050506040513d601f19601f820116820180604052508101906105d59190610d8d565b9050838111156106585760405163a9059cbb60e01b8152336004820152602481018590526001600160a01b0386169063a9059cbb906044016020604051808303816000875af115801561062c573d6000803e3d6000fd5b505050506040513d601f19601f820116820180604052508101906106509190610dd4565b9250506103f8565b6001600160a01b03851660009081526002602052604090205460ff16156106e357604051632f2ab52560e11b8152336004820152602481018590526001600160a01b03861690635e556a4a90604401600060405180830381600087803b1580156106c157600080fd5b505af11580156106d5573d6000803e3d6000fd5b5050505060019250506103f8565b506000949350505050565b6001600160a01b038416600090815260036020526040812054859060ff166107285760405162461bcd60e51b815260040161031790610da6565b6040516323b872dd60e01b81526001600160a01b0386811660048301528581166024830152604482018590528716906323b872dd906064016020604051808303816000875af115801561077f573d6000803e3d6000fd5b505050506040513d601f19601f820116820180604052508101906107a39190610dd4565b9695505050505050565b6001600160a01b03841660009081526003602052604081205460ff161561080d5760405162461bcd60e51b8152602060048201526014602482015273546f6b656e20616c72656164792065786973747360601b6044820152606401610317565b60006001600160a01b03166001858560405161082a929190610df1565b908152604051908190036020019020546001600160a01b0316146108885760405162461bcd60e51b815260206004820152601560248201527453796d626f6c20616c72656164792065786973747360581b6044820152606401610317565b60008054600180820183557f290decd9548b62a8d60345a988386fc84ba6bc95484008f6362f93160ef3e56390910180546001600160a01b0319166001600160a01b0389169081179091558252600260209081526040808420805460ff199081168815151790915560039092529283902080549091168217905590518691906109149087908790610df1565b90815260405190819003602001902080546001600160a01b03929092166001600160a01b0319909216919091179055506001949350505050565b6000805b600054811015610a4957600080828154811061097057610970610e01565b600091825260209182902001546040805163313ce56760e01b815290516001600160a01b039092169263313ce567926004808401938290030181865afa1580156109be573d6000803e3d6000fd5b505050506040513d601f19601f820116820180604052508101906109e29190610e17565b60ff16905060006109f482600a610f34565b610a00906103e8610f40565b9050610a3360008481548110610a1857610a18610e01565b6000918252602090912001546001600160a01b031682610530565b5050508080610a4190610f57565b915050610952565b506001905090565b6001600160a01b038216600090815260036020526040902054829060ff16610a8b5760405162461bcd60e51b815260040161031790610da6565b60405163f2fde38b60e01b81526001600160a01b03838116600483015284169063f2fde38b90602401600060405180830381600087803b158015610ace57600080fd5b505af1158015610ae2573d6000803e3d6000fd5b50505050505050565b80356001600160a01b0381168114610b0257600080fd5b919050565b600060208284031215610b1957600080fd5b6103a982610aeb565b600080600060608486031215610b3757600080fd5b610b4084610aeb565b9250610b4e60208501610aeb565b9150604084013590509250925092565b60008060408385031215610b7157600080fd5b610b7a83610aeb565b946020939093013593505050565b600060208284031215610b9a57600080fd5b5035919050565b60008060008060808587031215610bb757600080fd5b610bc085610aeb565b9350610bce60208601610aeb565b9250610bdc60408601610aeb565b9396929550929360600135925050565b634e487b7160e01b600052604160045260246000fd5b600060208284031215610c1457600080fd5b813567ffffffffffffffff80821115610c2c57600080fd5b818401915084601f830112610c4057600080fd5b813581811115610c5257610c52610bec565b604051601f8201601f19908116603f01168101908382118183101715610c7a57610c7a610bec565b81604052828152876020848701011115610c9357600080fd5b826020860160208301376000928101602001929092525095945050505050565b8015158114610cc157600080fd5b50565b60008060008060608587031215610cda57600080fd5b610ce385610aeb565b9350602085013567ffffffffffffffff80821115610d0057600080fd5b818701915087601f830112610d1457600080fd5b813581811115610d2357600080fd5b886020828501011115610d3557600080fd5b6020830195508094505050506040850135610d4f81610cb3565b939692955090935050565b60008060408385031215610d6d57600080fd5b610d7683610aeb565b9150610d8460208401610aeb565b90509250929050565b600060208284031215610d9f57600080fd5b5051919050565b602080825260149082015273151bdad95b88191bd95cc81b9bdd08195e1a5cdd60621b604082015260600190565b600060208284031215610de657600080fd5b81516103a981610cb3565b8183823760009101908152919050565b634e487b7160e01b600052603260045260246000fd5b600060208284031215610e2957600080fd5b815160ff811681146103a957600080fd5b634e487b7160e01b600052601160045260246000fd5b600181815b80851115610e8b578160001904821115610e7157610e71610e3a565b80851615610e7e57918102915b93841c9390800290610e55565b509250929050565b600082610ea2575060016102d7565b81610eaf575060006102d7565b8160018114610ec55760028114610ecf57610eeb565b60019150506102d7565b60ff841115610ee057610ee0610e3a565b50506001821b6102d7565b5060208310610133831016604e8410600b8410161715610f0e575081810a6102d7565b610f188383610e50565b8060001904821115610f2c57610f2c610e3a565b029392505050565b60006103a98383610e93565b80820281158282048414176102d7576102d7610e3a565b600060018201610f6957610f69610e3a565b506001019056fea2646970667358221220477165f15b539e144b2848625d86f770e6ff893a67a80115d3619706374a14fc64736f6c63430008110033",
  "devdoc": {
    "kind": "dev",
    "methods": {
      "addTokenToList(address,string,bool)": {
        "params": {
          "isMintable": "Whether the token is mintable",
          "symbol": "Symbol of the token",
          "token": "Address of the token"
        }
      }
    },
    "version": 1
  },
  "userdoc": {
    "kind": "user",
    "methods": {
      "addTokenToList(address,string,bool)": {
        "notice": "Adds token to the list of tokens"
      },
      "claim(address,uint256)": {
        "notice": "Gives amount of token to msg.sender"
      },
      "claimAll()": {
        "notice": "Gives 1000 of each token to msg.sender"
      },
      "mintTokenTo(address,address,uint256)": {
        "notice": "Mints token to 'to'"
      },
      "mintTokenToMe(address,uint256)": {
        "notice": "Mints token to msg.sender"
      },
      "myBalanceOf(address)": {
        "notice": "Returns msg.sender's balance of token"
      },
      "transferOwnershipOfToken(address,address)": {
        "notice": "Transfers ownership of token to 'newOwner'"
      },
      "transferTokenFromTo(address,address,address,uint256)": {
        "notice": "Transfers token from 'from' to 'to'"
      },
      "transferTokenTo(address,address,uint256)": {
        "notice": "Transfers token from this to 'to'"
      },
      "transferTokenToMe(address,uint256)": {
        "notice": "Transfers token from this to msg.sender"
      }
    },
    "version": 1
  },
  "storageLayout": {
    "storage": [
      {
        "astId": 10162,
        "contract": "contracts/mock/CoinKeeperMumbai.sol:CoinKeeperMumbai",
        "label": "allTokens",
        "offset": 0,
        "slot": "0",
        "type": "t_array(t_address)dyn_storage"
      },
      {
        "astId": 10166,
        "contract": "contracts/mock/CoinKeeperMumbai.sol:CoinKeeperMumbai",
        "label": "tokenBySymbol",
        "offset": 0,
        "slot": "1",
        "type": "t_mapping(t_string_memory_ptr,t_address)"
      },
      {
        "astId": 10170,
        "contract": "contracts/mock/CoinKeeperMumbai.sol:CoinKeeperMumbai",
        "label": "isTokenMintable",
        "offset": 0,
        "slot": "2",
        "type": "t_mapping(t_address,t_bool)"
      },
      {
        "astId": 10174,
        "contract": "contracts/mock/CoinKeeperMumbai.sol:CoinKeeperMumbai",
        "label": "isTokenExists",
        "offset": 0,
        "slot": "3",
        "type": "t_mapping(t_address,t_bool)"
      }
    ],
    "types": {
      "t_address": {
        "encoding": "inplace",
        "label": "address",
        "numberOfBytes": "20"
      },
      "t_array(t_address)dyn_storage": {
        "base": "t_address",
        "encoding": "dynamic_array",
        "label": "address[]",
        "numberOfBytes": "32"
      },
      "t_bool": {
        "encoding": "inplace",
        "label": "bool",
        "numberOfBytes": "1"
      },
      "t_mapping(t_address,t_bool)": {
        "encoding": "mapping",
        "key": "t_address",
        "label": "mapping(address => bool)",
        "numberOfBytes": "32",
        "value": "t_bool"
      },
      "t_mapping(t_string_memory_ptr,t_address)": {
        "encoding": "mapping",
        "key": "t_string_memory_ptr",
        "label": "mapping(string => address)",
        "numberOfBytes": "32",
        "value": "t_address"
      },
      "t_string_memory_ptr": {
        "encoding": "bytes",
        "label": "string",
        "numberOfBytes": "32"
      }
    }
  }
}