{
  "address": "0x9eC053D4d9674d58a09f0f99e181e0c1360181E6",
  "abi": [
    {
      "anonymous": false,
      "inputs": [
        {
          "indexed": false,
          "internalType": "uint256",
          "name": "depositMaturity",
          "type": "uint256"
        },
        {
          "indexed": false,
          "internalType": "uint256",
          "name": "maturityDate",
          "type": "uint256"
        }
      ],
      "name": "Activated",
      "type": "event"
    },
    {
      "anonymous": false,
      "inputs": [
        {
          "indexed": true,
          "internalType": "address",
          "name": "lender",
          "type": "address"
        }
      ],
      "name": "CallbackCancelled",
      "type": "event"
    },
    {
      "anonymous": false,
      "inputs": [
        {
          "indexed": true,
          "internalType": "address",
          "name": "lender",
          "type": "address"
        }
      ],
      "name": "CallbackCreated",
      "type": "event"
    },
    {
      "anonymous": false,
      "inputs": [],
      "name": "Closed",
      "type": "event"
    },
    {
      "anonymous": false,
      "inputs": [],
      "name": "ConvertedToPublic",
      "type": "event"
    },
    {
      "anonymous": false,
      "inputs": [],
      "name": "Defaulted",
      "type": "event"
    },
    {
      "anonymous": false,
      "inputs": [
        {
          "indexed": false,
          "internalType": "uint256",
          "name": "newPeriod",
          "type": "uint256"
        }
      ],
      "name": "GracePeriodChanged",
      "type": "event"
    },
    {
      "anonymous": false,
      "inputs": [
        {
          "indexed": false,
          "internalType": "uint8",
          "name": "version",
          "type": "uint8"
        }
      ],
      "name": "Initialized",
      "type": "event"
    },
    {
      "anonymous": false,
      "inputs": [
        {
          "indexed": false,
          "internalType": "address",
          "name": "lender",
          "type": "address"
        }
      ],
      "name": "LenderBlacklisted",
      "type": "event"
    },
    {
      "anonymous": false,
      "inputs": [
        {
          "indexed": false,
          "internalType": "address",
          "name": "lender",
          "type": "address"
        }
      ],
      "name": "LenderWhitelisted",
      "type": "event"
    },
    {
      "anonymous": false,
      "inputs": [
        {
          "indexed": true,
          "internalType": "address",
          "name": "lender",
          "type": "address"
        },
        {
          "indexed": false,
          "internalType": "uint256",
          "name": "amount",
          "type": "uint256"
        }
      ],
      "name": "Lent",
      "type": "event"
    },
    {
      "anonymous": false,
      "inputs": [
        {
          "indexed": false,
          "internalType": "uint256",
          "name": "newPeriod",
          "type": "uint256"
        }
      ],
      "name": "MonthlyRoundPeriodChanged",
      "type": "event"
    },
    {
      "anonymous": false,
      "inputs": [
        {
          "indexed": true,
          "internalType": "address",
          "name": "lender",
          "type": "address"
        },
        {
          "indexed": false,
          "internalType": "uint256",
          "name": "repayed",
          "type": "uint256"
        },
        {
          "indexed": false,
          "internalType": "uint256",
          "name": "spreadFee",
          "type": "uint256"
        },
        {
          "indexed": false,
          "internalType": "uint256",
          "name": "originationFee",
          "type": "uint256"
        },
        {
          "indexed": false,
          "internalType": "uint256",
          "name": "penalty",
          "type": "uint256"
        }
      ],
      "name": "Repayed",
      "type": "event"
    },
    {
      "anonymous": false,
      "inputs": [
        {
          "indexed": true,
          "internalType": "address",
          "name": "lender",
          "type": "address"
        },
        {
          "indexed": false,
          "internalType": "uint256",
          "name": "repayed",
          "type": "uint256"
        },
        {
          "indexed": false,
          "internalType": "uint256",
          "name": "spreadFee",
          "type": "uint256"
        },
        {
          "indexed": false,
          "internalType": "uint256",
          "name": "penalty",
          "type": "uint256"
        }
      ],
      "name": "RepayedInterest",
      "type": "event"
    },
    {
      "anonymous": false,
      "inputs": [
        {
          "indexed": true,
          "internalType": "uint256",
          "name": "rollId",
          "type": "uint256"
        },
        {
          "indexed": false,
          "internalType": "uint256",
          "name": "newMaturity",
          "type": "uint256"
        }
      ],
      "name": "RollAccepted",
      "type": "event"
    },
    {
      "anonymous": false,
      "inputs": [
        {
          "indexed": false,
          "internalType": "uint256",
          "name": "newPeriod",
          "type": "uint256"
        }
      ],
      "name": "RollRangePeriodChanged",
      "type": "event"
    },
    {
      "anonymous": false,
      "inputs": [
        {
          "indexed": true,
          "internalType": "uint256",
          "name": "rollId",
          "type": "uint256"
        },
        {
          "indexed": false,
          "internalType": "address",
          "name": "user",
          "type": "address"
        }
      ],
      "name": "RollRejected",
      "type": "event"
    },
    {
      "anonymous": false,
      "inputs": [
        {
          "indexed": true,
          "internalType": "uint256",
          "name": "rollId",
          "type": "uint256"
        }
      ],
      "name": "RollRequested",
      "type": "event"
    },
    {
      "inputs": [],
      "name": "YEAR",
      "outputs": [
        {
          "internalType": "uint256",
          "name": "",
          "type": "uint256"
        }
      ],
      "stateMutability": "view",
      "type": "function"
    },
    {
      "inputs": [
        {
          "internalType": "address",
          "name": "_borrower",
          "type": "address"
        },
        {
          "internalType": "uint256",
          "name": "_spreadRate",
          "type": "uint256"
        },
        {
          "internalType": "uint256",
          "name": "_originationRate",
          "type": "uint256"
        },
        {
          "internalType": "uint256",
          "name": "_incrementPerRoll",
          "type": "uint256"
        },
        {
          "internalType": "uint256",
          "name": "_penaltyRatePerYear",
          "type": "uint256"
        },
        {
          "components": [
            {
              "internalType": "bool",
              "name": "isBulletLoan",
              "type": "bool"
            },
            {
              "internalType": "address",
              "name": "asset",
              "type": "address"
            },
            {
              "internalType": "uint256",
              "name": "size",
              "type": "uint256"
            },
            {
              "internalType": "uint256",
              "name": "tenor",
              "type": "uint256"
            },
            {
              "internalType": "uint256",
              "name": "rateMantissa",
              "type": "uint256"
            },
            {
              "internalType": "uint256",
              "name": "depositWindow",
              "type": "uint256"
            }
          ],
          "internalType": "struct IPool.PoolData",
          "name": "_poolData",
          "type": "tuple"
        },
        {
          "internalType": "bytes",
          "name": "_members",
          "type": "bytes"
        }
      ],
      "name": "__Pool_init",
      "outputs": [],
      "stateMutability": "nonpayable",
      "type": "function"
    },
    {
      "inputs": [],
      "name": "acceptRoll",
      "outputs": [],
      "stateMutability": "nonpayable",
      "type": "function"
    },
    {
      "inputs": [],
      "name": "activeRollId",
      "outputs": [
        {
          "internalType": "uint256",
          "name": "",
          "type": "uint256"
        }
      ],
      "stateMutability": "view",
      "type": "function"
    },
    {
      "inputs": [],
      "name": "asset",
      "outputs": [
        {
          "internalType": "address",
          "name": "",
          "type": "address"
        }
      ],
      "stateMutability": "view",
      "type": "function"
    },
    {
      "inputs": [
        {
          "internalType": "address",
          "name": "lender",
          "type": "address"
        }
      ],
      "name": "balanceOf",
      "outputs": [
        {
          "internalType": "uint256",
          "name": "balance",
          "type": "uint256"
        }
      ],
      "stateMutability": "view",
      "type": "function"
    },
    {
      "inputs": [
        {
          "internalType": "bytes",
          "name": "lenders",
          "type": "bytes"
        }
      ],
      "name": "blacklistLenders",
      "outputs": [
        {
          "internalType": "bool",
          "name": "success",
          "type": "bool"
        }
      ],
      "stateMutability": "nonpayable",
      "type": "function"
    },
    {
      "inputs": [],
      "name": "borrower",
      "outputs": [
        {
          "internalType": "address",
          "name": "",
          "type": "address"
        }
      ],
      "stateMutability": "view",
      "type": "function"
    },
    {
      "inputs": [],
      "name": "canBeDefaulted",
      "outputs": [
        {
          "internalType": "bool",
          "name": "isAbleToDefault",
          "type": "bool"
        }
      ],
      "stateMutability": "view",
      "type": "function"
    },
    {
      "inputs": [],
      "name": "cancelCallBack",
      "outputs": [
        {
          "internalType": "bool",
          "name": "success",
          "type": "bool"
        }
      ],
      "stateMutability": "nonpayable",
      "type": "function"
    },
    {
      "inputs": [],
      "name": "close",
      "outputs": [
        {
          "internalType": "bool",
          "name": "success",
          "type": "bool"
        }
      ],
      "stateMutability": "nonpayable",
      "type": "function"
    },
    {
      "inputs": [],
      "name": "currentSize",
      "outputs": [
        {
          "internalType": "uint256",
          "name": "",
          "type": "uint256"
        }
      ],
      "stateMutability": "view",
      "type": "function"
    },
    {
      "inputs": [],
      "name": "defaultedAt",
      "outputs": [
        {
          "internalType": "uint256",
          "name": "",
          "type": "uint256"
        }
      ],
      "stateMutability": "view",
      "type": "function"
    },
    {
      "inputs": [],
      "name": "depositMaturity",
      "outputs": [
        {
          "internalType": "uint256",
          "name": "",
          "type": "uint256"
        }
      ],
      "stateMutability": "view",
      "type": "function"
    },
    {
      "inputs": [],
      "name": "depositWindow",
      "outputs": [
        {
          "internalType": "uint256",
          "name": "",
          "type": "uint256"
        }
      ],
      "stateMutability": "view",
      "type": "function"
    },
    {
      "inputs": [
        {
          "internalType": "address",
          "name": "lender",
          "type": "address"
        }
      ],
      "name": "dueInterestOf",
      "outputs": [
        {
          "internalType": "uint256",
          "name": "due",
          "type": "uint256"
        },
        {
          "internalType": "uint256",
          "name": "spreadFee",
          "type": "uint256"
        },
        {
          "internalType": "uint256",
          "name": "penalty",
          "type": "uint256"
        }
      ],
      "stateMutability": "view",
      "type": "function"
    },
    {
      "inputs": [
        {
          "internalType": "address",
          "name": "lender",
          "type": "address"
        }
      ],
      "name": "dueOf",
      "outputs": [
        {
          "internalType": "uint256",
          "name": "due",
          "type": "uint256"
        },
        {
          "internalType": "uint256",
          "name": "spreadFee",
          "type": "uint256"
        },
        {
          "internalType": "uint256",
          "name": "originationFee",
          "type": "uint256"
        },
        {
          "internalType": "uint256",
          "name": "penalty",
          "type": "uint256"
        }
      ],
      "stateMutability": "view",
      "type": "function"
    },
    {
      "inputs": [],
      "name": "factory",
      "outputs": [
        {
          "internalType": "contract IPoolFactory",
          "name": "",
          "type": "address"
        }
      ],
      "stateMutability": "view",
      "type": "function"
    },
    {
      "inputs": [],
      "name": "getNextPaymentTimestamp",
      "outputs": [
        {
          "internalType": "uint256",
          "name": "payableToTimestamp",
          "type": "uint256"
        }
      ],
      "stateMutability": "view",
      "type": "function"
    },
    {
      "inputs": [],
      "name": "incrementPerRoll",
      "outputs": [
        {
          "internalType": "uint256",
          "name": "",
          "type": "uint256"
        }
      ],
      "stateMutability": "view",
      "type": "function"
    },
    {
      "inputs": [],
      "name": "isBulletLoan",
      "outputs": [
        {
          "internalType": "bool",
          "name": "",
          "type": "bool"
        }
      ],
      "stateMutability": "view",
      "type": "function"
    },
    {
      "inputs": [],
      "name": "isClosed",
      "outputs": [
        {
          "internalType": "bool",
          "name": "",
          "type": "bool"
        }
      ],
      "stateMutability": "view",
      "type": "function"
    },
    {
      "inputs": [],
      "name": "isPublic",
      "outputs": [
        {
          "internalType": "bool",
          "name": "",
          "type": "bool"
        }
      ],
      "stateMutability": "view",
      "type": "function"
    },
    {
      "inputs": [],
      "name": "isRollRequested",
      "outputs": [
        {
          "internalType": "bool",
          "name": "",
          "type": "bool"
        }
      ],
      "stateMutability": "view",
      "type": "function"
    },
    {
      "inputs": [],
      "name": "lastPaidTimestamp",
      "outputs": [
        {
          "internalType": "uint256",
          "name": "",
          "type": "uint256"
        }
      ],
      "stateMutability": "view",
      "type": "function"
    },
    {
      "inputs": [
        {
          "internalType": "uint256",
          "name": "amount",
          "type": "uint256"
        }
      ],
      "name": "lend",
      "outputs": [
        {
          "internalType": "bool",
          "name": "success",
          "type": "bool"
        }
      ],
      "stateMutability": "nonpayable",
      "type": "function"
    },
    {
      "inputs": [],
      "name": "markPoolDefaulted",
      "outputs": [],
      "stateMutability": "nonpayable",
      "type": "function"
    },
    {
      "inputs": [],
      "name": "maturityDate",
      "outputs": [
        {
          "internalType": "uint256",
          "name": "",
          "type": "uint256"
        }
      ],
      "stateMutability": "view",
      "type": "function"
    },
    {
      "inputs": [],
      "name": "maxSize",
      "outputs": [
        {
          "internalType": "uint256",
          "name": "",
          "type": "uint256"
        }
      ],
      "stateMutability": "view",
      "type": "function"
    },
    {
      "inputs": [],
      "name": "originationRate",
      "outputs": [
        {
          "internalType": "uint256",
          "name": "",
          "type": "uint256"
        }
      ],
      "stateMutability": "view",
      "type": "function"
    },
    {
      "inputs": [
        {
          "internalType": "address",
          "name": "lender",
          "type": "address"
        }
      ],
      "name": "penaltyOf",
      "outputs": [
        {
          "internalType": "uint256",
          "name": "penalty",
          "type": "uint256"
        }
      ],
      "stateMutability": "view",
      "type": "function"
    },
    {
      "inputs": [
        {
          "internalType": "uint256",
          "name": "interval",
          "type": "uint256"
        }
      ],
      "name": "penaltyRate",
      "outputs": [
        {
          "internalType": "uint256",
          "name": "",
          "type": "uint256"
        }
      ],
      "stateMutability": "view",
      "type": "function"
    },
    {
      "inputs": [],
      "name": "penaltyRatePerYear",
      "outputs": [
        {
          "internalType": "uint256",
          "name": "",
          "type": "uint256"
        }
      ],
      "stateMutability": "view",
      "type": "function"
    },
    {
      "inputs": [],
      "name": "prime",
      "outputs": [
        {
          "internalType": "contract IPrime",
          "name": "primeInstance",
          "type": "address"
        }
      ],
      "stateMutability": "view",
      "type": "function"
    },
    {
      "inputs": [],
      "name": "rateMantissa",
      "outputs": [
        {
          "internalType": "uint256",
          "name": "",
          "type": "uint256"
        }
      ],
      "stateMutability": "view",
      "type": "function"
    },
    {
      "inputs": [
        {
          "internalType": "address",
          "name": "lender",
          "type": "address"
        }
      ],
      "name": "repay",
      "outputs": [
        {
          "internalType": "bool",
          "name": "success",
          "type": "bool"
        }
      ],
      "stateMutability": "nonpayable",
      "type": "function"
    },
    {
      "inputs": [],
      "name": "repayAll",
      "outputs": [
        {
          "internalType": "bool",
          "name": "success",
          "type": "bool"
        }
      ],
      "stateMutability": "nonpayable",
      "type": "function"
    },
    {
      "inputs": [],
      "name": "repayInterest",
      "outputs": [],
      "stateMutability": "nonpayable",
      "type": "function"
    },
    {
      "inputs": [],
      "name": "requestCallBack",
      "outputs": [
        {
          "internalType": "bool",
          "name": "success",
          "type": "bool"
        }
      ],
      "stateMutability": "nonpayable",
      "type": "function"
    },
    {
      "inputs": [],
      "name": "requestRoll",
      "outputs": [],
      "stateMutability": "nonpayable",
      "type": "function"
    },
    {
      "inputs": [],
      "name": "spreadRate",
      "outputs": [
        {
          "internalType": "uint256",
          "name": "",
          "type": "uint256"
        }
      ],
      "stateMutability": "view",
      "type": "function"
    },
    {
      "inputs": [],
      "name": "switchToPublic",
      "outputs": [
        {
          "internalType": "bool",
          "name": "success",
          "type": "bool"
        }
      ],
      "stateMutability": "nonpayable",
      "type": "function"
    },
    {
      "inputs": [],
      "name": "tenor",
      "outputs": [
        {
          "internalType": "uint256",
          "name": "",
          "type": "uint256"
        }
      ],
      "stateMutability": "view",
      "type": "function"
    },
    {
      "inputs": [],
      "name": "totalDue",
      "outputs": [
        {
          "internalType": "uint256",
          "name": "totalDueAmount",
          "type": "uint256"
        }
      ],
      "stateMutability": "view",
      "type": "function"
    },
    {
      "inputs": [],
      "name": "totalDueInterest",
      "outputs": [
        {
          "internalType": "uint256",
          "name": "totalInterest",
          "type": "uint256"
        }
      ],
      "stateMutability": "view",
      "type": "function"
    },
    {
      "inputs": [
        {
          "internalType": "uint256",
          "name": "newPeriod",
          "type": "uint256"
        }
      ],
      "name": "updateGracePeriod",
      "outputs": [],
      "stateMutability": "nonpayable",
      "type": "function"
    },
    {
      "inputs": [
        {
          "internalType": "uint256",
          "name": "newPeriod",
          "type": "uint256"
        }
      ],
      "name": "updateMonthlyRoundPeriod",
      "outputs": [],
      "stateMutability": "nonpayable",
      "type": "function"
    },
    {
      "inputs": [
        {
          "internalType": "uint256",
          "name": "newPeriod",
          "type": "uint256"
        }
      ],
      "name": "updateRollRangePeriod",
      "outputs": [],
      "stateMutability": "nonpayable",
      "type": "function"
    },
    {
      "inputs": [
        {
          "internalType": "bytes",
          "name": "lenders",
          "type": "bytes"
        }
      ],
      "name": "whitelistLenders",
      "outputs": [
        {
          "internalType": "bool",
          "name": "success",
          "type": "bool"
        }
      ],
      "stateMutability": "nonpayable",
      "type": "function"
    }
  ],
  "transactionHash": "0xe4a5a3897e62acad669fee114decc4b0a2cfbb40b32b467e337fe4897f4990a0",
  "args": [],
  "numDeployments": 1,
  "solcInputHash": "8c5f1d733fcdadb859f8259dc1ed9ca5",
  "bytecode": "0x60806040523480156200001157600080fd5b506200001c62000022565b620000e4565b600054610100900460ff16156200008f5760405162461bcd60e51b815260206004820152602760248201527f496e697469616c697a61626c653a20636f6e747261637420697320696e697469604482015266616c697a696e6760c81b606482015260840160405180910390fd5b60005460ff9081161015620000e2576000805460ff191660ff9081179091556040519081527f7f26b83ff96e1f2b6a682f133852f6798a09c465da95921460cefb38474024989060200160405180910390a15b565b61337d80620000f46000396000f3fe608060405234801561001057600080fd5b50600436106102ba5760003560e01c8063821b10b011610182578063b5cae532116100e9578063c9d0cf0a116100a2578063e6ad04c91161007c578063e6ad04c91461058c578063f13fa0c114610594578063fa3ae6dc1461059d578063fa5d30b5146105a557600080fd5b8063c9d0cf0a14610569578063d59624b414610571578063dc9a15351461057a57600080fd5b8063b5cae532146104fb578063b75a197d14610504578063bda1504b14610532578063c2b6b58c1461053b578063c45a01551461054e578063c7ee005e1461056157600080fd5b80639f7c73e91161013b5780639f7c73e914610499578063a15612d1146104ac578063a2d273f9146104b5578063a4af9d46146104c2578063a6aa57ce146104d5578063a8ce6bbd146104e857600080fd5b8063821b10b01461045a57806382a3c6891461046357806383914540146104765780638a9e667c146104815780638fd0aeb21461048957806393e88f3a1461049157600080fd5b806343d726d6116102265780636e4a3a56116101df5780636e4a3a561461040157806370a082311461040957806370acf9291461041c57806376bc05ae1461042f5780637bf04e3f146104385780637df1f1b91461044057600080fd5b806343d726d6146103af57806344338819146103b757806355e172d9146103ca5780635ab2af51146103dd5780635ab98d5a146103e65780635ceeb36c146103f957600080fd5b80631d097974116102785780631d097974146103225780632565b15914610336578063337e04c11461033f5780633551dd8c1461037257806338d52e0f1461037b5780633e0b06db146103a657600080fd5b806280af81146102bf5780630afbd5c9146102db5780630c8e6fbf146102e35780630d692cc1146102f8578063125f01c814610301578063179541ca14610319575b600080fd5b6102c860415481565b6040519081526020015b60405180910390f35b6102c86105ad565b6102f66102f1366004612f27565b610627565b005b6102c860395481565b61030961069d565b60405190151581526020016102d2565b6102c8604b5481565b603354610309906301000000900460ff1681565b6102c860375481565b61035261034d366004612f55565b61076c565b6040805194855260208501939093529183015260608201526080016102d2565b6102c8603d5481565b60345461038e906001600160a01b031681565b6040516001600160a01b0390911681526020016102d2565b6102c860385481565b6103096107ea565b6103096103c5366004612fbb565b61088b565b6102c86103d8366004612f55565b610938565b6102c8603a5481565b6102f66103f4366004612f27565b610943565b6103096109a9565b6102f6610a07565b6102c8610417366004612f55565b610b1e565b6102f661042a366004612ffd565b610c2c565b6102c8603c5481565b6102c8610d55565b60335461038e90600160201b90046001600160a01b031681565b6102c8603b5481565b6102f6610471366004612f27565b610d97565b6102c86301da9c0081565b6102f6610dfd565b610309610f9b565b6102c8611043565b6103096104a7366004612f55565b6110c5565b6102c8603e5481565b6033546103099060ff1681565b6103096104d0366004612fbb565b611178565b6103096104e3366004612f27565b611235565b6102c86104f6366004612f27565b6112e3565b6102c860425481565b610517610512366004612f55565b611302565b604080519384526020840192909252908201526060016102d2565b6102c860365481565b6033546103099062010000900460ff1681565b60355461038e906001600160a01b031681565b61038e6113be565b6102f6611431565b6102c8603f5481565b60335461030990610100900460ff1681565b6103096114d6565b6102c860405481565b610309611671565b6102f661172b565b604354600090815b81811015610622576000604382815481106105d2576105d2613098565b60009182526020822001546001600160a01b03169150806105f283611302565b50909250905061060281836130c4565b61060c90876130c4565b95505050508061061b906130d7565b90506105b5565b505090565b603354600160201b90046001600160a01b031633146106615760405162461bcd60e51b8152600401610658906130f0565b60405180910390fd5b604d8190556040518181527ff3fbd8ebfad00f564284e96213596558d8333b4589dda9cff72bd54879e12b06906020015b60405180910390a150565b60006042546000146106c15760405162461bcd60e51b81526004016106589061310d565b60335462010000900460ff16156106ea5760405162461bcd60e51b81526004016106589061312a565b6106f33361192c565b336000908152604a602052604090205460ff166107225760405162461bcd60e51b815260040161065890613147565b336000818152604a6020526040808220805460ff19168155600101829055517f6fa5f2f133d0fabc383ccf7982b3fd93ab389a1dbad7e1a5e6d20e58ae3acf759190a25060015b90565b6001600160a01b038116600090815260476020526040812060018101548291829182919082036107aa576000806000809450945094509450506107e3565b6107bd86826004015483600201546119d5565b919650945091506107cd86611a6d565b92508060010154856107df91906130c4565b9450505b9193509193565b603354600090600160201b90046001600160a01b0316331461081e5760405162461bcd60e51b8152600401610658906130f0565b60335462010000900460ff16156108475760405162461bcd60e51b81526004016106589061312a565b6036541561087d5760405162461bcd60e51b815260206004820152600360248201526213d21160ea1b6044820152606401610658565b610885611c87565b50600190565b603354600090600160201b90046001600160a01b031633146108bf5760405162461bcd60e51b8152600401610658906130f0565b6108c7611cc3565b60008290036108fe5760405162461bcd60e51b815260206004820152600360248201526226262d60e91b6044820152606401610658565b603354610100900460ff161561091a576033805461ff00191690555b61092660018484611d1c565b50600161093260018055565b92915050565b600061093282611de0565b603354600160201b90046001600160a01b031633146109745760405162461bcd60e51b8152600401610658906130f0565b604e8190556040518181527fcc2c34a1adf0911114053f75b51b2b1f8fc9ef9e25f0a5f12f210032b5b0a1b290602001610692565b600060425460001415806109bd5750604554155b156109c85750600090565b60335460ff16156109ea57604e54603f546109e391906130c4565b4211905090565b604e54604c546041546109fd91906130c4565b6109e391906130c4565b60335462010000900460ff1615610a305760405162461bcd60e51b81526004016106589061312a565b60425415610a505760405162461bcd60e51b81526004016106589061310d565b6035546001600160a01b03163314610aef57610a6b3361192c565b603354600160201b90046001600160a01b03163314610ab557336000908152604760205260408120600101549003610ab55760405162461bcd60e51b815260040161065890613164565b610abd6109a9565b610aef5760405162461bcd60e51b815260206004820152600360248201526222a22960e91b6044820152606401610658565b426042556040517f46b9cd4891c2c9c48ba40bb38b2058575e06ecdaab42ec43bcb2574c4be226be90600090a1565b6001600160a01b038116600090815260476020526040812060018101548203610b4a5750600092915050565b60018101546001600160a01b0384166000908152604960205260408120549193505b81811015610c24576001600160a01b0385166000908152604960205260408120805483908110610b9e57610b9e613098565b600091825260209182902060408051606081018252600390930290910180548352600181015493830184905260020154908201819052909250610be19190613181565b6020820151610bf09042613181565b8251610bfc9190613194565b610c0691906131ab565b610c1090866130c4565b94505080610c1d906130d7565b9050610b6c565b505050919050565b600054610100900460ff1615808015610c4c5750600054600160ff909116105b80610c665750303b158015610c66575060005460ff166001145b610cc95760405162461bcd60e51b815260206004820152602e60248201527f496e697469616c697a61626c653a20636f6e747261637420697320616c72656160448201526d191e481a5b9a5d1a585b1a5e995960921b6064820152608401610658565b6000805460ff191660011790558015610cec576000805461ff0019166101001790555b610cf4611ec9565b610d048989898989898989611ef8565b8015610d4a576000805461ff0019169055604051600181527f7f26b83ff96e1f2b6a682f133852f6798a09c465da95921460cefb38474024989060200160405180910390a15b505050505050505050565b6041548015801590610d725750604c54610d6f90426130c4565b81105b1561076957604c54610d8490826130c4565b9050603f548111156107695750603f5490565b603354600160201b90046001600160a01b03163314610dc85760405162461bcd60e51b8152600401610658906130f0565b604c8190556040518181527f67a13d58848dff592b23439bd1f005cc5f94da61fb5e46295fe6dc6dd2b1bf1790602001610692565b603354600160201b90046001600160a01b03163314610e2e5760405162461bcd60e51b8152600401610658906130f0565b60425415610e4e5760405162461bcd60e51b81526004016106589061310d565b60335462010000900460ff1615610e775760405162461bcd60e51b81526004016106589061312a565b6033546301000000900460ff1615610eb75760405162461bcd60e51b81526020600482015260036024820152622920a960e91b6044820152606401610658565b604554600114610eef5760405162461bcd60e51b81526020600482015260036024820152622921a960e91b6044820152606401610658565b603d5442118015610f0e57506040805460009081526048602052205442115b8015610f285750604d54603f54610f259190613181565b42105b610f5a5760405162461bcd60e51b8152602060048201526003602482015262292a2960e91b6044820152606401610658565b6033805463ff000000191663010000001790556044546040517fc9fce8903c0374743352608574b0e3bfc73ce3af1d4f17bdd3a08045547a820890600090a2565b603354600090600160201b90046001600160a01b03163314610fcf5760405162461bcd60e51b8152600401610658906130f0565b610fd7611cc3565b603354610100900460ff1615610fff5760405162461bcd60e51b815260040161065890613147565b6033805461ff0019166101001790556040517f0a2faf0a3c3f5b47a50a6a353f0fe6478f470cb962e2045989e4bcbede93887c90600090a150600161076960018055565b604354600090815b818110156106225760008060006110886043858154811061106e5761106e613098565b6000918252602090912001546001600160a01b031661076c565b50919450925090508061109b83856130c4565b6110a591906130c4565b6110af90876130c4565b9550505050806110be906130d7565b905061104b565b603354600090600160201b90046001600160a01b031633146110f95760405162461bcd60e51b8152600401610658906130f0565b816001600160a01b0381166111365760405162461bcd60e51b81526020600482015260036024820152624e5a4160e81b6044820152606401610658565b604254156111565760405162461bcd60e51b81526004016106589061310d565b61115e611cc3565b61116783612034565b915061117260018055565b50919050565b603354600090600160201b90046001600160a01b031633146111ac5760405162461bcd60e51b8152600401610658906130f0565b6111b4611cc3565b603354610100900460ff16156111f25760405162461bcd60e51b815260206004820152600360248201526204f50560ec1b6044820152606401610658565b60008290036112295760405162461bcd60e51b815260206004820152600360248201526226262d60e91b6044820152606401610658565b61092660008484611d1c565b600061123f611cc3565b6112483361192c565b818060000361127f5760405162461bcd60e51b815260206004820152600360248201526216959360ea1b6044820152606401610658565b60335462010000900460ff16156112a85760405162461bcd60e51b81526004016106589061312a565b604254156112c85760405162461bcd60e51b81526004016106589061310d565b6112d28333612262565b9150506112de60018055565b919050565b60006301da9c0082604b546112f89190613194565b61093291906131ab565b6001600160a01b0381166000908152604760205260408120600181015482918291820361133a576000806000935093509350506113b7565b60335460ff16156113645761135885826004015483600201546119d5565b919550935091506113b5565b600061136e610d55565b9050600081421161137f5781611381565b425b905061139683600401548460020154836125c1565b90965094506113a487611de0565b93506113b084876130c4565b955050505b505b9193909250565b603554604080516363f7002f60e11b815290516000926001600160a01b03169163c7ee005e9160048083019260209291908290030181865afa158015611408573d6000803e3d6000fd5b505050506040513d601f19601f8201168201806040525081019061142c91906131cd565b905090565b603354600160201b90046001600160a01b031633146114625760405162461bcd60e51b8152600401610658906130f0565b604254156114825760405162461bcd60e51b81526004016106589061310d565b61148a611cc3565b60335460ff16156114c35760405162461bcd60e51b815260206004820152600360248201526213935360ea1b6044820152606401610658565b6114cb612629565b6114d460018055565b565b60006114e13361192c565b604254156115015760405162461bcd60e51b81526004016106589061310d565b60335462010000900460ff161561152a5760405162461bcd60e51b81526004016106589061312a565b3360009081526047602052604081206001015490036115715760405162461bcd60e51b815260206004820152600360248201526213169360ea1b6044820152606401610658565b336000908152604a602052604090205460ff16156115a15760405162461bcd60e51b815260040161065890613147565b603f5442106115d85760405162461bcd60e51b815260206004820152600360248201526211535160ea1b6044820152606401610658565b6033546301000000900460ff16156115f2576115f26126c3565b60468054906000611602836130d7565b90915550506040805180820182526001808252426020808401918252336000818152604a9092528582209451855460ff191690151517855591519390920192909255915190917fa64980a49b0572c7b3106aa75a1480ce0e6c5ce99caf11c0aacb03354173e03591a250600190565b603354600090600160201b90046001600160a01b031633146116a55760405162461bcd60e51b8152600401610658906130f0565b604254156116c55760405162461bcd60e51b81526004016106589061310d565b6116cd611cc3565b60435460005b8181101561171c5761170b604382815481106116f1576116f1613098565b6000918252602090912001546001600160a01b0316612034565b50611715816130d7565b90506116d3565b50600191505061076960018055565b6117343361192c565b60335462010000900460ff161561175d5760405162461bcd60e51b81526004016106589061312a565b6042541561177d5760405162461bcd60e51b81526004016106589061310d565b6033546301000000900460ff166117bc5760405162461bcd60e51b815260206004820152600360248201526241524d60e81b6044820152606401610658565b603f5442106117f35760405162461bcd60e51b8152602060048201526003602482015262292a2960e91b6044820152606401610658565b33600090815260476020526040812060018101549091036118265760405162461bcd60e51b815260040161065890613164565b6033805463ff0000001916905560448054906000611843836130d7565b9091555060408181558051808201909152603f54808252603e54602083019161186c91906130c4565b9052600082815260486020908152604090912082518155910151600190910155603854603e54670de0b6b3a7640000916118a591612708565b83600101546118b49190613194565b6118be91906131ab565b8260040160008282546118d191906130c4565b9091555050603e54603f80546000906118eb9084906130c4565b9091555050603f5460405190815281907f01d3e7d9e37a1ba8e45cd56d6778b3f9eea1dfc58752d6522349db020479de599060200160405180910390a25050565b6119346113be565b60405163288c314960e21b81526001600160a01b038381166004830152919091169063a230c52490602401602060405180830381865afa15801561197c573d6000803e3d6000fd5b505050506040513d601f19601f820116820180604052508101906119a091906131f8565b6119d25760405162461bcd60e51b81526020600482015260036024820152624e504d60e81b6044820152606401610658565b50565b600080600080603f549050603f544211156119f1575042611a3c565b6001600160a01b0387166000908152604a602052604090205460ff168015611a1a5750603f5442105b15611a3c5750603354429060ff16158015611a3457508085115b15611a3c5750835b611a478686836125c1565b9094509250611a5587611de0565b9150611a6182856130c4565b93505093509350939050565b6000603a54600003611a8157506000919050565b506001600160a01b03811660009081526047602090815260408083206003810154604a90935292205490919060ff168015611ad75750603e54603c54603d54611aca9190613181565b611ad491906130c4565b42105b15611b2a57600042603f54611aec9190613181565b9050670de0b6b3a7640000611b03603a5483612708565b8360010154611b129190613194565b611b1c91906131ab565b611b269084613181565b9250505b604454600114158015611b3e5750603b5415155b15611172576000670de0b6b3a7640000603b54670de0b6b3a7640000611b68603a54603e54612708565b8560010154611b779190613194565b611b8191906131ab565b611b8b9190613194565b611b9591906131ab565b6001600160a01b0385166000908152604a602052604090205490915060ff168015611bea5750600160005260486020527f149d903478f13b7f42654b0aa3a0f06ce2ec329315e01622f824555dff9970635442115b8015611bf75750603f5442105b15611c5a57603e54600160005260486020527f149d903478f13b7f42654b0aa3a0f06ce2ec329315e01622f824555dff99706354611c359042613181565b611c3f9083613194565b611c4991906131ab565b611c5390846130c4565b9250611c80565b6001604454611c699190613181565b611c739082613194565b611c7d90846130c4565b92505b5050919050565b6033805462ff00001916620100001790556040517f1cdde67b72a90f19919ac732a437ac2f7a10fc128d28c2a6e525d89ce5cd9d3a90600090a1565b600260015403611d155760405162461bcd60e51b815260206004820152601f60248201527f5265656e7472616e637947756172643a207265656e7472616e742063616c6c006044820152606401610658565b6002600155565b6014819003611d5757611d5283611d33848461272a565b600081518110611d4557611d45613098565b6020026020010151612808565b505050565b6000611d63838361272a565b8051909150603c811115611d9f5760405162461bcd60e51b815260206004820152600360248201526211505360ea1b6044820152606401610658565b60005b81811015611dd257611dc086848381518110611d4557611d45613098565b80611dca816130d7565b915050611da2565b505050505050565b60018055565b6001600160a01b038116600090815260476020526040812060018101548203611e0c5750600092915050565b60335460009060ff16611e3057604c548260020154611e2b91906130c4565b611e34565b603f545b60335490915060ff16158015611e4b5750603f5481115b15611e555750603f545b604254429015611e6457506042545b81811115611ebe576000611e7b6104f68484613181565b905080600003611e915750600095945050505050565b670de0b6b3a7640000846001015482611eaa9190613194565b611eb491906131ab565b9695505050505050565b506000949350505050565b600054610100900460ff16611ef05760405162461bcd60e51b815260040161065890613215565b6114d46128fb565b600054610100900460ff16611f1f5760405162461bcd60e51b815260040161065890613215565b60338054640100000000600160c01b031916600160201b6001600160a01b038b1602179055611f546040840160208501612f55565b603480546001600160a01b0319166001600160a01b039290921691909117905560408301356037556060830135603e55608083013560385560a0830135603c55611fa16020840184613260565b6033805460ff19169115159190911790556039879055603a869055603b859055604b84905562278d00604c556202a300604d556203f480604e5560448054600090611feb906130d7565b90915550603580546001600160a01b03191633179055600081900361201e576033805461ff00191661010017905561202a565b61202a60018383611d1c565b5050505050505050565b6001600160a01b0381166000908152604760205260408120600181015482036120605750600192915050565b60008060008061206f8761076c565b6001600160a01b038b166000908152604a60205260409020549397509195509350915060ff16156120bb576001600160a01b0387166000908152604a60205260409020805460ff191690555b604054156120c95760006040555b6040805185815260208101859052908101839052606081018290526001600160a01b038816907f4d717b642cf5faf5bf4c2e2dfa4d80e68dd08aa4530694c0a67fe5006a28caa49060800160405180910390a28460010154603660008282546121329190613181565b90915550506000600486018190556003860181905560018601819055426002870155604580549091906121649061327d565b909155506001600160a01b038716600090815260496020526040812061218991612ee5565b60365415801561219b575042603d5411155b156121a8576121a8611c87565b60006121b483856130c4565b9050801561223c5760345461223c906001600160a01b0316336121d56113be565b6001600160a01b03166361d027b36040518163ffffffff1660e01b8152600401602060405180830381865afa158015612212573d6000803e3d6000fd5b505050506040513d601f19601f8201168201806040525081019061223691906131cd565b84612922565b603454612254906001600160a01b0316338a88612922565b506001979650505050505050565b60006037548360365461227591906130c4565b11156122a95760405162461bcd60e51b81526020600482015260036024820152624f534560e81b6044820152606401610658565b6001600160a01b0382166000908152604760205260409020603354610100900460ff16156122e1576122dc83600161293d565b612307565b8054610100900460ff166123075760405162461bcd60e51b815260040161065890613164565b603d5460000361238b57603c5461231e90426130c4565b603d55603e5461232e90426130c4565b603f5560335460ff1661234057426041555b7f4867887a5b0bebacccb6e4c9c656b3a6b2fe478e226ea1fa5230d9b4bdabc26e603d54603f5460405161237e929190918252602082015260400190565b60405180910390a16123c3565b603d544211156123c35760405162461bcd60e51b815260206004820152600360248201526244574360e81b6044820152606401610658565b83603660008282546123d591906130c4565b90915550506001810154600003612400576045600081546123f5906130d7565b909155504260028201555b600042603f546124109190613181565b905060496000856001600160a01b03166001600160a01b031681526020019081526020016000206040518060600160405280670de0b6b3a764000061245760385486612708565b612461908a613194565b61246b91906131ab565b815242602080830191909152603f54604092830152835460018181018655600095865294829020845160039092020190815590830151938101939093550151600290910155603854670de0b6b3a7640000906124c79083612708565b6124d19087613194565b6124db91906131ab565b8260040160008282546124ee91906130c4565b92505081905550670de0b6b3a764000061250a603a5483612708565b6125149087613194565b61251e91906131ab565b82600301600082825461253191906130c4565b925050819055508482600101600082825461254c91906130c4565b90915550506040518581526001600160a01b038516907f26ff3f6dedac6d273c293b8c866e073f40896739d99ad513862fe7ba70cf63ca9060200160405180910390a26034546033546125b6916001600160a01b03908116918791600160201b9091041688612922565b506001949350505050565b60008083603f546125d29190613181565b6125dc8585613181565b6125e69087613194565b6125f091906131ab565b9150670de0b6b3a7640000603954836126099190613194565b61261391906131ab565b905061261f8183613181565b9150935093915050565b60415442116126605760405162461bcd60e51b815260206004820152600360248201526252544560e81b6044820152606401610658565b600061266a610d55565b60435490915060005b818110156126bc576126ac6043828154811061269157612691613098565b6000918252602090912001546001600160a01b031684612a7b565b6126b5816130d7565b9050612673565b5050604155565b6033805463ff000000191690556044546040513381527f5c34576b5e454f10dc4c9d9bd51b9c481a15af0738c70a740634b1ce47dc36379060200160405180910390a2565b60006301da9c006127198385613194565b61272391906131ab565b9392505050565b606060006127396014846131ab565b90508067ffffffffffffffff81111561275457612754613294565b60405190808252806020026020018201604052801561277d578160200160208202803683370190505b50915060005b81811015612800576127c4858561279b846014613194565b906127a78560016130c4565b6127b2906014613194565b926127bf939291906132aa565b612bfb565b8382815181106127d6576127d6613098565b6001600160a01b0390921660209283029190910190910152806127f8816130d7565b915050612783565b505092915050565b6128118161192c565b6001600160a01b0381166000908152604760205260409020821561289857805460ff166128485761284382600161293d565b612856565b805461ff0019166101001781555b6040516001600160a01b03831681527feafaba2a6f658ac7632689fd61982a1c5387c8437e5ff730560eb63d3c935ed1906020015b60405180910390a1505050565b805460ff166128b95760405162461bcd60e51b815260040161065890613164565b805461ff00191681556040516001600160a01b03831681527f646f70a08891433fa5fa07bd0874c798dfc78b4b8be5b9db947619f1cc9df3a39060200161288b565b600054610100900460ff16611dda5760405162461bcd60e51b815260040161065890613215565b6129376001600160a01b038516848484612c40565b50505050565b6001600160a01b03821660009081526047602052604090205460ff16612a77576033546001600160a01b03808416600160201b90920416036129a75760405162461bcd60e51b8152602060048201526003602482015262424c5360e81b6044820152606401610658565b6040805160c081018252600180825283151560208084019182526000848601818152606086018281526080870183815260a088018481526001600160a01b038c16808652604790965298842097518854965161ffff1990971690151561ff00191617610100961515969096029590951787559051868601555160028601559151600385015593516004909301929092556043805491820181559091527f9690ad99d6ce244efa8a0f6c2d04036d3b33a9474db32a71b71135c6951027930180546001600160a01b03191690911790555b5050565b6001600160a01b03821660009081526047602052604081206001810154909103612aa457505050565b6000806000612ab286611302565b9250925092508360020154603f54612aca9190613181565b6002850154612ad99087613181565b8560040154612ae89190613194565b612af291906131ab565b846004016000828254612b059190613181565b90915550506002840185905560408051848152602081018490529081018290526001600160a01b038716907f4b17857dbdcd87f2659c612a7f181d1c2ff8f5f2d77a3d4fe275f559c94351b29060600160405180910390a28115612be357603454612be3906001600160a01b031633612b7c6113be565b6001600160a01b03166361d027b36040518163ffffffff1660e01b8152600401602060405180830381865afa158015612bb9573d6000803e3d6000fd5b505050506040513d601f19601f82011682018060405250810190612bdd91906131cd565b85612922565b603454611dd2906001600160a01b0316338886612922565b60008083838080601f01602080910402602001604051908101604052809392919081815260200183838082843760009201919091525050505060140151949350505050565b604080516001600160a01b038581166024830152848116604483015260648083018590528351808403909101815260849092018352602080830180516001600160e01b03166323b872dd60e01b17905283518085019094528084527f5361666545524332303a206c6f772d6c6576656c2063616c6c206661696c65649084015261293792879291600091612cd8918516908490612d55565b805190915015611d525780806020019051810190612cf691906131f8565b611d525760405162461bcd60e51b815260206004820152602a60248201527f5361666545524332303a204552433230206f7065726174696f6e20646964206e6044820152691bdd081cdd58d8d9595960b21b6064820152608401610658565b6060612d648484600085612d6c565b949350505050565b606082471015612dcd5760405162461bcd60e51b815260206004820152602660248201527f416464726573733a20696e73756666696369656e742062616c616e636520666f6044820152651c8818d85b1b60d21b6064820152608401610658565b600080866001600160a01b03168587604051612de991906132f8565b60006040518083038185875af1925050503d8060008114612e26576040519150601f19603f3d011682016040523d82523d6000602084013e612e2b565b606091505b5091509150612e3c87838387612e47565b979650505050505050565b60608315612eb6578251600003612eaf576001600160a01b0385163b612eaf5760405162461bcd60e51b815260206004820152601d60248201527f416464726573733a2063616c6c20746f206e6f6e2d636f6e74726163740000006044820152606401610658565b5081612d64565b612d648383815115612ecb5781518083602001fd5b8060405162461bcd60e51b81526004016106589190613314565b50805460008255600302906000526020600020908101906119d291905b80821115612f23576000808255600182018190556002820155600301612f02565b5090565b600060208284031215612f3957600080fd5b5035919050565b6001600160a01b03811681146119d257600080fd5b600060208284031215612f6757600080fd5b813561272381612f40565b60008083601f840112612f8457600080fd5b50813567ffffffffffffffff811115612f9c57600080fd5b602083019150836020828501011115612fb457600080fd5b9250929050565b60008060208385031215612fce57600080fd5b823567ffffffffffffffff811115612fe557600080fd5b612ff185828601612f72565b90969095509350505050565b600080600080600080600080888a0361018081121561301b57600080fd5b893561302681612f40565b985060208a0135975060408a0135965060608a0135955060808a0135945060c0609f198201121561305657600080fd5b5060a08901925061016089013567ffffffffffffffff81111561307857600080fd5b6130848b828c01612f72565b999c989b5096995094979396929594505050565b634e487b7160e01b600052603260045260246000fd5b634e487b7160e01b600052601160045260246000fd5b80820180821115610932576109326130ae565b6000600182016130e9576130e96130ae565b5060010190565b6020808252600390820152622721a960e91b604082015260600190565b60208082526003908201526214111160ea1b604082015260600190565b6020808252600390820152624f414360e81b604082015260600190565b60208082526003908201526210505160ea1b604082015260600190565b60208082526003908201526224a6a160e91b604082015260600190565b81810381811115610932576109326130ae565b8082028115828204841417610932576109326130ae565b6000826131c857634e487b7160e01b600052601260045260246000fd5b500490565b6000602082840312156131df57600080fd5b815161272381612f40565b80151581146119d257600080fd5b60006020828403121561320a57600080fd5b8151612723816131ea565b6020808252602b908201527f496e697469616c697a61626c653a20636f6e7472616374206973206e6f74206960408201526a6e697469616c697a696e6760a81b606082015260800190565b60006020828403121561327257600080fd5b8135612723816131ea565b60008161328c5761328c6130ae565b506000190190565b634e487b7160e01b600052604160045260246000fd5b600080858511156132ba57600080fd5b838611156132c757600080fd5b5050820193919092039150565b60005b838110156132ef5781810151838201526020016132d7565b50506000910152565b6000825161330a8184602087016132d4565b9190910192915050565b60208152600082518060208401526133338160408501602087016132d4565b601f01601f1916919091016040019291505056fea264697066735822122047b9772d74631abb4fe067af474f656c894e23000044476b0d56a45cd63a976364736f6c63430008110033",
  "devdoc": {
    "kind": "dev",
    "methods": {
      "__Pool_init(address,uint256,uint256,uint256,uint256,(bool,address,uint256,uint256,uint256,uint256),bytes)": {
        "details": "This function is called only once during the pool creation",
        "params": {
          "_borrower": "- Pool borrower address",
          "_incrementPerRoll": "- Pool rolling increment rate of origination fee",
          "_members": "- Pool members (lenders) addresses encoded in bytes",
          "_originationRate": "- Pool origination fee rate",
          "_penaltyRatePerYear": "- Pool penalty rate calculated for 1 year",
          "_poolData": "- Pool data struct: asset, size, tenor, rateMantissa, depositWindow",
          "_spreadRate": "- Pool protocol spread rate"
        }
      },
      "acceptRoll()": {
        "details": "Can be called only by the whitelisted Prime lenders"
      },
      "balanceOf(address)": {
        "params": {
          "lender": "- The address of the lender"
        },
        "returns": {
          "balance": "interestAccrued - Accrued amount until today"
        }
      },
      "blacklistLenders(bytes)": {
        "details": "Can be called only by the borrower",
        "params": {
          "lenders": "- Lenders addresses encoded in bytes"
        }
      },
      "canBeDefaulted()": {
        "returns": {
          "isAbleToDefault": "True if the pool can be defaulted"
        }
      },
      "cancelCallBack()": {
        "details": "Can be called only by the whitelisted Prime lenders",
        "returns": {
          "success": "- True if the callback is cancelled by the lender"
        }
      },
      "close()": {
        "details": "Can be called only by the borrower",
        "returns": {
          "success": "- True if the pool is closed"
        }
      },
      "dueInterestOf(address)": {
        "params": {
          "lender": "The lender address"
        },
        "returns": {
          "due": "The interest amount",
          "penalty": "The penalty amount",
          "spreadFee": "The spread amount"
        }
      },
      "dueOf(address)": {
        "params": {
          "lender": "- The address of the lender"
        },
        "returns": {
          "due": "- Due amount for repayment",
          "originationFee": "- Origination protocol fee",
          "penalty": "- Penalty fee",
          "spreadFee": "- Protocol spread fee"
        }
      },
      "getNextPaymentTimestamp()": {
        "returns": {
          "payableToTimestamp": "- The timestamp of the next payment"
        }
      },
      "lend(uint256)": {
        "details": "Can be called only by the whitelisted Prime lenders",
        "params": {
          "amount": "- Amount of funds to lend"
        },
        "returns": {
          "success": "- True if the funds are lent"
        }
      },
      "markPoolDefaulted()": {
        "details": "Can be called only by lender or borrower if time conditions are metCan be called by governor without time conditions"
      },
      "penaltyOf(address)": {
        "params": {
          "lender": "- The address of the lender"
        },
        "returns": {
          "penalty": "penaltyFee - Penalty fee"
        }
      },
      "penaltyRate(uint256)": {
        "params": {
          "interval": "The interval in seconds"
        },
        "returns": {
          "_0": "The penalty rate as a mantissa between [0, 1e18]"
        }
      },
      "prime()": {
        "details": "Prime converted as IPrime interface",
        "returns": {
          "primeInstance": "- Prime address"
        }
      },
      "repay(address)": {
        "details": "Can be called only by the borrower",
        "params": {
          "lender": "- Lender address"
        },
        "returns": {
          "success": "- True if the lender is repaid"
        }
      },
      "repayAll()": {
        "details": "Can be called only by the borrower",
        "returns": {
          "success": "- True if all lenders are repaid"
        }
      },
      "repayInterest()": {
        "details": "Can be called only by the borrower in monthly loans"
      },
      "requestCallBack()": {
        "details": "Can be called only by the whitelisted Prime lenders",
        "returns": {
          "success": "- True if the callback is created by the lender"
        }
      },
      "requestRoll()": {
        "details": "Can be called only by the borrower"
      },
      "switchToPublic()": {
        "details": "Can be called only by the borrower",
        "returns": {
          "success": "- True if the pool is converted to public"
        }
      },
      "totalDue()": {
        "returns": {
          "totalDueAmount": "- Total due amount for repayment"
        }
      },
      "totalDueInterest()": {
        "returns": {
          "totalInterest": "The interest amount"
        }
      },
      "whitelistLenders(bytes)": {
        "details": "Can be called only by the borrower",
        "params": {
          "lenders": "- Lenders addresses encoded in bytes"
        }
      }
    },
    "version": 1
  },
  "userdoc": {
    "events": {
      "Activated(uint256,uint256)": {
        "notice": "Emitted when the pool is activated"
      },
      "CallbackCancelled(address)": {
        "notice": "Emitted when callback is cancelled"
      },
      "CallbackCreated(address)": {
        "notice": "Emitted when callback is created"
      },
      "Closed()": {
        "notice": "Emitted when the pool is closed"
      },
      "ConvertedToPublic()": {
        "notice": "Emitted when pool is converted to public"
      },
      "Defaulted()": {
        "notice": "Emitted when pool is defaulted"
      },
      "LenderBlacklisted(address)": {
        "notice": "Emitted when lender is removed from the pool"
      },
      "LenderWhitelisted(address)": {
        "notice": "Emitted when new lender is added to the pool"
      },
      "Lent(address,uint256)": {
        "notice": "Emitted when funds are lent to the pool"
      },
      "Repayed(address,uint256,uint256,uint256,uint256)": {
        "notice": "Emitted when lender is fully repayed"
      },
      "RepayedInterest(address,uint256,uint256,uint256)": {
        "notice": "Emitted when interest is repayed to the lender"
      },
      "RollAccepted(uint256,uint256)": {
        "notice": "Emitted when the pool is rolled"
      },
      "RollRejected(uint256,address)": {
        "notice": "Emitted when the roll is rejected"
      },
      "RollRequested(uint256)": {
        "notice": "Emitted when the roll is requested"
      }
    },
    "kind": "user",
    "methods": {
      "YEAR()": {
        "notice": "Standart year in seconds"
      },
      "__Pool_init(address,uint256,uint256,uint256,uint256,(bool,address,uint256,uint256,uint256,uint256),bytes)": {
        "notice": "Initialize the pool"
      },
      "acceptRoll()": {
        "notice": "Accepts the roll"
      },
      "activeRollId()": {
        "notice": "Pool active roll id"
      },
      "asset()": {
        "notice": "Asset address of the pool"
      },
      "balanceOf(address)": {
        "notice": "Calculates the accrued amount until today, excluding penalty"
      },
      "blacklistLenders(bytes)": {
        "notice": "Blacklists lenders"
      },
      "borrower()": {
        "notice": "Pool borrower address"
      },
      "canBeDefaulted()": {
        "notice": "Checks if the pool can be defaulted by borrower or lender"
      },
      "cancelCallBack()": {
        "notice": "Cancels the callback"
      },
      "close()": {
        "notice": "Closes the pool"
      },
      "currentSize()": {
        "notice": "Pool current size"
      },
      "defaultedAt()": {
        "notice": "If pool is defaulted, this is the timestamp of the default"
      },
      "depositMaturity()": {
        "notice": "Pool deposit maturity"
      },
      "depositWindow()": {
        "notice": "Pool deposit window (in seconds)"
      },
      "dueInterestOf(address)": {
        "notice": "Calculates the total interest and penalty for the next payment to the lender"
      },
      "dueOf(address)": {
        "notice": "Calculates the due amount for repayment including interestAccrued, penalty fee and spread for the lender"
      },
      "factory()": {
        "notice": "Pool factory address"
      },
      "getNextPaymentTimestamp()": {
        "notice": "Calculates the next payment timestamp for the borrower"
      },
      "incrementPerRoll()": {
        "notice": "Pool rolling increment fee rate"
      },
      "isBulletLoan()": {
        "notice": "Pool repayment option. Bullet loan or monthly repayment"
      },
      "isClosed()": {
        "notice": "Pool availability status"
      },
      "isPublic()": {
        "notice": "Pool publicity status"
      },
      "isRollRequested()": {
        "notice": "Roll request status"
      },
      "lastPaidTimestamp()": {
        "notice": "The last timestamp at which a payment was made or received in monthly repayment pool."
      },
      "lend(uint256)": {
        "notice": "Lends funds to the pool"
      },
      "markPoolDefaulted()": {
        "notice": "Defaults the pool"
      },
      "maturityDate()": {
        "notice": "Pool maturity date"
      },
      "maxSize()": {
        "notice": "Pool maximum size"
      },
      "originationRate()": {
        "notice": "Origination fee rate"
      },
      "penaltyOf(address)": {
        "notice": "When maturity date passed, calculates the penalty fee for the lender"
      },
      "penaltyRate(uint256)": {
        "notice": "Calculates the penalty rate for a given interval"
      },
      "penaltyRatePerYear()": {
        "notice": "Pool penalty rate calculated for 1 year"
      },
      "prime()": {
        "notice": "Returns Prime address"
      },
      "rateMantissa()": {
        "notice": "Pool interest rate (in mantissa)"
      },
      "repay(address)": {
        "notice": "Fully repays the lender with the principal and interest"
      },
      "repayAll()": {
        "notice": "Repays all lenders with the principal and interest"
      },
      "repayInterest()": {
        "notice": "Repays interest to the lender"
      },
      "requestCallBack()": {
        "notice": "Creates the callback"
      },
      "requestRoll()": {
        "notice": "Requests the roll"
      },
      "spreadRate()": {
        "notice": "Protocol spread rate"
      },
      "switchToPublic()": {
        "notice": "Converts the pool to public"
      },
      "tenor()": {
        "notice": "Pool tenor"
      },
      "totalDue()": {
        "notice": "Calculates the total due amount for repayment including interestAccrued, penalty fee and spread for all lenders"
      },
      "totalDueInterest()": {
        "notice": "Calculates the total interest and penalty amount for the next payment for all lenders"
      },
      "whitelistLenders(bytes)": {
        "notice": "Whitelists lenders"
      }
    },
    "version": 1
  },
  "storageLayout": {
    "storage": [
      {
        "astId": 138,
        "contract": "contracts/mock/PoolHarness.sol:PoolHarness",
        "label": "_initialized",
        "offset": 0,
        "slot": "0",
        "type": "t_uint8"
      },
      {
        "astId": 141,
        "contract": "contracts/mock/PoolHarness.sol:PoolHarness",
        "label": "_initializing",
        "offset": 1,
        "slot": "0",
        "type": "t_bool"
      },
      {
        "astId": 314,
        "contract": "contracts/mock/PoolHarness.sol:PoolHarness",
        "label": "_status",
        "offset": 0,
        "slot": "1",
        "type": "t_uint256"
      },
      {
        "astId": 372,
        "contract": "contracts/mock/PoolHarness.sol:PoolHarness",
        "label": "__gap",
        "offset": 0,
        "slot": "2",
        "type": "t_array(t_uint256)49_storage"
      },
      {
        "astId": 6478,
        "contract": "contracts/mock/PoolHarness.sol:PoolHarness",
        "label": "isBulletLoan",
        "offset": 0,
        "slot": "51",
        "type": "t_bool"
      },
      {
        "astId": 6481,
        "contract": "contracts/mock/PoolHarness.sol:PoolHarness",
        "label": "isPublic",
        "offset": 1,
        "slot": "51",
        "type": "t_bool"
      },
      {
        "astId": 6484,
        "contract": "contracts/mock/PoolHarness.sol:PoolHarness",
        "label": "isClosed",
        "offset": 2,
        "slot": "51",
        "type": "t_bool"
      },
      {
        "astId": 6487,
        "contract": "contracts/mock/PoolHarness.sol:PoolHarness",
        "label": "isRollRequested",
        "offset": 3,
        "slot": "51",
        "type": "t_bool"
      },
      {
        "astId": 6490,
        "contract": "contracts/mock/PoolHarness.sol:PoolHarness",
        "label": "borrower",
        "offset": 4,
        "slot": "51",
        "type": "t_address"
      },
      {
        "astId": 6493,
        "contract": "contracts/mock/PoolHarness.sol:PoolHarness",
        "label": "asset",
        "offset": 0,
        "slot": "52",
        "type": "t_address"
      },
      {
        "astId": 6497,
        "contract": "contracts/mock/PoolHarness.sol:PoolHarness",
        "label": "factory",
        "offset": 0,
        "slot": "53",
        "type": "t_contract(IPoolFactory)6438"
      },
      {
        "astId": 6500,
        "contract": "contracts/mock/PoolHarness.sol:PoolHarness",
        "label": "currentSize",
        "offset": 0,
        "slot": "54",
        "type": "t_uint256"
      },
      {
        "astId": 6503,
        "contract": "contracts/mock/PoolHarness.sol:PoolHarness",
        "label": "maxSize",
        "offset": 0,
        "slot": "55",
        "type": "t_uint256"
      },
      {
        "astId": 6506,
        "contract": "contracts/mock/PoolHarness.sol:PoolHarness",
        "label": "rateMantissa",
        "offset": 0,
        "slot": "56",
        "type": "t_uint256"
      },
      {
        "astId": 6509,
        "contract": "contracts/mock/PoolHarness.sol:PoolHarness",
        "label": "spreadRate",
        "offset": 0,
        "slot": "57",
        "type": "t_uint256"
      },
      {
        "astId": 6512,
        "contract": "contracts/mock/PoolHarness.sol:PoolHarness",
        "label": "originationRate",
        "offset": 0,
        "slot": "58",
        "type": "t_uint256"
      },
      {
        "astId": 6515,
        "contract": "contracts/mock/PoolHarness.sol:PoolHarness",
        "label": "incrementPerRoll",
        "offset": 0,
        "slot": "59",
        "type": "t_uint256"
      },
      {
        "astId": 6518,
        "contract": "contracts/mock/PoolHarness.sol:PoolHarness",
        "label": "depositWindow",
        "offset": 0,
        "slot": "60",
        "type": "t_uint256"
      },
      {
        "astId": 6521,
        "contract": "contracts/mock/PoolHarness.sol:PoolHarness",
        "label": "depositMaturity",
        "offset": 0,
        "slot": "61",
        "type": "t_uint256"
      },
      {
        "astId": 6524,
        "contract": "contracts/mock/PoolHarness.sol:PoolHarness",
        "label": "tenor",
        "offset": 0,
        "slot": "62",
        "type": "t_uint256"
      },
      {
        "astId": 6527,
        "contract": "contracts/mock/PoolHarness.sol:PoolHarness",
        "label": "maturityDate",
        "offset": 0,
        "slot": "63",
        "type": "t_uint256"
      },
      {
        "astId": 6530,
        "contract": "contracts/mock/PoolHarness.sol:PoolHarness",
        "label": "activeRollId",
        "offset": 0,
        "slot": "64",
        "type": "t_uint256"
      },
      {
        "astId": 6533,
        "contract": "contracts/mock/PoolHarness.sol:PoolHarness",
        "label": "lastPaidTimestamp",
        "offset": 0,
        "slot": "65",
        "type": "t_uint256"
      },
      {
        "astId": 6536,
        "contract": "contracts/mock/PoolHarness.sol:PoolHarness",
        "label": "defaultedAt",
        "offset": 0,
        "slot": "66",
        "type": "t_uint256"
      },
      {
        "astId": 6540,
        "contract": "contracts/mock/PoolHarness.sol:PoolHarness",
        "label": "_lenders",
        "offset": 0,
        "slot": "67",
        "type": "t_array(t_address)dyn_storage"
      },
      {
        "astId": 6543,
        "contract": "contracts/mock/PoolHarness.sol:PoolHarness",
        "label": "_nextRollId",
        "offset": 0,
        "slot": "68",
        "type": "t_uint256"
      },
      {
        "astId": 6546,
        "contract": "contracts/mock/PoolHarness.sol:PoolHarness",
        "label": "_activeLendersCount",
        "offset": 0,
        "slot": "69",
        "type": "t_uint256"
      },
      {
        "astId": 6549,
        "contract": "contracts/mock/PoolHarness.sol:PoolHarness",
        "label": "_activeCallbacksCount",
        "offset": 0,
        "slot": "70",
        "type": "t_uint256"
      },
      {
        "astId": 6555,
        "contract": "contracts/mock/PoolHarness.sol:PoolHarness",
        "label": "poolMembers",
        "offset": 0,
        "slot": "71",
        "type": "t_mapping(t_address,t_struct(Member)6213_storage)"
      },
      {
        "astId": 6561,
        "contract": "contracts/mock/PoolHarness.sol:PoolHarness",
        "label": "_poolRolls",
        "offset": 0,
        "slot": "72",
        "type": "t_mapping(t_uint256,t_struct(Roll)6218_storage)"
      },
      {
        "astId": 6568,
        "contract": "contracts/mock/PoolHarness.sol:PoolHarness",
        "label": "_lenderPositions",
        "offset": 0,
        "slot": "73",
        "type": "t_mapping(t_address,t_array(t_struct(Position)6230_storage)dyn_storage)"
      },
      {
        "astId": 6574,
        "contract": "contracts/mock/PoolHarness.sol:PoolHarness",
        "label": "_poolCallbacks",
        "offset": 0,
        "slot": "74",
        "type": "t_mapping(t_address,t_struct(CallBack)6223_storage)"
      },
      {
        "astId": 6577,
        "contract": "contracts/mock/PoolHarness.sol:PoolHarness",
        "label": "penaltyRatePerYear",
        "offset": 0,
        "slot": "75",
        "type": "t_uint256"
      },
      {
        "astId": 6580,
        "contract": "contracts/mock/PoolHarness.sol:PoolHarness",
        "label": "monthlyPaymentRoundDuration",
        "offset": 0,
        "slot": "76",
        "type": "t_uint256"
      },
      {
        "astId": 6583,
        "contract": "contracts/mock/PoolHarness.sol:PoolHarness",
        "label": "rollRangeDuration",
        "offset": 0,
        "slot": "77",
        "type": "t_uint256"
      },
      {
        "astId": 6586,
        "contract": "contracts/mock/PoolHarness.sol:PoolHarness",
        "label": "gracePeriodDuration",
        "offset": 0,
        "slot": "78",
        "type": "t_uint256"
      }
    ],
    "types": {
      "t_address": {
        "encoding": "inplace",
        "label": "address",
        "numberOfBytes": "20"
      },
      "t_array(t_address)dyn_storage": {
        "base": "t_address",
        "encoding": "dynamic_array",
        "label": "address[]",
        "numberOfBytes": "32"
      },
      "t_array(t_struct(Position)6230_storage)dyn_storage": {
        "base": "t_struct(Position)6230_storage",
        "encoding": "dynamic_array",
        "label": "struct IPool.Position[]",
        "numberOfBytes": "32"
      },
      "t_array(t_uint256)49_storage": {
        "base": "t_uint256",
        "encoding": "inplace",
        "label": "uint256[49]",
        "numberOfBytes": "1568"
      },
      "t_bool": {
        "encoding": "inplace",
        "label": "bool",
        "numberOfBytes": "1"
      },
      "t_contract(IPoolFactory)6438": {
        "encoding": "inplace",
        "label": "contract IPoolFactory",
        "numberOfBytes": "20"
      },
      "t_mapping(t_address,t_array(t_struct(Position)6230_storage)dyn_storage)": {
        "encoding": "mapping",
        "key": "t_address",
        "label": "mapping(address => struct IPool.Position[])",
        "numberOfBytes": "32",
        "value": "t_array(t_struct(Position)6230_storage)dyn_storage"
      },
      "t_mapping(t_address,t_struct(CallBack)6223_storage)": {
        "encoding": "mapping",
        "key": "t_address",
        "label": "mapping(address => struct IPool.CallBack)",
        "numberOfBytes": "32",
        "value": "t_struct(CallBack)6223_storage"
      },
      "t_mapping(t_address,t_struct(Member)6213_storage)": {
        "encoding": "mapping",
        "key": "t_address",
        "label": "mapping(address => struct IPool.Member)",
        "numberOfBytes": "32",
        "value": "t_struct(Member)6213_storage"
      },
      "t_mapping(t_uint256,t_struct(Roll)6218_storage)": {
        "encoding": "mapping",
        "key": "t_uint256",
        "label": "mapping(uint256 => struct IPool.Roll)",
        "numberOfBytes": "32",
        "value": "t_struct(Roll)6218_storage"
      },
      "t_struct(CallBack)6223_storage": {
        "encoding": "inplace",
        "label": "struct IPool.CallBack",
        "members": [
          {
            "astId": 6220,
            "contract": "contracts/mock/PoolHarness.sol:PoolHarness",
            "label": "isCreated",
            "offset": 0,
            "slot": "0",
            "type": "t_bool"
          },
          {
            "astId": 6222,
            "contract": "contracts/mock/PoolHarness.sol:PoolHarness",
            "label": "timestamp",
            "offset": 0,
            "slot": "1",
            "type": "t_uint256"
          }
        ],
        "numberOfBytes": "64"
      },
      "t_struct(Member)6213_storage": {
        "encoding": "inplace",
        "label": "struct IPool.Member",
        "members": [
          {
            "astId": 6202,
            "contract": "contracts/mock/PoolHarness.sol:PoolHarness",
            "label": "isCreated",
            "offset": 0,
            "slot": "0",
            "type": "t_bool"
          },
          {
            "astId": 6204,
            "contract": "contracts/mock/PoolHarness.sol:PoolHarness",
            "label": "isWhitelisted",
            "offset": 1,
            "slot": "0",
            "type": "t_bool"
          },
          {
            "astId": 6206,
            "contract": "contracts/mock/PoolHarness.sol:PoolHarness",
            "label": "principal",
            "offset": 0,
            "slot": "1",
            "type": "t_uint256"
          },
          {
            "astId": 6208,
            "contract": "contracts/mock/PoolHarness.sol:PoolHarness",
            "label": "accrualTs",
            "offset": 0,
            "slot": "2",
            "type": "t_uint256"
          },
          {
            "astId": 6210,
            "contract": "contracts/mock/PoolHarness.sol:PoolHarness",
            "label": "totalOriginationFee",
            "offset": 0,
            "slot": "3",
            "type": "t_uint256"
          },
          {
            "astId": 6212,
            "contract": "contracts/mock/PoolHarness.sol:PoolHarness",
            "label": "totalInterest",
            "offset": 0,
            "slot": "4",
            "type": "t_uint256"
          }
        ],
        "numberOfBytes": "160"
      },
      "t_struct(Position)6230_storage": {
        "encoding": "inplace",
        "label": "struct IPool.Position",
        "members": [
          {
            "astId": 6225,
            "contract": "contracts/mock/PoolHarness.sol:PoolHarness",
            "label": "interest",
            "offset": 0,
            "slot": "0",
            "type": "t_uint256"
          },
          {
            "astId": 6227,
            "contract": "contracts/mock/PoolHarness.sol:PoolHarness",
            "label": "startAt",
            "offset": 0,
            "slot": "1",
            "type": "t_uint256"
          },
          {
            "astId": 6229,
            "contract": "contracts/mock/PoolHarness.sol:PoolHarness",
            "label": "endAt",
            "offset": 0,
            "slot": "2",
            "type": "t_uint256"
          }
        ],
        "numberOfBytes": "96"
      },
      "t_struct(Roll)6218_storage": {
        "encoding": "inplace",
        "label": "struct IPool.Roll",
        "members": [
          {
            "astId": 6215,
            "contract": "contracts/mock/PoolHarness.sol:PoolHarness",
            "label": "startDate",
            "offset": 0,
            "slot": "0",
            "type": "t_uint256"
          },
          {
            "astId": 6217,
            "contract": "contracts/mock/PoolHarness.sol:PoolHarness",
            "label": "endDate",
            "offset": 0,
            "slot": "1",
            "type": "t_uint256"
          }
        ],
        "numberOfBytes": "64"
      },
      "t_uint256": {
        "encoding": "inplace",
        "label": "uint256",
        "numberOfBytes": "32"
      },
      "t_uint8": {
        "encoding": "inplace",
        "label": "uint8",
        "numberOfBytes": "1"
      }
    }
  }
}