{
  "address": "0xC968701912cC6Ef0b7d4A8C7C73752D8d9e4E448",
  "abi": [
    {
      "inputs": [],
      "stateMutability": "nonpayable",
      "type": "constructor"
    },
    {
      "anonymous": false,
      "inputs": [
        {
          "indexed": false,
          "internalType": "uint256",
          "name": "depositMaturity",
          "type": "uint256"
        },
        {
          "indexed": false,
          "internalType": "uint256",
          "name": "maturityDate",
          "type": "uint256"
        }
      ],
      "name": "Activated",
      "type": "event"
    },
    {
      "anonymous": false,
      "inputs": [
        {
          "indexed": true,
          "internalType": "address",
          "name": "lender",
          "type": "address"
        }
      ],
      "name": "CallbackCancelled",
      "type": "event"
    },
    {
      "anonymous": false,
      "inputs": [
        {
          "indexed": true,
          "internalType": "address",
          "name": "lender",
          "type": "address"
        }
      ],
      "name": "CallbackCreated",
      "type": "event"
    },
    {
      "anonymous": false,
      "inputs": [],
      "name": "Closed",
      "type": "event"
    },
    {
      "anonymous": false,
      "inputs": [],
      "name": "ConvertedToPublic",
      "type": "event"
    },
    {
      "anonymous": false,
      "inputs": [],
      "name": "Defaulted",
      "type": "event"
    },
    {
      "anonymous": false,
      "inputs": [
        {
          "indexed": false,
          "internalType": "uint8",
          "name": "version",
          "type": "uint8"
        }
      ],
      "name": "Initialized",
      "type": "event"
    },
    {
      "anonymous": false,
      "inputs": [
        {
          "indexed": false,
          "internalType": "address",
          "name": "lender",
          "type": "address"
        }
      ],
      "name": "LenderBlacklisted",
      "type": "event"
    },
    {
      "anonymous": false,
      "inputs": [
        {
          "indexed": false,
          "internalType": "address",
          "name": "lender",
          "type": "address"
        }
      ],
      "name": "LenderWhitelisted",
      "type": "event"
    },
    {
      "anonymous": false,
      "inputs": [
        {
          "indexed": true,
          "internalType": "address",
          "name": "lender",
          "type": "address"
        },
        {
          "indexed": false,
          "internalType": "uint256",
          "name": "amount",
          "type": "uint256"
        }
      ],
      "name": "Lent",
      "type": "event"
    },
    {
      "anonymous": false,
      "inputs": [
        {
          "indexed": true,
          "internalType": "address",
          "name": "lender",
          "type": "address"
        },
        {
          "indexed": false,
          "internalType": "uint256",
          "name": "repayed",
          "type": "uint256"
        },
        {
          "indexed": false,
          "internalType": "uint256",
          "name": "spreadFee",
          "type": "uint256"
        },
        {
          "indexed": false,
          "internalType": "uint256",
          "name": "originationFee",
          "type": "uint256"
        },
        {
          "indexed": false,
          "internalType": "uint256",
          "name": "penalty",
          "type": "uint256"
        }
      ],
      "name": "Repayed",
      "type": "event"
    },
    {
      "anonymous": false,
      "inputs": [
        {
          "indexed": true,
          "internalType": "address",
          "name": "lender",
          "type": "address"
        },
        {
          "indexed": false,
          "internalType": "uint256",
          "name": "repayed",
          "type": "uint256"
        },
        {
          "indexed": false,
          "internalType": "uint256",
          "name": "spreadFee",
          "type": "uint256"
        },
        {
          "indexed": false,
          "internalType": "uint256",
          "name": "penalty",
          "type": "uint256"
        }
      ],
      "name": "RepayedInterest",
      "type": "event"
    },
    {
      "anonymous": false,
      "inputs": [
        {
          "indexed": true,
          "internalType": "uint256",
          "name": "rollId",
          "type": "uint256"
        },
        {
          "indexed": false,
          "internalType": "uint256",
          "name": "newMaturity",
          "type": "uint256"
        }
      ],
      "name": "RollAccepted",
      "type": "event"
    },
    {
      "anonymous": false,
      "inputs": [
        {
          "indexed": true,
          "internalType": "uint256",
          "name": "rollId",
          "type": "uint256"
        },
        {
          "indexed": false,
          "internalType": "address",
          "name": "user",
          "type": "address"
        }
      ],
      "name": "RollRejected",
      "type": "event"
    },
    {
      "anonymous": false,
      "inputs": [
        {
          "indexed": true,
          "internalType": "uint256",
          "name": "rollId",
          "type": "uint256"
        }
      ],
      "name": "RollRequested",
      "type": "event"
    },
    {
      "inputs": [],
      "name": "YEAR",
      "outputs": [
        {
          "internalType": "uint256",
          "name": "",
          "type": "uint256"
        }
      ],
      "stateMutability": "view",
      "type": "function"
    },
    {
      "inputs": [
        {
          "internalType": "address",
          "name": "_borrower",
          "type": "address"
        },
        {
          "internalType": "uint256",
          "name": "_spreadRate",
          "type": "uint256"
        },
        {
          "internalType": "uint256",
          "name": "_originationRate",
          "type": "uint256"
        },
        {
          "internalType": "uint256",
          "name": "_incrementPerRoll",
          "type": "uint256"
        },
        {
          "internalType": "uint256",
          "name": "_penaltyRatePerYear",
          "type": "uint256"
        },
        {
          "components": [
            {
              "internalType": "bool",
              "name": "isBulletLoan",
              "type": "bool"
            },
            {
              "internalType": "address",
              "name": "asset",
              "type": "address"
            },
            {
              "internalType": "uint256",
              "name": "size",
              "type": "uint256"
            },
            {
              "internalType": "uint256",
              "name": "tenor",
              "type": "uint256"
            },
            {
              "internalType": "uint256",
              "name": "rateMantissa",
              "type": "uint256"
            },
            {
              "internalType": "uint256",
              "name": "depositWindow",
              "type": "uint256"
            }
          ],
          "internalType": "struct IPool.PoolData",
          "name": "_poolData",
          "type": "tuple"
        },
        {
          "internalType": "bytes",
          "name": "_members",
          "type": "bytes"
        }
      ],
      "name": "__Pool_init",
      "outputs": [],
      "stateMutability": "nonpayable",
      "type": "function"
    },
    {
      "inputs": [],
      "name": "acceptRoll",
      "outputs": [],
      "stateMutability": "nonpayable",
      "type": "function"
    },
    {
      "inputs": [],
      "name": "activeRollId",
      "outputs": [
        {
          "internalType": "uint256",
          "name": "",
          "type": "uint256"
        }
      ],
      "stateMutability": "view",
      "type": "function"
    },
    {
      "inputs": [],
      "name": "asset",
      "outputs": [
        {
          "internalType": "address",
          "name": "",
          "type": "address"
        }
      ],
      "stateMutability": "view",
      "type": "function"
    },
    {
      "inputs": [
        {
          "internalType": "address",
          "name": "lender",
          "type": "address"
        }
      ],
      "name": "balanceOf",
      "outputs": [
        {
          "internalType": "uint256",
          "name": "balance",
          "type": "uint256"
        }
      ],
      "stateMutability": "view",
      "type": "function"
    },
    {
      "inputs": [
        {
          "internalType": "bytes",
          "name": "lenders",
          "type": "bytes"
        }
      ],
      "name": "blacklistLenders",
      "outputs": [
        {
          "internalType": "bool",
          "name": "success",
          "type": "bool"
        }
      ],
      "stateMutability": "nonpayable",
      "type": "function"
    },
    {
      "inputs": [],
      "name": "borrower",
      "outputs": [
        {
          "internalType": "address",
          "name": "",
          "type": "address"
        }
      ],
      "stateMutability": "view",
      "type": "function"
    },
    {
      "inputs": [],
      "name": "canBeDefaulted",
      "outputs": [
        {
          "internalType": "bool",
          "name": "isAbleToDefault",
          "type": "bool"
        }
      ],
      "stateMutability": "view",
      "type": "function"
    },
    {
      "inputs": [],
      "name": "cancelCallBack",
      "outputs": [
        {
          "internalType": "bool",
          "name": "success",
          "type": "bool"
        }
      ],
      "stateMutability": "nonpayable",
      "type": "function"
    },
    {
      "inputs": [],
      "name": "close",
      "outputs": [
        {
          "internalType": "bool",
          "name": "success",
          "type": "bool"
        }
      ],
      "stateMutability": "nonpayable",
      "type": "function"
    },
    {
      "inputs": [],
      "name": "currentSize",
      "outputs": [
        {
          "internalType": "uint256",
          "name": "",
          "type": "uint256"
        }
      ],
      "stateMutability": "view",
      "type": "function"
    },
    {
      "inputs": [],
      "name": "defaultedAt",
      "outputs": [
        {
          "internalType": "uint256",
          "name": "",
          "type": "uint256"
        }
      ],
      "stateMutability": "view",
      "type": "function"
    },
    {
      "inputs": [],
      "name": "depositMaturity",
      "outputs": [
        {
          "internalType": "uint256",
          "name": "",
          "type": "uint256"
        }
      ],
      "stateMutability": "view",
      "type": "function"
    },
    {
      "inputs": [],
      "name": "depositWindow",
      "outputs": [
        {
          "internalType": "uint256",
          "name": "",
          "type": "uint256"
        }
      ],
      "stateMutability": "view",
      "type": "function"
    },
    {
      "inputs": [
        {
          "internalType": "address",
          "name": "lender",
          "type": "address"
        }
      ],
      "name": "dueInterestOf",
      "outputs": [
        {
          "internalType": "uint256",
          "name": "due",
          "type": "uint256"
        },
        {
          "internalType": "uint256",
          "name": "spreadFee",
          "type": "uint256"
        },
        {
          "internalType": "uint256",
          "name": "penalty",
          "type": "uint256"
        }
      ],
      "stateMutability": "view",
      "type": "function"
    },
    {
      "inputs": [
        {
          "internalType": "address",
          "name": "lender",
          "type": "address"
        }
      ],
      "name": "dueOf",
      "outputs": [
        {
          "internalType": "uint256",
          "name": "due",
          "type": "uint256"
        },
        {
          "internalType": "uint256",
          "name": "spreadFee",
          "type": "uint256"
        },
        {
          "internalType": "uint256",
          "name": "originationFee",
          "type": "uint256"
        },
        {
          "internalType": "uint256",
          "name": "penalty",
          "type": "uint256"
        }
      ],
      "stateMutability": "view",
      "type": "function"
    },
    {
      "inputs": [],
      "name": "factory",
      "outputs": [
        {
          "internalType": "contract IPoolFactory",
          "name": "",
          "type": "address"
        }
      ],
      "stateMutability": "view",
      "type": "function"
    },
    {
      "inputs": [],
      "name": "getNextPaymentTimestamp",
      "outputs": [
        {
          "internalType": "uint256",
          "name": "payableToTimestamp",
          "type": "uint256"
        }
      ],
      "stateMutability": "view",
      "type": "function"
    },
    {
      "inputs": [],
      "name": "incrementPerRoll",
      "outputs": [
        {
          "internalType": "uint256",
          "name": "",
          "type": "uint256"
        }
      ],
      "stateMutability": "view",
      "type": "function"
    },
    {
      "inputs": [],
      "name": "isBulletLoan",
      "outputs": [
        {
          "internalType": "bool",
          "name": "",
          "type": "bool"
        }
      ],
      "stateMutability": "view",
      "type": "function"
    },
    {
      "inputs": [],
      "name": "isClosed",
      "outputs": [
        {
          "internalType": "bool",
          "name": "",
          "type": "bool"
        }
      ],
      "stateMutability": "view",
      "type": "function"
    },
    {
      "inputs": [],
      "name": "isPublic",
      "outputs": [
        {
          "internalType": "bool",
          "name": "",
          "type": "bool"
        }
      ],
      "stateMutability": "view",
      "type": "function"
    },
    {
      "inputs": [],
      "name": "isRollRequested",
      "outputs": [
        {
          "internalType": "bool",
          "name": "",
          "type": "bool"
        }
      ],
      "stateMutability": "view",
      "type": "function"
    },
    {
      "inputs": [],
      "name": "lastPaidTimestamp",
      "outputs": [
        {
          "internalType": "uint256",
          "name": "",
          "type": "uint256"
        }
      ],
      "stateMutability": "view",
      "type": "function"
    },
    {
      "inputs": [
        {
          "internalType": "uint256",
          "name": "amount",
          "type": "uint256"
        }
      ],
      "name": "lend",
      "outputs": [
        {
          "internalType": "bool",
          "name": "success",
          "type": "bool"
        }
      ],
      "stateMutability": "nonpayable",
      "type": "function"
    },
    {
      "inputs": [],
      "name": "markPoolDefaulted",
      "outputs": [],
      "stateMutability": "nonpayable",
      "type": "function"
    },
    {
      "inputs": [],
      "name": "maturityDate",
      "outputs": [
        {
          "internalType": "uint256",
          "name": "",
          "type": "uint256"
        }
      ],
      "stateMutability": "view",
      "type": "function"
    },
    {
      "inputs": [],
      "name": "maxSize",
      "outputs": [
        {
          "internalType": "uint256",
          "name": "",
          "type": "uint256"
        }
      ],
      "stateMutability": "view",
      "type": "function"
    },
    {
      "inputs": [],
      "name": "originationRate",
      "outputs": [
        {
          "internalType": "uint256",
          "name": "",
          "type": "uint256"
        }
      ],
      "stateMutability": "view",
      "type": "function"
    },
    {
      "inputs": [
        {
          "internalType": "address",
          "name": "lender",
          "type": "address"
        }
      ],
      "name": "penaltyOf",
      "outputs": [
        {
          "internalType": "uint256",
          "name": "penalty",
          "type": "uint256"
        }
      ],
      "stateMutability": "view",
      "type": "function"
    },
    {
      "inputs": [
        {
          "internalType": "uint256",
          "name": "interval",
          "type": "uint256"
        }
      ],
      "name": "penaltyRate",
      "outputs": [
        {
          "internalType": "uint256",
          "name": "",
          "type": "uint256"
        }
      ],
      "stateMutability": "view",
      "type": "function"
    },
    {
      "inputs": [],
      "name": "penaltyRatePerYear",
      "outputs": [
        {
          "internalType": "uint256",
          "name": "",
          "type": "uint256"
        }
      ],
      "stateMutability": "view",
      "type": "function"
    },
    {
      "inputs": [],
      "name": "prime",
      "outputs": [
        {
          "internalType": "contract IPrime",
          "name": "primeInstance",
          "type": "address"
        }
      ],
      "stateMutability": "view",
      "type": "function"
    },
    {
      "inputs": [],
      "name": "rateMantissa",
      "outputs": [
        {
          "internalType": "uint256",
          "name": "",
          "type": "uint256"
        }
      ],
      "stateMutability": "view",
      "type": "function"
    },
    {
      "inputs": [
        {
          "internalType": "address",
          "name": "lender",
          "type": "address"
        }
      ],
      "name": "repay",
      "outputs": [
        {
          "internalType": "bool",
          "name": "success",
          "type": "bool"
        }
      ],
      "stateMutability": "nonpayable",
      "type": "function"
    },
    {
      "inputs": [],
      "name": "repayAll",
      "outputs": [
        {
          "internalType": "bool",
          "name": "success",
          "type": "bool"
        }
      ],
      "stateMutability": "nonpayable",
      "type": "function"
    },
    {
      "inputs": [],
      "name": "repayInterest",
      "outputs": [],
      "stateMutability": "nonpayable",
      "type": "function"
    },
    {
      "inputs": [],
      "name": "requestCallBack",
      "outputs": [
        {
          "internalType": "bool",
          "name": "success",
          "type": "bool"
        }
      ],
      "stateMutability": "nonpayable",
      "type": "function"
    },
    {
      "inputs": [],
      "name": "requestRoll",
      "outputs": [],
      "stateMutability": "nonpayable",
      "type": "function"
    },
    {
      "inputs": [],
      "name": "spreadRate",
      "outputs": [
        {
          "internalType": "uint256",
          "name": "",
          "type": "uint256"
        }
      ],
      "stateMutability": "view",
      "type": "function"
    },
    {
      "inputs": [],
      "name": "switchToPublic",
      "outputs": [
        {
          "internalType": "bool",
          "name": "success",
          "type": "bool"
        }
      ],
      "stateMutability": "nonpayable",
      "type": "function"
    },
    {
      "inputs": [],
      "name": "tenor",
      "outputs": [
        {
          "internalType": "uint256",
          "name": "",
          "type": "uint256"
        }
      ],
      "stateMutability": "view",
      "type": "function"
    },
    {
      "inputs": [],
      "name": "totalDue",
      "outputs": [
        {
          "internalType": "uint256",
          "name": "totalDueAmount",
          "type": "uint256"
        }
      ],
      "stateMutability": "view",
      "type": "function"
    },
    {
      "inputs": [],
      "name": "totalDueInterest",
      "outputs": [
        {
          "internalType": "uint256",
          "name": "totalInterest",
          "type": "uint256"
        }
      ],
      "stateMutability": "view",
      "type": "function"
    },
    {
      "inputs": [
        {
          "internalType": "bytes",
          "name": "lenders",
          "type": "bytes"
        }
      ],
      "name": "whitelistLenders",
      "outputs": [
        {
          "internalType": "bool",
          "name": "success",
          "type": "bool"
        }
      ],
      "stateMutability": "nonpayable",
      "type": "function"
    }
  ],
  "transactionHash": "0x3fef7327028e880ed51f5a8795e3b0c3962b326961152d8630ffa5bc99d4fb89",
  "args": [],
  "numDeployments": 1,
  "solcInputHash": "8c5f1d733fcdadb859f8259dc1ed9ca5",
  "bytecode": "0x60806040523480156200001157600080fd5b506200001c62000022565b620000e4565b600054610100900460ff16156200008f5760405162461bcd60e51b815260206004820152602760248201527f496e697469616c697a61626c653a20636f6e747261637420697320696e697469604482015266616c697a696e6760c81b606482015260840160405180910390fd5b60005460ff9081161015620000e2576000805460ff191660ff9081179091556040519081527f7f26b83ff96e1f2b6a682f133852f6798a09c465da95921460cefb38474024989060200160405180910390a15b565b6131da80620000f46000396000f3fe608060405234801561001057600080fd5b50600436106102895760003560e01c8063839145401161015c578063b75a197d116100ce578063d59624b411610087578063d59624b414610507578063dc9a153514610510578063e6ad04c914610522578063f13fa0c11461052a578063fa3ae6dc14610533578063fa5d30b51461053b57600080fd5b8063b75a197d1461049a578063bda1504b146104c8578063c2b6b58c146104d1578063c45a0155146104e4578063c7ee005e146104f7578063c9d0cf0a146104ff57600080fd5b8063a15612d111610120578063a15612d114610442578063a2d273f91461044b578063a4af9d4614610458578063a6aa57ce1461046b578063a8ce6bbd1461047e578063b5cae5321461049157600080fd5b8063839145401461040c5780638a9e667c146104175780638fd0aeb21461041f57806393e88f3a146104275780639f7c73e91461042f57600080fd5b806343d726d61161020057806370a08231116101b957806370a08231146103b257806370acf929146103c557806376bc05ae146103d85780637bf04e3f146103e15780637df1f1b9146103e9578063821b10b01461040357600080fd5b806343d726d614610369578063443388191461037157806355e172d9146103845780635ab2af51146103975780635ceeb36c146103a05780636e4a3a56146103a857600080fd5b80631d097974116102525780631d097974146102dc5780632565b159146102f0578063337e04c1146102f95780633551dd8c1461032c57806338d52e0f146103355780633e0b06db1461036057600080fd5b806280af811461028e5780630afbd5c9146102aa5780630d692cc1146102b2578063125f01c8146102bb578063179541ca146102d3575b600080fd5b61029760415481565b6040519081526020015b60405180910390f35b610297610543565b61029760395481565b6102c36105bd565b60405190151581526020016102a1565b610297604b5481565b6033546102c3906301000000900460ff1681565b61029760375481565b61030c610307366004612d99565b610695565b6040805194855260208501939093529183015260608201526080016102a1565b610297603d5481565b603454610348906001600160a01b031681565b6040516001600160a01b0390911681526020016102a1565b61029760385481565b6102c3610713565b6102c361037f366004612dff565b6107b4565b610297610392366004612d99565b610861565b610297603a5481565b6102c361086c565b6103b06108ca565b005b6102976103c0366004612d99565b6109e1565b6103b06103d3366004612e41565b610aef565b610297603c5481565b610297610c18565b60335461034890600160201b90046001600160a01b031681565b610297603b5481565b6102976301da9c0081565b6103b0610c5a565b6102c3610df8565b610297610ea0565b6102c361043d366004612d99565b610f22565b610297603e5481565b6033546102c39060ff1681565b6102c3610466366004612dff565b610fd5565b6102c3610479366004612edc565b611092565b61029761048c366004612edc565b611140565b61029760425481565b6104ad6104a8366004612d99565b61115f565b604080519384526020840192909252908201526060016102a1565b61029760365481565b6033546102c39062010000900460ff1681565b603554610348906001600160a01b031681565b61034861121b565b6103b061128e565b610297603f5481565b6033546102c390610100900460ff1681565b6102c3611333565b61029760405481565b6102c36114ce565b6103b0611588565b604354600090815b818110156105b85760006043828154811061056857610568612ef5565b60009182526020822001546001600160a01b03169150806105888361115f565b5090925090506105988183612f21565b6105a29087612f21565b9550505050806105b190612f34565b905061054b565b505090565b60006042546000146105ea5760405162461bcd60e51b81526004016105e190612f4d565b60405180910390fd5b60335462010000900460ff16156106135760405162461bcd60e51b81526004016105e190612f6a565b61061c33611789565b336000908152604a602052604090205460ff1661064b5760405162461bcd60e51b81526004016105e190612f87565b336000818152604a6020526040808220805460ff19168155600101829055517f6fa5f2f133d0fabc383ccf7982b3fd93ab389a1dbad7e1a5e6d20e58ae3acf759190a25060015b90565b6001600160a01b038116600090815260476020526040812060018101548291829182919082036106d35760008060008094509450945094505061070c565b6106e68682600401548360020154611832565b919650945091506106f6866118ca565b92508060010154856107089190612f21565b9450505b9193509193565b603354600090600160201b90046001600160a01b031633146107475760405162461bcd60e51b81526004016105e190612fa4565b60335462010000900460ff16156107705760405162461bcd60e51b81526004016105e190612f6a565b603654156107a65760405162461bcd60e51b815260206004820152600360248201526213d21160ea1b60448201526064016105e1565b6107ae611ae4565b50600190565b603354600090600160201b90046001600160a01b031633146107e85760405162461bcd60e51b81526004016105e190612fa4565b6107f0611b20565b60008290036108275760405162461bcd60e51b815260206004820152600360248201526226262d60e91b60448201526064016105e1565b603354610100900460ff1615610843576033805461ff00191690555b61084f60018484611b79565b50600161085b60018055565b92915050565b600061085b82611c3d565b600060425460001415806108805750604554155b1561088b5750600090565b60335460ff16156108ad57604e54603f546108a69190612f21565b4211905090565b604e54604c546041546108c09190612f21565b6108a69190612f21565b60335462010000900460ff16156108f35760405162461bcd60e51b81526004016105e190612f6a565b604254156109135760405162461bcd60e51b81526004016105e190612f4d565b6035546001600160a01b031633146109b25761092e33611789565b603354600160201b90046001600160a01b03163314610978573360009081526047602052604081206001015490036109785760405162461bcd60e51b81526004016105e190612fc1565b61098061086c565b6109b25760405162461bcd60e51b815260206004820152600360248201526222a22960e91b60448201526064016105e1565b426042556040517f46b9cd4891c2c9c48ba40bb38b2058575e06ecdaab42ec43bcb2574c4be226be90600090a1565b6001600160a01b038116600090815260476020526040812060018101548203610a0d5750600092915050565b60018101546001600160a01b0384166000908152604960205260408120549193505b81811015610ae7576001600160a01b0385166000908152604960205260408120805483908110610a6157610a61612ef5565b600091825260209182902060408051606081018252600390930290910180548352600181015493830184905260020154908201819052909250610aa49190612fde565b6020820151610ab39042612fde565b8251610abf9190612ff1565b610ac99190613008565b610ad39086612f21565b94505080610ae090612f34565b9050610a2f565b505050919050565b600054610100900460ff1615808015610b0f5750600054600160ff909116105b80610b295750303b158015610b29575060005460ff166001145b610b8c5760405162461bcd60e51b815260206004820152602e60248201527f496e697469616c697a61626c653a20636f6e747261637420697320616c72656160448201526d191e481a5b9a5d1a585b1a5e995960921b60648201526084016105e1565b6000805460ff191660011790558015610baf576000805461ff0019166101001790555b610bb7611d26565b610bc78989898989898989611d55565b8015610c0d576000805461ff0019169055604051600181527f7f26b83ff96e1f2b6a682f133852f6798a09c465da95921460cefb38474024989060200160405180910390a15b505050505050505050565b6041548015801590610c355750604c54610c329042612f21565b81105b1561069257604c54610c479082612f21565b9050603f548111156106925750603f5490565b603354600160201b90046001600160a01b03163314610c8b5760405162461bcd60e51b81526004016105e190612fa4565b60425415610cab5760405162461bcd60e51b81526004016105e190612f4d565b60335462010000900460ff1615610cd45760405162461bcd60e51b81526004016105e190612f6a565b6033546301000000900460ff1615610d145760405162461bcd60e51b81526020600482015260036024820152622920a960e91b60448201526064016105e1565b604554600114610d4c5760405162461bcd60e51b81526020600482015260036024820152622921a960e91b60448201526064016105e1565b603d5442118015610d6b57506040805460009081526048602052205442115b8015610d855750604d54603f54610d829190612fde565b42105b610db75760405162461bcd60e51b8152602060048201526003602482015262292a2960e91b60448201526064016105e1565b6033805463ff000000191663010000001790556044546040517fc9fce8903c0374743352608574b0e3bfc73ce3af1d4f17bdd3a08045547a820890600090a2565b603354600090600160201b90046001600160a01b03163314610e2c5760405162461bcd60e51b81526004016105e190612fa4565b610e34611b20565b603354610100900460ff1615610e5c5760405162461bcd60e51b81526004016105e190612f87565b6033805461ff0019166101001790556040517f0a2faf0a3c3f5b47a50a6a353f0fe6478f470cb962e2045989e4bcbede93887c90600090a150600161069260018055565b604354600090815b818110156105b8576000806000610ee560438581548110610ecb57610ecb612ef5565b6000918252602090912001546001600160a01b0316610695565b509194509250905080610ef88385612f21565b610f029190612f21565b610f0c9087612f21565b955050505080610f1b90612f34565b9050610ea8565b603354600090600160201b90046001600160a01b03163314610f565760405162461bcd60e51b81526004016105e190612fa4565b816001600160a01b038116610f935760405162461bcd60e51b81526020600482015260036024820152624e5a4160e81b60448201526064016105e1565b60425415610fb35760405162461bcd60e51b81526004016105e190612f4d565b610fbb611b20565b610fc483611e91565b9150610fcf60018055565b50919050565b603354600090600160201b90046001600160a01b031633146110095760405162461bcd60e51b81526004016105e190612fa4565b611011611b20565b603354610100900460ff161561104f5760405162461bcd60e51b815260206004820152600360248201526204f50560ec1b60448201526064016105e1565b60008290036110865760405162461bcd60e51b815260206004820152600360248201526226262d60e91b60448201526064016105e1565b61084f60008484611b79565b600061109c611b20565b6110a533611789565b81806000036110dc5760405162461bcd60e51b815260206004820152600360248201526216959360ea1b60448201526064016105e1565b60335462010000900460ff16156111055760405162461bcd60e51b81526004016105e190612f6a565b604254156111255760405162461bcd60e51b81526004016105e190612f4d565b61112f83336120bf565b91505061113b60018055565b919050565b60006301da9c0082604b546111559190612ff1565b61085b9190613008565b6001600160a01b0381166000908152604760205260408120600181015482918291820361119757600080600093509350935050611214565b60335460ff16156111c1576111b58582600401548360020154611832565b91955093509150611212565b60006111cb610c18565b905060008142116111dc57816111de565b425b90506111f3836004015484600201548361241e565b909650945061120187611c3d565b935061120d8487612f21565b955050505b505b9193909250565b603554604080516363f7002f60e11b815290516000926001600160a01b03169163c7ee005e9160048083019260209291908290030181865afa158015611265573d6000803e3d6000fd5b505050506040513d601f19601f82011682018060405250810190611289919061302a565b905090565b603354600160201b90046001600160a01b031633146112bf5760405162461bcd60e51b81526004016105e190612fa4565b604254156112df5760405162461bcd60e51b81526004016105e190612f4d565b6112e7611b20565b60335460ff16156113205760405162461bcd60e51b815260206004820152600360248201526213935360ea1b60448201526064016105e1565b611328612486565b61133160018055565b565b600061133e33611789565b6042541561135e5760405162461bcd60e51b81526004016105e190612f4d565b60335462010000900460ff16156113875760405162461bcd60e51b81526004016105e190612f6a565b3360009081526047602052604081206001015490036113ce5760405162461bcd60e51b815260206004820152600360248201526213169360ea1b60448201526064016105e1565b336000908152604a602052604090205460ff16156113fe5760405162461bcd60e51b81526004016105e190612f87565b603f5442106114355760405162461bcd60e51b815260206004820152600360248201526211535160ea1b60448201526064016105e1565b6033546301000000900460ff161561144f5761144f612520565b6046805490600061145f83612f34565b90915550506040805180820182526001808252426020808401918252336000818152604a9092528582209451855460ff191690151517855591519390920192909255915190917fa64980a49b0572c7b3106aa75a1480ce0e6c5ce99caf11c0aacb03354173e03591a250600190565b603354600090600160201b90046001600160a01b031633146115025760405162461bcd60e51b81526004016105e190612fa4565b604254156115225760405162461bcd60e51b81526004016105e190612f4d565b61152a611b20565b60435460005b81811015611579576115686043828154811061154e5761154e612ef5565b6000918252602090912001546001600160a01b0316611e91565b5061157281612f34565b9050611530565b50600191505061069260018055565b61159133611789565b60335462010000900460ff16156115ba5760405162461bcd60e51b81526004016105e190612f6a565b604254156115da5760405162461bcd60e51b81526004016105e190612f4d565b6033546301000000900460ff166116195760405162461bcd60e51b815260206004820152600360248201526241524d60e81b60448201526064016105e1565b603f5442106116505760405162461bcd60e51b8152602060048201526003602482015262292a2960e91b60448201526064016105e1565b33600090815260476020526040812060018101549091036116835760405162461bcd60e51b81526004016105e190612fc1565b6033805463ff00000019169055604480549060006116a083612f34565b9091555060408181558051808201909152603f54808252603e5460208301916116c99190612f21565b9052600082815260486020908152604090912082518155910151600190910155603854603e54670de0b6b3a76400009161170291612565565b83600101546117119190612ff1565b61171b9190613008565b82600401600082825461172e9190612f21565b9091555050603e54603f8054600090611748908490612f21565b9091555050603f5460405190815281907f01d3e7d9e37a1ba8e45cd56d6778b3f9eea1dfc58752d6522349db020479de599060200160405180910390a25050565b61179161121b565b60405163288c314960e21b81526001600160a01b038381166004830152919091169063a230c52490602401602060405180830381865afa1580156117d9573d6000803e3d6000fd5b505050506040513d601f19601f820116820180604052508101906117fd9190613055565b61182f5760405162461bcd60e51b81526020600482015260036024820152624e504d60e81b60448201526064016105e1565b50565b600080600080603f549050603f5442111561184e575042611899565b6001600160a01b0387166000908152604a602052604090205460ff1680156118775750603f5442105b156118995750603354429060ff1615801561189157508085115b156118995750835b6118a486868361241e565b90945092506118b287611c3d565b91506118be8285612f21565b93505093509350939050565b6000603a546000036118de57506000919050565b506001600160a01b03811660009081526047602090815260408083206003810154604a90935292205490919060ff1680156119345750603e54603c54603d546119279190612fde565b6119319190612f21565b42105b1561198757600042603f546119499190612fde565b9050670de0b6b3a7640000611960603a5483612565565b836001015461196f9190612ff1565b6119799190613008565b6119839084612fde565b9250505b60445460011415801561199b5750603b5415155b15610fcf576000670de0b6b3a7640000603b54670de0b6b3a76400006119c5603a54603e54612565565b85600101546119d49190612ff1565b6119de9190613008565b6119e89190612ff1565b6119f29190613008565b6001600160a01b0385166000908152604a602052604090205490915060ff168015611a475750600160005260486020527f149d903478f13b7f42654b0aa3a0f06ce2ec329315e01622f824555dff9970635442115b8015611a545750603f5442105b15611ab757603e54600160005260486020527f149d903478f13b7f42654b0aa3a0f06ce2ec329315e01622f824555dff99706354611a929042612fde565b611a9c9083612ff1565b611aa69190613008565b611ab09084612f21565b9250611add565b6001604454611ac69190612fde565b611ad09082612ff1565b611ada9084612f21565b92505b5050919050565b6033805462ff00001916620100001790556040517f1cdde67b72a90f19919ac732a437ac2f7a10fc128d28c2a6e525d89ce5cd9d3a90600090a1565b600260015403611b725760405162461bcd60e51b815260206004820152601f60248201527f5265656e7472616e637947756172643a207265656e7472616e742063616c6c0060448201526064016105e1565b6002600155565b6014819003611bb457611baf83611b908484612587565b600081518110611ba257611ba2612ef5565b6020026020010151612665565b505050565b6000611bc08383612587565b8051909150603c811115611bfc5760405162461bcd60e51b815260206004820152600360248201526211505360ea1b60448201526064016105e1565b60005b81811015611c2f57611c1d86848381518110611ba257611ba2612ef5565b80611c2781612f34565b915050611bff565b505050505050565b60018055565b6001600160a01b038116600090815260476020526040812060018101548203611c695750600092915050565b60335460009060ff16611c8d57604c548260020154611c889190612f21565b611c91565b603f545b60335490915060ff16158015611ca85750603f5481115b15611cb25750603f545b604254429015611cc157506042545b81811115611d1b576000611cd861048c8484612fde565b905080600003611cee5750600095945050505050565b670de0b6b3a7640000846001015482611d079190612ff1565b611d119190613008565b9695505050505050565b506000949350505050565b600054610100900460ff16611d4d5760405162461bcd60e51b81526004016105e190613072565b611331612758565b600054610100900460ff16611d7c5760405162461bcd60e51b81526004016105e190613072565b60338054640100000000600160c01b031916600160201b6001600160a01b038b1602179055611db16040840160208501612d99565b603480546001600160a01b0319166001600160a01b039290921691909117905560408301356037556060830135603e55608083013560385560a0830135603c55611dfe60208401846130bd565b6033805460ff19169115159190911790556039879055603a869055603b859055604b84905562278d00604c556202a300604d556203f480604e5560448054600090611e4890612f34565b90915550603580546001600160a01b031916331790556000819003611e7b576033805461ff001916610100179055611e87565b611e8760018383611b79565b5050505050505050565b6001600160a01b038116600090815260476020526040812060018101548203611ebd5750600192915050565b600080600080611ecc87610695565b6001600160a01b038b166000908152604a60205260409020549397509195509350915060ff1615611f18576001600160a01b0387166000908152604a60205260409020805460ff191690555b60405415611f265760006040555b6040805185815260208101859052908101839052606081018290526001600160a01b038816907f4d717b642cf5faf5bf4c2e2dfa4d80e68dd08aa4530694c0a67fe5006a28caa49060800160405180910390a2846001015460366000828254611f8f9190612fde565b9091555050600060048601819055600386018190556001860181905542600287015560458054909190611fc1906130da565b909155506001600160a01b0387166000908152604960205260408120611fe691612d42565b603654158015611ff8575042603d5411155b1561200557612005611ae4565b60006120118385612f21565b9050801561209957603454612099906001600160a01b03163361203261121b565b6001600160a01b03166361d027b36040518163ffffffff1660e01b8152600401602060405180830381865afa15801561206f573d6000803e3d6000fd5b505050506040513d601f19601f82011682018060405250810190612093919061302a565b8461277f565b6034546120b1906001600160a01b0316338a8861277f565b506001979650505050505050565b6000603754836036546120d29190612f21565b11156121065760405162461bcd60e51b81526020600482015260036024820152624f534560e81b60448201526064016105e1565b6001600160a01b0382166000908152604760205260409020603354610100900460ff161561213e5761213983600161279a565b612164565b8054610100900460ff166121645760405162461bcd60e51b81526004016105e190612fc1565b603d546000036121e857603c5461217b9042612f21565b603d55603e5461218b9042612f21565b603f5560335460ff1661219d57426041555b7f4867887a5b0bebacccb6e4c9c656b3a6b2fe478e226ea1fa5230d9b4bdabc26e603d54603f546040516121db929190918252602082015260400190565b60405180910390a1612220565b603d544211156122205760405162461bcd60e51b815260206004820152600360248201526244574360e81b60448201526064016105e1565b83603660008282546122329190612f21565b9091555050600181015460000361225d5760456000815461225290612f34565b909155504260028201555b600042603f5461226d9190612fde565b905060496000856001600160a01b03166001600160a01b031681526020019081526020016000206040518060600160405280670de0b6b3a76400006122b460385486612565565b6122be908a612ff1565b6122c89190613008565b815242602080830191909152603f54604092830152835460018181018655600095865294829020845160039092020190815590830151938101939093550151600290910155603854670de0b6b3a7640000906123249083612565565b61232e9087612ff1565b6123389190613008565b82600401600082825461234b9190612f21565b92505081905550670de0b6b3a7640000612367603a5483612565565b6123719087612ff1565b61237b9190613008565b82600301600082825461238e9190612f21565b92505081905550848260010160008282546123a99190612f21565b90915550506040518581526001600160a01b038516907f26ff3f6dedac6d273c293b8c866e073f40896739d99ad513862fe7ba70cf63ca9060200160405180910390a2603454603354612413916001600160a01b03908116918791600160201b909104168861277f565b506001949350505050565b60008083603f5461242f9190612fde565b6124398585612fde565b6124439087612ff1565b61244d9190613008565b9150670de0b6b3a7640000603954836124669190612ff1565b6124709190613008565b905061247c8183612fde565b9150935093915050565b60415442116124bd5760405162461bcd60e51b815260206004820152600360248201526252544560e81b60448201526064016105e1565b60006124c7610c18565b60435490915060005b8181101561251957612509604382815481106124ee576124ee612ef5565b6000918252602090912001546001600160a01b0316846128d8565b61251281612f34565b90506124d0565b5050604155565b6033805463ff000000191690556044546040513381527f5c34576b5e454f10dc4c9d9bd51b9c481a15af0738c70a740634b1ce47dc36379060200160405180910390a2565b60006301da9c006125768385612ff1565b6125809190613008565b9392505050565b60606000612596601484613008565b90508067ffffffffffffffff8111156125b1576125b16130f1565b6040519080825280602002602001820160405280156125da578160200160208202803683370190505b50915060005b8181101561265d5761262185856125f8846014612ff1565b90612604856001612f21565b61260f906014612ff1565b9261261c93929190613107565b612a58565b83828151811061263357612633612ef5565b6001600160a01b03909216602092830291909101909101528061265581612f34565b9150506125e0565b505092915050565b61266e81611789565b6001600160a01b038116600090815260476020526040902082156126f557805460ff166126a5576126a082600161279a565b6126b3565b805461ff0019166101001781555b6040516001600160a01b03831681527feafaba2a6f658ac7632689fd61982a1c5387c8437e5ff730560eb63d3c935ed1906020015b60405180910390a1505050565b805460ff166127165760405162461bcd60e51b81526004016105e190612fc1565b805461ff00191681556040516001600160a01b03831681527f646f70a08891433fa5fa07bd0874c798dfc78b4b8be5b9db947619f1cc9df3a3906020016126e8565b600054610100900460ff16611c375760405162461bcd60e51b81526004016105e190613072565b6127946001600160a01b038516848484612a9d565b50505050565b6001600160a01b03821660009081526047602052604090205460ff166128d4576033546001600160a01b03808416600160201b90920416036128045760405162461bcd60e51b8152602060048201526003602482015262424c5360e81b60448201526064016105e1565b6040805160c081018252600180825283151560208084019182526000848601818152606086018281526080870183815260a088018481526001600160a01b038c16808652604790965298842097518854965161ffff1990971690151561ff00191617610100961515969096029590951787559051868601555160028601559151600385015593516004909301929092556043805491820181559091527f9690ad99d6ce244efa8a0f6c2d04036d3b33a9474db32a71b71135c6951027930180546001600160a01b03191690911790555b5050565b6001600160a01b0382166000908152604760205260408120600181015490910361290157505050565b600080600061290f8661115f565b9250925092508360020154603f546129279190612fde565b60028501546129369087612fde565b85600401546129459190612ff1565b61294f9190613008565b8460040160008282546129629190612fde565b90915550506002840185905560408051848152602081018490529081018290526001600160a01b038716907f4b17857dbdcd87f2659c612a7f181d1c2ff8f5f2d77a3d4fe275f559c94351b29060600160405180910390a28115612a4057603454612a40906001600160a01b0316336129d961121b565b6001600160a01b03166361d027b36040518163ffffffff1660e01b8152600401602060405180830381865afa158015612a16573d6000803e3d6000fd5b505050506040513d601f19601f82011682018060405250810190612a3a919061302a565b8561277f565b603454611c2f906001600160a01b031633888661277f565b60008083838080601f01602080910402602001604051908101604052809392919081815260200183838082843760009201919091525050505060140151949350505050565b604080516001600160a01b038581166024830152848116604483015260648083018590528351808403909101815260849092018352602080830180516001600160e01b03166323b872dd60e01b17905283518085019094528084527f5361666545524332303a206c6f772d6c6576656c2063616c6c206661696c65649084015261279492879291600091612b35918516908490612bb2565b805190915015611baf5780806020019051810190612b539190613055565b611baf5760405162461bcd60e51b815260206004820152602a60248201527f5361666545524332303a204552433230206f7065726174696f6e20646964206e6044820152691bdd081cdd58d8d9595960b21b60648201526084016105e1565b6060612bc18484600085612bc9565b949350505050565b606082471015612c2a5760405162461bcd60e51b815260206004820152602660248201527f416464726573733a20696e73756666696369656e742062616c616e636520666f6044820152651c8818d85b1b60d21b60648201526084016105e1565b600080866001600160a01b03168587604051612c469190613155565b60006040518083038185875af1925050503d8060008114612c83576040519150601f19603f3d011682016040523d82523d6000602084013e612c88565b606091505b5091509150612c9987838387612ca4565b979650505050505050565b60608315612d13578251600003612d0c576001600160a01b0385163b612d0c5760405162461bcd60e51b815260206004820152601d60248201527f416464726573733a2063616c6c20746f206e6f6e2d636f6e747261637400000060448201526064016105e1565b5081612bc1565b612bc18383815115612d285781518083602001fd5b8060405162461bcd60e51b81526004016105e19190613171565b508054600082556003029060005260206000209081019061182f91905b80821115612d80576000808255600182018190556002820155600301612d5f565b5090565b6001600160a01b038116811461182f57600080fd5b600060208284031215612dab57600080fd5b813561258081612d84565b60008083601f840112612dc857600080fd5b50813567ffffffffffffffff811115612de057600080fd5b602083019150836020828501011115612df857600080fd5b9250929050565b60008060208385031215612e1257600080fd5b823567ffffffffffffffff811115612e2957600080fd5b612e3585828601612db6565b90969095509350505050565b600080600080600080600080888a03610180811215612e5f57600080fd5b8935612e6a81612d84565b985060208a0135975060408a0135965060608a0135955060808a0135945060c0609f1982011215612e9a57600080fd5b5060a08901925061016089013567ffffffffffffffff811115612ebc57600080fd5b612ec88b828c01612db6565b999c989b5096995094979396929594505050565b600060208284031215612eee57600080fd5b5035919050565b634e487b7160e01b600052603260045260246000fd5b634e487b7160e01b600052601160045260246000fd5b8082018082111561085b5761085b612f0b565b600060018201612f4657612f46612f0b565b5060010190565b60208082526003908201526214111160ea1b604082015260600190565b6020808252600390820152624f414360e81b604082015260600190565b60208082526003908201526210505160ea1b604082015260600190565b6020808252600390820152622721a960e91b604082015260600190565b60208082526003908201526224a6a160e91b604082015260600190565b8181038181111561085b5761085b612f0b565b808202811582820484141761085b5761085b612f0b565b60008261302557634e487b7160e01b600052601260045260246000fd5b500490565b60006020828403121561303c57600080fd5b815161258081612d84565b801515811461182f57600080fd5b60006020828403121561306757600080fd5b815161258081613047565b6020808252602b908201527f496e697469616c697a61626c653a20636f6e7472616374206973206e6f74206960408201526a6e697469616c697a696e6760a81b606082015260800190565b6000602082840312156130cf57600080fd5b813561258081613047565b6000816130e9576130e9612f0b565b506000190190565b634e487b7160e01b600052604160045260246000fd5b6000808585111561311757600080fd5b8386111561312457600080fd5b5050820193919092039150565b60005b8381101561314c578181015183820152602001613134565b50506000910152565b60008251613167818460208701613131565b9190910192915050565b6020815260008251806020840152613190816040850160208701613131565b601f01601f1916919091016040019291505056fea26469706673582212201f650f0a3a8b992976eb2508a8c21f2a1669e289900f8d189a27752681666a1364736f6c63430008110033",
  "devdoc": {
    "events": {
      "Activated(uint256,uint256)": {
        "params": {
          "depositMaturity": "- Lender can deposit until this timestamp",
          "maturityDate": "- Borrower's maturity date (timestamp)"
        }
      },
      "RollAccepted(uint256,uint256)": {
        "params": {
          "newMaturity": "- New maturity date (timestamp)",
          "rollId": "- Id of the new roll"
        }
      },
      "RollRejected(uint256,address)": {
        "params": {
          "rollId": "- Id of the roll",
          "user": "- Address of the user who rejected the roll"
        }
      },
      "RollRequested(uint256)": {
        "params": {
          "rollId": "- Id of the roll"
        }
      }
    },
    "kind": "dev",
    "methods": {
      "__Pool_init(address,uint256,uint256,uint256,uint256,(bool,address,uint256,uint256,uint256,uint256),bytes)": {
        "details": "This function is called only once during the pool creation",
        "params": {
          "_borrower": "- Pool borrower address",
          "_incrementPerRoll": "- Pool rolling increment rate of origination fee",
          "_members": "- Pool members (lenders) addresses encoded in bytes",
          "_originationRate": "- Pool origination fee rate",
          "_penaltyRatePerYear": "- Pool penalty rate calculated for 1 year",
          "_poolData": "- Pool data struct: asset, size, tenor, rateMantissa, depositWindow",
          "_spreadRate": "- Pool protocol spread rate"
        }
      },
      "acceptRoll()": {
        "details": "Can be called only by the whitelisted Prime lenders"
      },
      "balanceOf(address)": {
        "params": {
          "lender": "- The address of the lender"
        },
        "returns": {
          "balance": "interestAccrued - Accrued amount until today"
        }
      },
      "blacklistLenders(bytes)": {
        "details": "Can be called only by the borrower",
        "params": {
          "lenders": "- Lenders addresses encoded in bytes"
        }
      },
      "canBeDefaulted()": {
        "returns": {
          "isAbleToDefault": "True if the pool can be defaulted"
        }
      },
      "cancelCallBack()": {
        "details": "Can be called only by the whitelisted Prime lenders",
        "returns": {
          "success": "- True if the callback is cancelled by the lender"
        }
      },
      "close()": {
        "details": "Can be called only by the borrower",
        "returns": {
          "success": "- True if the pool is closed"
        }
      },
      "constructor": {
        "custom:oz-upgrades-unsafe-allow": "constructor"
      },
      "dueInterestOf(address)": {
        "params": {
          "lender": "The lender address"
        },
        "returns": {
          "due": "The interest amount",
          "penalty": "The penalty amount",
          "spreadFee": "The spread amount"
        }
      },
      "dueOf(address)": {
        "params": {
          "lender": "- The address of the lender"
        },
        "returns": {
          "due": "- Due amount for repayment",
          "originationFee": "- Origination protocol fee",
          "penalty": "- Penalty fee",
          "spreadFee": "- Protocol spread fee"
        }
      },
      "getNextPaymentTimestamp()": {
        "returns": {
          "payableToTimestamp": "- The timestamp of the next payment"
        }
      },
      "lend(uint256)": {
        "details": "Can be called only by the whitelisted Prime lenders",
        "params": {
          "amount": "- Amount of funds to lend"
        },
        "returns": {
          "success": "- True if the funds are lent"
        }
      },
      "markPoolDefaulted()": {
        "details": "Can be called only by lender or borrower if time conditions are metCan be called by governor without time conditions"
      },
      "penaltyOf(address)": {
        "params": {
          "lender": "- The address of the lender"
        },
        "returns": {
          "penalty": "penaltyFee - Penalty fee"
        }
      },
      "penaltyRate(uint256)": {
        "params": {
          "interval": "The interval in seconds"
        },
        "returns": {
          "_0": "The penalty rate as a mantissa between [0, 1e18]"
        }
      },
      "prime()": {
        "details": "Prime converted as IPrime interface",
        "returns": {
          "primeInstance": "- Prime address"
        }
      },
      "repay(address)": {
        "details": "Can be called only by the borrower",
        "params": {
          "lender": "- Lender address"
        },
        "returns": {
          "success": "- True if the lender is repaid"
        }
      },
      "repayAll()": {
        "details": "Can be called only by the borrower",
        "returns": {
          "success": "- True if all lenders are repaid"
        }
      },
      "repayInterest()": {
        "details": "Can be called only by the borrower in monthly loans"
      },
      "requestCallBack()": {
        "details": "Can be called only by the whitelisted Prime lenders",
        "returns": {
          "success": "- True if the callback is created by the lender"
        }
      },
      "requestRoll()": {
        "details": "Can be called only by the borrower"
      },
      "switchToPublic()": {
        "details": "Can be called only by the borrower",
        "returns": {
          "success": "- True if the pool is converted to public"
        }
      },
      "totalDue()": {
        "returns": {
          "totalDueAmount": "- Total due amount for repayment"
        }
      },
      "totalDueInterest()": {
        "returns": {
          "totalInterest": "The interest amount"
        }
      },
      "whitelistLenders(bytes)": {
        "details": "Can be called only by the borrower",
        "params": {
          "lenders": "- Lenders addresses encoded in bytes"
        }
      }
    },
    "title": "Pool contract is responsible for managing the pool",
    "version": 1
  },
  "userdoc": {
    "events": {
      "Activated(uint256,uint256)": {
        "notice": "Emitted when the pool is activated"
      },
      "CallbackCancelled(address)": {
        "notice": "Emitted when callback is cancelled"
      },
      "CallbackCreated(address)": {
        "notice": "Emitted when callback is created"
      },
      "Closed()": {
        "notice": "Emitted when the pool is closed"
      },
      "ConvertedToPublic()": {
        "notice": "Emitted when pool is converted to public"
      },
      "Defaulted()": {
        "notice": "Emitted when pool is defaulted"
      },
      "LenderBlacklisted(address)": {
        "notice": "Emitted when lender is removed from the pool"
      },
      "LenderWhitelisted(address)": {
        "notice": "Emitted when new lender is added to the pool"
      },
      "Lent(address,uint256)": {
        "notice": "Emitted when funds are lent to the pool"
      },
      "Repayed(address,uint256,uint256,uint256,uint256)": {
        "notice": "Emitted when lender is fully repayed"
      },
      "RepayedInterest(address,uint256,uint256,uint256)": {
        "notice": "Emitted when interest is repayed to the lender"
      },
      "RollAccepted(uint256,uint256)": {
        "notice": "Emitted when the pool is rolled"
      },
      "RollRejected(uint256,address)": {
        "notice": "Emitted when the roll is rejected"
      },
      "RollRequested(uint256)": {
        "notice": "Emitted when the roll is requested"
      }
    },
    "kind": "user",
    "methods": {
      "YEAR()": {
        "notice": "Standart year in seconds"
      },
      "__Pool_init(address,uint256,uint256,uint256,uint256,(bool,address,uint256,uint256,uint256,uint256),bytes)": {
        "notice": "Initialize the pool"
      },
      "acceptRoll()": {
        "notice": "Accepts the roll"
      },
      "activeRollId()": {
        "notice": "Pool active roll id"
      },
      "asset()": {
        "notice": "Asset address of the pool"
      },
      "balanceOf(address)": {
        "notice": "Calculates the accrued amount until today, excluding penalty"
      },
      "blacklistLenders(bytes)": {
        "notice": "Blacklists lenders"
      },
      "borrower()": {
        "notice": "Pool borrower address"
      },
      "canBeDefaulted()": {
        "notice": "Checks if the pool can be defaulted by borrower or lender"
      },
      "cancelCallBack()": {
        "notice": "Cancels the callback"
      },
      "close()": {
        "notice": "Closes the pool"
      },
      "currentSize()": {
        "notice": "Pool current size"
      },
      "defaultedAt()": {
        "notice": "If pool is defaulted, this is the timestamp of the default"
      },
      "depositMaturity()": {
        "notice": "Pool deposit maturity"
      },
      "depositWindow()": {
        "notice": "Pool deposit window (in seconds)"
      },
      "dueInterestOf(address)": {
        "notice": "Calculates the total interest and penalty for the next payment to the lender"
      },
      "dueOf(address)": {
        "notice": "Calculates the due amount for repayment including interestAccrued, penalty fee and spread for the lender"
      },
      "factory()": {
        "notice": "Pool factory address"
      },
      "getNextPaymentTimestamp()": {
        "notice": "Calculates the next payment timestamp for the borrower"
      },
      "incrementPerRoll()": {
        "notice": "Pool rolling increment fee rate"
      },
      "isBulletLoan()": {
        "notice": "Pool repayment option. Bullet loan or monthly repayment"
      },
      "isClosed()": {
        "notice": "Pool availability status"
      },
      "isPublic()": {
        "notice": "Pool publicity status"
      },
      "isRollRequested()": {
        "notice": "Roll request status"
      },
      "lastPaidTimestamp()": {
        "notice": "The last timestamp at which a payment was made or received in monthly repayment pool."
      },
      "lend(uint256)": {
        "notice": "Lends funds to the pool"
      },
      "markPoolDefaulted()": {
        "notice": "Defaults the pool"
      },
      "maturityDate()": {
        "notice": "Pool maturity date"
      },
      "maxSize()": {
        "notice": "Pool maximum size"
      },
      "originationRate()": {
        "notice": "Origination fee rate"
      },
      "penaltyOf(address)": {
        "notice": "When maturity date passed, calculates the penalty fee for the lender"
      },
      "penaltyRate(uint256)": {
        "notice": "Calculates the penalty rate for a given interval"
      },
      "penaltyRatePerYear()": {
        "notice": "Pool penalty rate calculated for 1 year"
      },
      "prime()": {
        "notice": "Returns Prime address"
      },
      "rateMantissa()": {
        "notice": "Pool interest rate (in mantissa)"
      },
      "repay(address)": {
        "notice": "Fully repays the lender with the principal and interest"
      },
      "repayAll()": {
        "notice": "Repays all lenders with the principal and interest"
      },
      "repayInterest()": {
        "notice": "Repays interest to the lender"
      },
      "requestCallBack()": {
        "notice": "Creates the callback"
      },
      "requestRoll()": {
        "notice": "Requests the roll"
      },
      "spreadRate()": {
        "notice": "Protocol spread rate"
      },
      "switchToPublic()": {
        "notice": "Converts the pool to public"
      },
      "tenor()": {
        "notice": "Pool tenor"
      },
      "totalDue()": {
        "notice": "Calculates the total due amount for repayment including interestAccrued, penalty fee and spread for all lenders"
      },
      "totalDueInterest()": {
        "notice": "Calculates the total interest and penalty amount for the next payment for all lenders"
      },
      "whitelistLenders(bytes)": {
        "notice": "Whitelists lenders"
      }
    },
    "version": 1
  },
  "storageLayout": {
    "storage": [
      {
        "astId": 138,
        "contract": "contracts/Pool/Pool.sol:Pool",
        "label": "_initialized",
        "offset": 0,
        "slot": "0",
        "type": "t_uint8"
      },
      {
        "astId": 141,
        "contract": "contracts/Pool/Pool.sol:Pool",
        "label": "_initializing",
        "offset": 1,
        "slot": "0",
        "type": "t_bool"
      },
      {
        "astId": 314,
        "contract": "contracts/Pool/Pool.sol:Pool",
        "label": "_status",
        "offset": 0,
        "slot": "1",
        "type": "t_uint256"
      },
      {
        "astId": 372,
        "contract": "contracts/Pool/Pool.sol:Pool",
        "label": "__gap",
        "offset": 0,
        "slot": "2",
        "type": "t_array(t_uint256)49_storage"
      },
      {
        "astId": 6478,
        "contract": "contracts/Pool/Pool.sol:Pool",
        "label": "isBulletLoan",
        "offset": 0,
        "slot": "51",
        "type": "t_bool"
      },
      {
        "astId": 6481,
        "contract": "contracts/Pool/Pool.sol:Pool",
        "label": "isPublic",
        "offset": 1,
        "slot": "51",
        "type": "t_bool"
      },
      {
        "astId": 6484,
        "contract": "contracts/Pool/Pool.sol:Pool",
        "label": "isClosed",
        "offset": 2,
        "slot": "51",
        "type": "t_bool"
      },
      {
        "astId": 6487,
        "contract": "contracts/Pool/Pool.sol:Pool",
        "label": "isRollRequested",
        "offset": 3,
        "slot": "51",
        "type": "t_bool"
      },
      {
        "astId": 6490,
        "contract": "contracts/Pool/Pool.sol:Pool",
        "label": "borrower",
        "offset": 4,
        "slot": "51",
        "type": "t_address"
      },
      {
        "astId": 6493,
        "contract": "contracts/Pool/Pool.sol:Pool",
        "label": "asset",
        "offset": 0,
        "slot": "52",
        "type": "t_address"
      },
      {
        "astId": 6497,
        "contract": "contracts/Pool/Pool.sol:Pool",
        "label": "factory",
        "offset": 0,
        "slot": "53",
        "type": "t_contract(IPoolFactory)6438"
      },
      {
        "astId": 6500,
        "contract": "contracts/Pool/Pool.sol:Pool",
        "label": "currentSize",
        "offset": 0,
        "slot": "54",
        "type": "t_uint256"
      },
      {
        "astId": 6503,
        "contract": "contracts/Pool/Pool.sol:Pool",
        "label": "maxSize",
        "offset": 0,
        "slot": "55",
        "type": "t_uint256"
      },
      {
        "astId": 6506,
        "contract": "contracts/Pool/Pool.sol:Pool",
        "label": "rateMantissa",
        "offset": 0,
        "slot": "56",
        "type": "t_uint256"
      },
      {
        "astId": 6509,
        "contract": "contracts/Pool/Pool.sol:Pool",
        "label": "spreadRate",
        "offset": 0,
        "slot": "57",
        "type": "t_uint256"
      },
      {
        "astId": 6512,
        "contract": "contracts/Pool/Pool.sol:Pool",
        "label": "originationRate",
        "offset": 0,
        "slot": "58",
        "type": "t_uint256"
      },
      {
        "astId": 6515,
        "contract": "contracts/Pool/Pool.sol:Pool",
        "label": "incrementPerRoll",
        "offset": 0,
        "slot": "59",
        "type": "t_uint256"
      },
      {
        "astId": 6518,
        "contract": "contracts/Pool/Pool.sol:Pool",
        "label": "depositWindow",
        "offset": 0,
        "slot": "60",
        "type": "t_uint256"
      },
      {
        "astId": 6521,
        "contract": "contracts/Pool/Pool.sol:Pool",
        "label": "depositMaturity",
        "offset": 0,
        "slot": "61",
        "type": "t_uint256"
      },
      {
        "astId": 6524,
        "contract": "contracts/Pool/Pool.sol:Pool",
        "label": "tenor",
        "offset": 0,
        "slot": "62",
        "type": "t_uint256"
      },
      {
        "astId": 6527,
        "contract": "contracts/Pool/Pool.sol:Pool",
        "label": "maturityDate",
        "offset": 0,
        "slot": "63",
        "type": "t_uint256"
      },
      {
        "astId": 6530,
        "contract": "contracts/Pool/Pool.sol:Pool",
        "label": "activeRollId",
        "offset": 0,
        "slot": "64",
        "type": "t_uint256"
      },
      {
        "astId": 6533,
        "contract": "contracts/Pool/Pool.sol:Pool",
        "label": "lastPaidTimestamp",
        "offset": 0,
        "slot": "65",
        "type": "t_uint256"
      },
      {
        "astId": 6536,
        "contract": "contracts/Pool/Pool.sol:Pool",
        "label": "defaultedAt",
        "offset": 0,
        "slot": "66",
        "type": "t_uint256"
      },
      {
        "astId": 6540,
        "contract": "contracts/Pool/Pool.sol:Pool",
        "label": "_lenders",
        "offset": 0,
        "slot": "67",
        "type": "t_array(t_address)dyn_storage"
      },
      {
        "astId": 6543,
        "contract": "contracts/Pool/Pool.sol:Pool",
        "label": "_nextRollId",
        "offset": 0,
        "slot": "68",
        "type": "t_uint256"
      },
      {
        "astId": 6546,
        "contract": "contracts/Pool/Pool.sol:Pool",
        "label": "_activeLendersCount",
        "offset": 0,
        "slot": "69",
        "type": "t_uint256"
      },
      {
        "astId": 6549,
        "contract": "contracts/Pool/Pool.sol:Pool",
        "label": "_activeCallbacksCount",
        "offset": 0,
        "slot": "70",
        "type": "t_uint256"
      },
      {
        "astId": 6555,
        "contract": "contracts/Pool/Pool.sol:Pool",
        "label": "poolMembers",
        "offset": 0,
        "slot": "71",
        "type": "t_mapping(t_address,t_struct(Member)6213_storage)"
      },
      {
        "astId": 6561,
        "contract": "contracts/Pool/Pool.sol:Pool",
        "label": "_poolRolls",
        "offset": 0,
        "slot": "72",
        "type": "t_mapping(t_uint256,t_struct(Roll)6218_storage)"
      },
      {
        "astId": 6568,
        "contract": "contracts/Pool/Pool.sol:Pool",
        "label": "_lenderPositions",
        "offset": 0,
        "slot": "73",
        "type": "t_mapping(t_address,t_array(t_struct(Position)6230_storage)dyn_storage)"
      },
      {
        "astId": 6574,
        "contract": "contracts/Pool/Pool.sol:Pool",
        "label": "_poolCallbacks",
        "offset": 0,
        "slot": "74",
        "type": "t_mapping(t_address,t_struct(CallBack)6223_storage)"
      },
      {
        "astId": 6577,
        "contract": "contracts/Pool/Pool.sol:Pool",
        "label": "penaltyRatePerYear",
        "offset": 0,
        "slot": "75",
        "type": "t_uint256"
      },
      {
        "astId": 6580,
        "contract": "contracts/Pool/Pool.sol:Pool",
        "label": "monthlyPaymentRoundDuration",
        "offset": 0,
        "slot": "76",
        "type": "t_uint256"
      },
      {
        "astId": 6583,
        "contract": "contracts/Pool/Pool.sol:Pool",
        "label": "rollRangeDuration",
        "offset": 0,
        "slot": "77",
        "type": "t_uint256"
      },
      {
        "astId": 6586,
        "contract": "contracts/Pool/Pool.sol:Pool",
        "label": "gracePeriodDuration",
        "offset": 0,
        "slot": "78",
        "type": "t_uint256"
      }
    ],
    "types": {
      "t_address": {
        "encoding": "inplace",
        "label": "address",
        "numberOfBytes": "20"
      },
      "t_array(t_address)dyn_storage": {
        "base": "t_address",
        "encoding": "dynamic_array",
        "label": "address[]",
        "numberOfBytes": "32"
      },
      "t_array(t_struct(Position)6230_storage)dyn_storage": {
        "base": "t_struct(Position)6230_storage",
        "encoding": "dynamic_array",
        "label": "struct IPool.Position[]",
        "numberOfBytes": "32"
      },
      "t_array(t_uint256)49_storage": {
        "base": "t_uint256",
        "encoding": "inplace",
        "label": "uint256[49]",
        "numberOfBytes": "1568"
      },
      "t_bool": {
        "encoding": "inplace",
        "label": "bool",
        "numberOfBytes": "1"
      },
      "t_contract(IPoolFactory)6438": {
        "encoding": "inplace",
        "label": "contract IPoolFactory",
        "numberOfBytes": "20"
      },
      "t_mapping(t_address,t_array(t_struct(Position)6230_storage)dyn_storage)": {
        "encoding": "mapping",
        "key": "t_address",
        "label": "mapping(address => struct IPool.Position[])",
        "numberOfBytes": "32",
        "value": "t_array(t_struct(Position)6230_storage)dyn_storage"
      },
      "t_mapping(t_address,t_struct(CallBack)6223_storage)": {
        "encoding": "mapping",
        "key": "t_address",
        "label": "mapping(address => struct IPool.CallBack)",
        "numberOfBytes": "32",
        "value": "t_struct(CallBack)6223_storage"
      },
      "t_mapping(t_address,t_struct(Member)6213_storage)": {
        "encoding": "mapping",
        "key": "t_address",
        "label": "mapping(address => struct IPool.Member)",
        "numberOfBytes": "32",
        "value": "t_struct(Member)6213_storage"
      },
      "t_mapping(t_uint256,t_struct(Roll)6218_storage)": {
        "encoding": "mapping",
        "key": "t_uint256",
        "label": "mapping(uint256 => struct IPool.Roll)",
        "numberOfBytes": "32",
        "value": "t_struct(Roll)6218_storage"
      },
      "t_struct(CallBack)6223_storage": {
        "encoding": "inplace",
        "label": "struct IPool.CallBack",
        "members": [
          {
            "astId": 6220,
            "contract": "contracts/Pool/Pool.sol:Pool",
            "label": "isCreated",
            "offset": 0,
            "slot": "0",
            "type": "t_bool"
          },
          {
            "astId": 6222,
            "contract": "contracts/Pool/Pool.sol:Pool",
            "label": "timestamp",
            "offset": 0,
            "slot": "1",
            "type": "t_uint256"
          }
        ],
        "numberOfBytes": "64"
      },
      "t_struct(Member)6213_storage": {
        "encoding": "inplace",
        "label": "struct IPool.Member",
        "members": [
          {
            "astId": 6202,
            "contract": "contracts/Pool/Pool.sol:Pool",
            "label": "isCreated",
            "offset": 0,
            "slot": "0",
            "type": "t_bool"
          },
          {
            "astId": 6204,
            "contract": "contracts/Pool/Pool.sol:Pool",
            "label": "isWhitelisted",
            "offset": 1,
            "slot": "0",
            "type": "t_bool"
          },
          {
            "astId": 6206,
            "contract": "contracts/Pool/Pool.sol:Pool",
            "label": "principal",
            "offset": 0,
            "slot": "1",
            "type": "t_uint256"
          },
          {
            "astId": 6208,
            "contract": "contracts/Pool/Pool.sol:Pool",
            "label": "accrualTs",
            "offset": 0,
            "slot": "2",
            "type": "t_uint256"
          },
          {
            "astId": 6210,
            "contract": "contracts/Pool/Pool.sol:Pool",
            "label": "totalOriginationFee",
            "offset": 0,
            "slot": "3",
            "type": "t_uint256"
          },
          {
            "astId": 6212,
            "contract": "contracts/Pool/Pool.sol:Pool",
            "label": "totalInterest",
            "offset": 0,
            "slot": "4",
            "type": "t_uint256"
          }
        ],
        "numberOfBytes": "160"
      },
      "t_struct(Position)6230_storage": {
        "encoding": "inplace",
        "label": "struct IPool.Position",
        "members": [
          {
            "astId": 6225,
            "contract": "contracts/Pool/Pool.sol:Pool",
            "label": "interest",
            "offset": 0,
            "slot": "0",
            "type": "t_uint256"
          },
          {
            "astId": 6227,
            "contract": "contracts/Pool/Pool.sol:Pool",
            "label": "startAt",
            "offset": 0,
            "slot": "1",
            "type": "t_uint256"
          },
          {
            "astId": 6229,
            "contract": "contracts/Pool/Pool.sol:Pool",
            "label": "endAt",
            "offset": 0,
            "slot": "2",
            "type": "t_uint256"
          }
        ],
        "numberOfBytes": "96"
      },
      "t_struct(Roll)6218_storage": {
        "encoding": "inplace",
        "label": "struct IPool.Roll",
        "members": [
          {
            "astId": 6215,
            "contract": "contracts/Pool/Pool.sol:Pool",
            "label": "startDate",
            "offset": 0,
            "slot": "0",
            "type": "t_uint256"
          },
          {
            "astId": 6217,
            "contract": "contracts/Pool/Pool.sol:Pool",
            "label": "endDate",
            "offset": 0,
            "slot": "1",
            "type": "t_uint256"
          }
        ],
        "numberOfBytes": "64"
      },
      "t_uint256": {
        "encoding": "inplace",
        "label": "uint256",
        "numberOfBytes": "32"
      },
      "t_uint8": {
        "encoding": "inplace",
        "label": "uint8",
        "numberOfBytes": "1"
      }
    }
  }
}