{
  "address": "0x5f3f8c8Ca81f7bA02DF3f59D3Fb9a1d1c3f0dB1B",
  "abi": [
    {
      "anonymous": false,
      "inputs": [
        {
          "indexed": false,
          "internalType": "uint8",
          "name": "version",
          "type": "uint8"
        }
      ],
      "name": "Initialized",
      "type": "event"
    },
    {
      "anonymous": false,
      "inputs": [
        {
          "indexed": false,
          "internalType": "uint256",
          "name": "newValue",
          "type": "uint256"
        }
      ],
      "name": "LiquidityMinRangeChanged",
      "type": "event"
    },
    {
      "anonymous": false,
      "inputs": [
        {
          "indexed": false,
          "internalType": "uint256",
          "name": "newValue",
          "type": "uint256"
        }
      ],
      "name": "MinDepositWindowChanged",
      "type": "event"
    },
    {
      "anonymous": false,
      "inputs": [
        {
          "indexed": false,
          "internalType": "uint256",
          "name": "newValue",
          "type": "uint256"
        }
      ],
      "name": "MinMonthlyMaturityChanged",
      "type": "event"
    },
    {
      "anonymous": false,
      "inputs": [
        {
          "indexed": true,
          "internalType": "address",
          "name": "previousOwner",
          "type": "address"
        },
        {
          "indexed": true,
          "internalType": "address",
          "name": "newOwner",
          "type": "address"
        }
      ],
      "name": "OwnershipTransferred",
      "type": "event"
    },
    {
      "anonymous": false,
      "inputs": [
        {
          "indexed": false,
          "internalType": "address",
          "name": "oldAddress",
          "type": "address"
        },
        {
          "indexed": false,
          "internalType": "address",
          "name": "newAddress",
          "type": "address"
        }
      ],
      "name": "PoolBeaconChanged",
      "type": "event"
    },
    {
      "anonymous": false,
      "inputs": [
        {
          "indexed": false,
          "internalType": "address",
          "name": "pool",
          "type": "address"
        },
        {
          "indexed": true,
          "internalType": "address",
          "name": "borrower",
          "type": "address"
        },
        {
          "indexed": false,
          "internalType": "bool",
          "name": "isBulletLoan",
          "type": "bool"
        },
        {
          "indexed": true,
          "internalType": "address",
          "name": "asset",
          "type": "address"
        },
        {
          "indexed": false,
          "internalType": "uint256",
          "name": "size",
          "type": "uint256"
        },
        {
          "indexed": false,
          "internalType": "uint256",
          "name": "rateMantissa",
          "type": "uint256"
        },
        {
          "indexed": false,
          "internalType": "uint256",
          "name": "tenor",
          "type": "uint256"
        },
        {
          "indexed": false,
          "internalType": "uint256",
          "name": "depositWindow",
          "type": "uint256"
        },
        {
          "indexed": false,
          "internalType": "uint256",
          "name": "spreadRate",
          "type": "uint256"
        },
        {
          "indexed": false,
          "internalType": "uint256",
          "name": "originationRate",
          "type": "uint256"
        },
        {
          "indexed": false,
          "internalType": "uint256",
          "name": "incrementPerRoll",
          "type": "uint256"
        },
        {
          "indexed": false,
          "internalType": "uint256",
          "name": "penaltyRatePerYear",
          "type": "uint256"
        }
      ],
      "name": "PoolCreated",
      "type": "event"
    },
    {
      "anonymous": false,
      "inputs": [
        {
          "indexed": false,
          "internalType": "address",
          "name": "oldAddress",
          "type": "address"
        },
        {
          "indexed": false,
          "internalType": "address",
          "name": "newAddress",
          "type": "address"
        }
      ],
      "name": "PrimeContractChanged",
      "type": "event"
    },
    {
      "inputs": [
        {
          "internalType": "address",
          "name": "_prime",
          "type": "address"
        },
        {
          "internalType": "address",
          "name": "_poolBeacon",
          "type": "address"
        }
      ],
      "name": "__PoolFactory_init",
      "outputs": [],
      "stateMutability": "nonpayable",
      "type": "function"
    },
    {
      "inputs": [
        {
          "components": [
            {
              "internalType": "bool",
              "name": "isBulletLoan",
              "type": "bool"
            },
            {
              "internalType": "address",
              "name": "asset",
              "type": "address"
            },
            {
              "internalType": "uint256",
              "name": "size",
              "type": "uint256"
            },
            {
              "internalType": "uint256",
              "name": "tenor",
              "type": "uint256"
            },
            {
              "internalType": "uint256",
              "name": "rateMantissa",
              "type": "uint256"
            },
            {
              "internalType": "uint256",
              "name": "depositWindow",
              "type": "uint256"
            }
          ],
          "internalType": "struct IPool.PoolData",
          "name": "pooldata",
          "type": "tuple"
        },
        {
          "internalType": "bytes",
          "name": "members",
          "type": "bytes"
        }
      ],
      "name": "createPool",
      "outputs": [],
      "stateMutability": "nonpayable",
      "type": "function"
    },
    {
      "inputs": [
        {
          "internalType": "address[]",
          "name": "_pools",
          "type": "address[]"
        }
      ],
      "name": "defaultPools",
      "outputs": [],
      "stateMutability": "nonpayable",
      "type": "function"
    },
    {
      "inputs": [],
      "name": "getPools",
      "outputs": [
        {
          "internalType": "address[]",
          "name": "",
          "type": "address[]"
        }
      ],
      "stateMutability": "view",
      "type": "function"
    },
    {
      "inputs": [],
      "name": "owner",
      "outputs": [
        {
          "internalType": "address",
          "name": "",
          "type": "address"
        }
      ],
      "stateMutability": "view",
      "type": "function"
    },
    {
      "inputs": [],
      "name": "poolBeacon",
      "outputs": [
        {
          "internalType": "address",
          "name": "",
          "type": "address"
        }
      ],
      "stateMutability": "view",
      "type": "function"
    },
    {
      "inputs": [
        {
          "internalType": "uint256",
          "name": "",
          "type": "uint256"
        }
      ],
      "name": "pools",
      "outputs": [
        {
          "internalType": "address",
          "name": "",
          "type": "address"
        }
      ],
      "stateMutability": "view",
      "type": "function"
    },
    {
      "inputs": [],
      "name": "prime",
      "outputs": [
        {
          "internalType": "contract IPrime",
          "name": "",
          "type": "address"
        }
      ],
      "stateMutability": "view",
      "type": "function"
    },
    {
      "inputs": [],
      "name": "renounceOwnership",
      "outputs": [],
      "stateMutability": "nonpayable",
      "type": "function"
    },
    {
      "inputs": [
        {
          "internalType": "address",
          "name": "_newPoolBeacon",
          "type": "address"
        }
      ],
      "name": "setPoolBeacon",
      "outputs": [],
      "stateMutability": "nonpayable",
      "type": "function"
    },
    {
      "inputs": [
        {
          "internalType": "address",
          "name": "newAddress",
          "type": "address"
        }
      ],
      "name": "setPrimeContract",
      "outputs": [],
      "stateMutability": "nonpayable",
      "type": "function"
    },
    {
      "inputs": [
        {
          "internalType": "address",
          "name": "newOwner",
          "type": "address"
        }
      ],
      "name": "transferOwnership",
      "outputs": [],
      "stateMutability": "nonpayable",
      "type": "function"
    },
    {
      "inputs": [
        {
          "internalType": "uint256",
          "name": "newValue",
          "type": "uint256"
        }
      ],
      "name": "updateLiquidityMinRange",
      "outputs": [],
      "stateMutability": "nonpayable",
      "type": "function"
    },
    {
      "inputs": [
        {
          "internalType": "uint256",
          "name": "newValue",
          "type": "uint256"
        }
      ],
      "name": "updateMinDepositWindow",
      "outputs": [],
      "stateMutability": "nonpayable",
      "type": "function"
    },
    {
      "inputs": [
        {
          "internalType": "uint256",
          "name": "newValue",
          "type": "uint256"
        }
      ],
      "name": "updateMinMonthlyMaturity",
      "outputs": [],
      "stateMutability": "nonpayable",
      "type": "function"
    }
  ],
  "transactionHash": "0xd11d753a99f2fbc4e64fbd0221c3a5cf870584be57daef4fb9cae5645f415c74",
  "args": [],
  "numDeployments": 2,
  "solcInputHash": "8c5f1d733fcdadb859f8259dc1ed9ca5",
  "bytecode": "0x608060405234801561001057600080fd5b5061001961001e565b6100de565b600054610100900460ff161561008a5760405162461bcd60e51b815260206004820152602760248201527f496e697469616c697a61626c653a20636f6e747261637420697320696e697469604482015266616c697a696e6760c81b606482015260840160405180910390fd5b60005460ff90811610156100dc576000805460ff191660ff9081179091556040519081527f7f26b83ff96e1f2b6a682f133852f6798a09c465da95921460cefb38474024989060200160405180910390a15b565b611def806100ed6000396000f3fe60806040523480156200001157600080fd5b5060043610620001095760003560e01c8063ac4afa3811620000a3578063d25b8b16116200006e578063d25b8b161462000214578063d419f547146200022b578063f2fde38b1462000242578063f6053562146200025957600080fd5b8063ac4afa3814620001be578063b259d67614620001d5578063c5a7b2ea14620001ec578063c7ee005e146200020057600080fd5b8063715018a611620000e4578063715018a6146200016057806378be7605146200016a5780638d92920f14620001815780638da5cb5b146200019857600080fd5b806314a875ef146200010e5780633368f9ec1462000127578063673a2a1f146200013e575b600080fd5b620001256200011f366004620010ca565b62000270565b005b620001256200013836600462001101565b620002b6565b6200014862000480565b60405162000157919062001139565b60405180910390f35b62000125620004e4565b620001256200017b36600462001188565b620004fc565b620001256200019236600462001202565b620005ad565b6033546001600160a01b03165b6040516001600160a01b03909116815260200162000157565b620001a5620001cf366004620010ca565b62000bbf565b62000125620001e636600462001293565b62000bea565b609854620001a5906001600160a01b031681565b609754620001a5906001600160a01b031681565b6200012562000225366004620010ca565b62000cc3565b620001256200023c36600462001293565b62000d03565b620001256200025336600462001293565b62000ddc565b620001256200026a366004620010ca565b62000e5b565b6200027a62000e9b565b609b8190556040518181527f567e0bce27294e623b9d4e6c3908c5ef5e1e8c734d29a5fe7395348a8a213182906020015b60405180910390a150565b816001600160a01b038116620002e95760405162461bcd60e51b8152600401620002e090620012b8565b60405180910390fd5b816001600160a01b038116620003135760405162461bcd60e51b8152600401620002e090620012b8565b600054610100900460ff1615808015620003345750600054600160ff909116105b80620003505750303b15801562000350575060005460ff166001145b620003b55760405162461bcd60e51b815260206004820152602e60248201527f496e697469616c697a61626c653a20636f6e747261637420697320616c72656160448201526d191e481a5b9a5d1a585b1a5e995960921b6064820152608401620002e0565b6000805460ff191660011790558015620003d9576000805461ff0019166101001790555b620003e362000ef7565b620003ed62000f2b565b609780546001600160a01b038088166001600160a01b0319928316179092556098805492871692909116919091179055610e10609a556255b180609c556202b110609b55801562000479576000805461ff0019169055604051600181527f7f26b83ff96e1f2b6a682f133852f6798a09c465da95921460cefb3847402498906020015b60405180910390a15b5050505050565b60606099805480602002602001604051908101604052809291908181526020018280548015620004da57602002820191906000526020600020905b81546001600160a01b03168152600190910190602001808311620004bb575b5050505050905090565b620004ee62000e9b565b620004fa600062000f5f565b565b6200050662000e9b565b8060005b81811015620005a757838382818110620005285762000528620012d5565b90506020020160208101906200053f919062001293565b6001600160a01b0316636e4a3a566040518163ffffffff1660e01b8152600401600060405180830381600087803b1580156200057a57600080fd5b505af11580156200058f573d6000803e3d6000fd5b50505050806200059f9062001301565b90506200050a565b50505050565b620005b83362000fb1565b620005ca604084016020850162001293565b6001600160a01b038116620005f35760405162461bcd60e51b8152600401620002e090620012b8565b836040013580600003620006305760405162461bcd60e51b815260206004820152600360248201526216959360ea1b6044820152606401620002e0565b609a548560a0013510156200066e5760405162461bcd60e51b81526020600482015260036024820152622aaa2960e91b6044820152606401620002e0565b609b54620006819060a08701356200131d565b85606001351015620006bc5760405162461bcd60e51b815260206004820152600360248201526211115560ea1b6044820152606401620002e0565b620006cb602086018662001348565b6200070e57609c54856060013510156200070e5760405162461bcd60e51b815260206004820152600360248201526254545360e81b6044820152606401620002e0565b6097546001600160a01b031663723ae6fd62000731604088016020890162001293565b6040516001600160e01b031960e084901b1681526001600160a01b039091166004820152602401602060405180830381865afa15801562000776573d6000803e3d6000fd5b505050506040513d601f19601f820116820180604052508101906200079c919062001368565b620007d05760405162461bcd60e51b815260206004820152600360248201526241414960e81b6044820152606401620002e0565b6040805160808101808352609754630d692cc160e01b909152915160009282916001600160a01b0390911690630d692cc1906084808501916020918187030181865afa15801562000825573d6000803e3d6000fd5b505050506040513d601f19601f820116820180604052508101906200084b919062001388565b815260975460408051635ab2af5160e01b815290516020938401936001600160a01b0390931692635ab2af5192600480820193918290030181865afa15801562000899573d6000803e3d6000fd5b505050506040513d601f19601f82011682018060405250810190620008bf919062001388565b815260975460408051630821b10b60e41b815290516020938401936001600160a01b039093169263821b10b092600480820193918290030181865afa1580156200090d573d6000803e3d6000fd5b505050506040513d601f19601f8201168201806040525081019062000933919062001388565b815260975460408051630bcaa0e560e11b815290516020938401936001600160a01b039093169263179541ca92600480820193918290030181865afa15801562000981573d6000803e3d6000fd5b505050506040513d601f19601f82011682018060405250810190620009a7919062001388565b90526098546040519192506000916001600160a01b0390911690620009cc90620010bc565b6001600160a01b039091168152604060208201819052600090820152606001604051809103906000f08015801562000a08573d6000803e3d6000fd5b509050806001600160a01b03166370acf9293384600001518560200151866040015187606001518d8d8d6040518963ffffffff1660e01b815260040162000a57989796959493929190620013cb565b600060405180830381600087803b15801562000a7257600080fd5b505af115801562000a87573d6000803e3d6000fd5b5050609980546001810182556000919091527f72a152ddfb8e864297c917af52ea6c1c68aead0fee1a62673fcc7e0c94979d000180546001600160a01b0319166001600160a01b0385161790555062000ae99050604088016020890162001293565b6001600160a01b0316337f060bdfb1ef7d46adcc1a084cd4b4fa4f39eabbb0549b04739046714dcb43499e8362000b2460208c018c62001348565b8b604001358c608001358d606001358e60a001358a600001518b602001518c604001518d6060015160405162000bae9a999897969594939291906001600160a01b039a909a168a5297151560208a015260408901969096526060880194909452608087019290925260a086015260c085015260e08401526101008301526101208201526101400190565b60405180910390a350505050505050565b6099818154811062000bd057600080fd5b6000918252602090912001546001600160a01b0316905081565b806001600160a01b03811662000c145760405162461bcd60e51b8152600401620002e090620012b8565b60975482906001600160a01b0390811690821681900362000c5e5760405162461bcd60e51b815260206004820152600360248201526253564160e81b6044820152606401620002e0565b62000c6862000e9b565b609780546001600160a01b038681166001600160a01b031983168117909355604080519190921680825260208201939093527f7420a01eb78f8a1cd1067ce15e63926d1f4cac69de252145a6f442da57ffceca910162000470565b62000ccd62000e9b565b609a8190556040518181527f3db3d554ea38c5791c755aa50cb5ff9366e0218ce7d2d4a4202ca481971a4fb090602001620002ab565b806001600160a01b03811662000d2d5760405162461bcd60e51b8152600401620002e090620012b8565b60985482906001600160a01b0390811690821681900362000d775760405162461bcd60e51b815260206004820152600360248201526253564160e81b6044820152606401620002e0565b62000d8162000e9b565b609880546001600160a01b038681166001600160a01b031983168117909355604080519190921680825260208201939093527fb6f2325cc459e49287a1055e21ce6efc4fdbf00529394428642344370edceceb910162000470565b62000de662000e9b565b6001600160a01b03811662000e4d5760405162461bcd60e51b815260206004820152602660248201527f4f776e61626c653a206e6577206f776e657220697320746865207a65726f206160448201526564647265737360d01b6064820152608401620002e0565b62000e588162000f5f565b50565b62000e6562000e9b565b609c8190556040518181527f6f7a3aacc68a5100c895fa35ec822ffa6807cc3d781a9276741b08f7fb0da33890602001620002ab565b6033546001600160a01b03163314620004fa5760405162461bcd60e51b815260206004820181905260248201527f4f776e61626c653a2063616c6c6572206973206e6f7420746865206f776e65726044820152606401620002e0565b600054610100900460ff1662000f215760405162461bcd60e51b8152600401620002e0906200146e565b620004fa62001056565b600054610100900460ff1662000f555760405162461bcd60e51b8152600401620002e0906200146e565b620004fa6200108b565b603380546001600160a01b038381166001600160a01b0319831681179093556040519116919082907f8be0079c531659141344cd1fd0a4f28419497f9722a3daafe3b4186f6b6457e090600090a35050565b60975460405163288c314960e21b81526001600160a01b0383811660048301529091169063a230c52490602401602060405180830381865afa15801562000ffc573d6000803e3d6000fd5b505050506040513d601f19601f8201168201806040525081019062001022919062001368565b62000e585760405162461bcd60e51b81526020600482015260036024820152624e504d60e81b6044820152606401620002e0565b600054610100900460ff16620010805760405162461bcd60e51b8152600401620002e0906200146e565b620004fa3362000f5f565b600054610100900460ff16620010b55760405162461bcd60e51b8152600401620002e0906200146e565b6001606555565b61090080620014ba83390190565b600060208284031215620010dd57600080fd5b5035919050565b80356001600160a01b0381168114620010fc57600080fd5b919050565b600080604083850312156200111557600080fd5b6200112083620010e4565b91506200113060208401620010e4565b90509250929050565b6020808252825182820181905260009190848201906040850190845b818110156200117c5783516001600160a01b03168352928401929184019160010162001155565b50909695505050505050565b600080602083850312156200119c57600080fd5b823567ffffffffffffffff80821115620011b557600080fd5b818501915085601f830112620011ca57600080fd5b813581811115620011da57600080fd5b8660208260051b8501011115620011f057600080fd5b60209290920196919550909350505050565b600080600083850360e08112156200121957600080fd5b60c08112156200122857600080fd5b5083925060c084013567ffffffffffffffff808211156200124857600080fd5b818601915086601f8301126200125d57600080fd5b8135818111156200126d57600080fd5b8760208285010111156200128057600080fd5b6020830194508093505050509250925092565b600060208284031215620012a657600080fd5b620012b182620010e4565b9392505050565b6020808252600390820152624e5a4160e81b604082015260600190565b634e487b7160e01b600052603260045260246000fd5b634e487b7160e01b600052601160045260246000fd5b600060018201620013165762001316620012eb565b5060010190565b80820180821115620013335762001333620012eb565b92915050565b801515811462000e5857600080fd5b6000602082840312156200135b57600080fd5b8135620012b18162001339565b6000602082840312156200137b57600080fd5b8151620012b18162001339565b6000602082840312156200139b57600080fd5b5051919050565b81835281816020850137506000828201602090810191909152601f909101601f19169091010190565b600061018060018060a01b03808c1684528a60208501528960408501528860608501528760808501528635620014018162001339565b151560a0850152806200141760208901620010e4565b1660c085015250604086013560e08401526060860135610100840152608086013561012084015260a0860135610140840152806101608401526200145f8184018587620013a2565b9b9a5050505050505050505050565b6020808252602b908201527f496e697469616c697a61626c653a20636f6e7472616374206973206e6f74206960408201526a6e697469616c697a696e6760a81b60608201526080019056fe60806040526040516109003803806109008339810160408190526100229161045b565b61002e82826000610035565b5050610585565b61003e83610100565b6040516001600160a01b038416907f1cf3b03a6cf19fa2baba4df148e9dcabedea7f8a5c07840e207e5c089be95d3e90600090a260008251118061007f5750805b156100fb576100f9836001600160a01b0316635c60da1b6040518163ffffffff1660e01b8152600401602060405180830381865afa1580156100c5573d6000803e3d6000fd5b505050506040513d601f19601f820116820180604052508101906100e9919061051b565b836102a360201b6100291760201c565b505b505050565b610113816102cf60201b6100551760201c565b6101725760405162461bcd60e51b815260206004820152602560248201527f455243313936373a206e657720626561636f6e206973206e6f74206120636f6e6044820152641d1c9858dd60da1b60648201526084015b60405180910390fd5b6101e6816001600160a01b0316635c60da1b6040518163ffffffff1660e01b8152600401602060405180830381865afa1580156101b3573d6000803e3d6000fd5b505050506040513d601f19601f820116820180604052508101906101d7919061051b565b6102cf60201b6100551760201c565b61024b5760405162461bcd60e51b815260206004820152603060248201527f455243313936373a20626561636f6e20696d706c656d656e746174696f6e206960448201526f1cc81b9bdd08184818dbdb9d1c9858dd60821b6064820152608401610169565b806102827fa3f0ad74e5423aebfd80d3ef4346578335a9a72aeaee59ff6cb3582b35133d5060001b6102de60201b6100641760201c565b80546001600160a01b0319166001600160a01b039290921691909117905550565b60606102c883836040518060600160405280602781526020016108d9602791396102e1565b9392505050565b6001600160a01b03163b151590565b90565b6060600080856001600160a01b0316856040516102fe9190610536565b600060405180830381855af49150503d8060008114610339576040519150601f19603f3d011682016040523d82523d6000602084013e61033e565b606091505b5090925090506103508683838761035a565b9695505050505050565b606083156103c95782516000036103c2576001600160a01b0385163b6103c25760405162461bcd60e51b815260206004820152601d60248201527f416464726573733a2063616c6c20746f206e6f6e2d636f6e74726163740000006044820152606401610169565b50816103d3565b6103d383836103db565b949350505050565b8151156103eb5781518083602001fd5b8060405162461bcd60e51b81526004016101699190610552565b80516001600160a01b038116811461041c57600080fd5b919050565b634e487b7160e01b600052604160045260246000fd5b60005b8381101561045257818101518382015260200161043a565b50506000910152565b6000806040838503121561046e57600080fd5b61047783610405565b60208401519092506001600160401b038082111561049457600080fd5b818501915085601f8301126104a857600080fd5b8151818111156104ba576104ba610421565b604051601f8201601f19908116603f011681019083821181831017156104e2576104e2610421565b816040528281528860208487010111156104fb57600080fd5b61050c836020830160208801610437565b80955050505050509250929050565b60006020828403121561052d57600080fd5b6102c882610405565b60008251610548818460208701610437565b9190910192915050565b6020815260008251806020840152610571816040850160208701610437565b601f01601f19169190910160400192915050565b610345806105946000396000f3fe60806040523661001357610011610017565b005b6100115b610027610022610067565b610100565b565b606061004e83836040518060600160405280602781526020016102e960279139610124565b9392505050565b6001600160a01b03163b151590565b90565b600061009a7fa3f0ad74e5423aebfd80d3ef4346578335a9a72aeaee59ff6cb3582b35133d50546001600160a01b031690565b6001600160a01b0316635c60da1b6040518163ffffffff1660e01b8152600401602060405180830381865afa1580156100d7573d6000803e3d6000fd5b505050506040513d601f19601f820116820180604052508101906100fb919061024c565b905090565b3660008037600080366000845af43d6000803e80801561011f573d6000f35b3d6000fd5b6060600080856001600160a01b0316856040516101419190610299565b600060405180830381855af49150503d806000811461017c576040519150601f19603f3d011682016040523d82523d6000602084013e610181565b606091505b50915091506101928683838761019c565b9695505050505050565b60608315610210578251600003610209576001600160a01b0385163b6102095760405162461bcd60e51b815260206004820152601d60248201527f416464726573733a2063616c6c20746f206e6f6e2d636f6e747261637400000060448201526064015b60405180910390fd5b508161021a565b61021a8383610222565b949350505050565b8151156102325781518083602001fd5b8060405162461bcd60e51b815260040161020091906102b5565b60006020828403121561025e57600080fd5b81516001600160a01b038116811461004e57600080fd5b60005b83811015610290578181015183820152602001610278565b50506000910152565b600082516102ab818460208701610275565b9190910192915050565b60208152600082518060208401526102d4816040850160208701610275565b601f01601f1916919091016040019291505056fe416464726573733a206c6f772d6c6576656c2064656c65676174652063616c6c206661696c6564a2646970667358221220ae0e54c9f0173e1225b786db993b2031af40ef1528490c55b6656f99ec7c25f664736f6c63430008110033416464726573733a206c6f772d6c6576656c2064656c65676174652063616c6c206661696c6564a264697066735822122003b19623f26a7b9b4bcaec29c9decb49e8d44db3451d09dc55f45c0b0c6030a164736f6c63430008110033",
  "devdoc": {
    "kind": "dev",
    "methods": {
      "__PoolFactory_init(address,address)": {
        "details": "This function is called only once during the contract deployment",
        "params": {
          "_poolBeacon": "Beacon address for pool proxy pattern",
          "_prime": "Prime contract address"
        }
      },
      "createPool((bool,address,uint256,uint256,uint256,uint256),bytes)": {
        "details": "Callable only by prime members",
        "params": {
          "members": "Pool members address encoded in bytes",
          "pooldata": "Bla bla bla"
        }
      },
      "defaultPools(address[])": {
        "details": "Callable only by owner"
      },
      "getPools()": {
        "returns": {
          "_0": "Array of pool addresses"
        }
      },
      "owner()": {
        "details": "Returns the address of the current owner."
      },
      "renounceOwnership()": {
        "details": "Leaves the contract without owner. It will not be possible to call `onlyOwner` functions anymore. Can only be called by the current owner. NOTE: Renouncing ownership will leave the contract without an owner, thereby removing any functionality that is only available to the owner."
      },
      "setPoolBeacon(address)": {
        "details": "Callable only by owner",
        "params": {
          "_newPoolBeacon": "New pool beacon address"
        }
      },
      "setPrimeContract(address)": {
        "details": "Callable only by owner",
        "params": {
          "newAddress": "New prime contract address"
        }
      },
      "transferOwnership(address)": {
        "details": "Transfers ownership of the contract to a new account (`newOwner`). Can only be called by the current owner."
      }
    },
    "version": 1
  },
  "userdoc": {
    "events": {
      "PoolBeaconChanged(address,address)": {
        "notice": "Emitted when pool beacon address is changed"
      },
      "PoolCreated(address,address,bool,address,uint256,uint256,uint256,uint256,uint256,uint256,uint256,uint256)": {
        "notice": "Emitted when a new pool is created"
      },
      "PrimeContractChanged(address,address)": {
        "notice": "Emitted when prime contract address is changed"
      }
    },
    "kind": "user",
    "methods": {
      "__PoolFactory_init(address,address)": {
        "notice": "Initialize the contract"
      },
      "createPool((bool,address,uint256,uint256,uint256,uint256),bytes)": {
        "notice": "Creates a new pool"
      },
      "defaultPools(address[])": {
        "notice": "Marks the pools as defaulted"
      },
      "getPools()": {
        "notice": "Returns the pools array"
      },
      "poolBeacon()": {
        "notice": "Beacon address for pool proxy pattern"
      },
      "pools(uint256)": {
        "notice": "Array of pool addresses"
      },
      "prime()": {
        "notice": "Prime contract address"
      },
      "setPoolBeacon(address)": {
        "notice": "Changes the pool beacon address"
      },
      "setPrimeContract(address)": {
        "notice": "Changes the prime contract address"
      }
    },
    "version": 1
  },
  "storageLayout": {
    "storage": [
      {
        "astId": 138,
        "contract": "contracts/mock/PoolFactoryHarness.sol:PoolFactoryHarness",
        "label": "_initialized",
        "offset": 0,
        "slot": "0",
        "type": "t_uint8"
      },
      {
        "astId": 141,
        "contract": "contracts/mock/PoolFactoryHarness.sol:PoolFactoryHarness",
        "label": "_initializing",
        "offset": 1,
        "slot": "0",
        "type": "t_bool"
      },
      {
        "astId": 1093,
        "contract": "contracts/mock/PoolFactoryHarness.sol:PoolFactoryHarness",
        "label": "__gap",
        "offset": 0,
        "slot": "1",
        "type": "t_array(t_uint256)50_storage"
      },
      {
        "astId": 10,
        "contract": "contracts/mock/PoolFactoryHarness.sol:PoolFactoryHarness",
        "label": "_owner",
        "offset": 0,
        "slot": "51",
        "type": "t_address"
      },
      {
        "astId": 130,
        "contract": "contracts/mock/PoolFactoryHarness.sol:PoolFactoryHarness",
        "label": "__gap",
        "offset": 0,
        "slot": "52",
        "type": "t_array(t_uint256)49_storage"
      },
      {
        "astId": 314,
        "contract": "contracts/mock/PoolFactoryHarness.sol:PoolFactoryHarness",
        "label": "_status",
        "offset": 0,
        "slot": "101",
        "type": "t_uint256"
      },
      {
        "astId": 372,
        "contract": "contracts/mock/PoolFactoryHarness.sol:PoolFactoryHarness",
        "label": "__gap",
        "offset": 0,
        "slot": "102",
        "type": "t_array(t_uint256)49_storage"
      },
      {
        "astId": 8962,
        "contract": "contracts/mock/PoolFactoryHarness.sol:PoolFactoryHarness",
        "label": "prime",
        "offset": 0,
        "slot": "151",
        "type": "t_contract(IPrime)9531"
      },
      {
        "astId": 8965,
        "contract": "contracts/mock/PoolFactoryHarness.sol:PoolFactoryHarness",
        "label": "poolBeacon",
        "offset": 0,
        "slot": "152",
        "type": "t_address"
      },
      {
        "astId": 8969,
        "contract": "contracts/mock/PoolFactoryHarness.sol:PoolFactoryHarness",
        "label": "pools",
        "offset": 0,
        "slot": "153",
        "type": "t_array(t_address)dyn_storage"
      },
      {
        "astId": 8972,
        "contract": "contracts/mock/PoolFactoryHarness.sol:PoolFactoryHarness",
        "label": "minDepositWindow",
        "offset": 0,
        "slot": "154",
        "type": "t_uint256"
      },
      {
        "astId": 8975,
        "contract": "contracts/mock/PoolFactoryHarness.sol:PoolFactoryHarness",
        "label": "liquidityMinRange",
        "offset": 0,
        "slot": "155",
        "type": "t_uint256"
      },
      {
        "astId": 8978,
        "contract": "contracts/mock/PoolFactoryHarness.sol:PoolFactoryHarness",
        "label": "minMonthlyMaturity",
        "offset": 0,
        "slot": "156",
        "type": "t_uint256"
      }
    ],
    "types": {
      "t_address": {
        "encoding": "inplace",
        "label": "address",
        "numberOfBytes": "20"
      },
      "t_array(t_address)dyn_storage": {
        "base": "t_address",
        "encoding": "dynamic_array",
        "label": "address[]",
        "numberOfBytes": "32"
      },
      "t_array(t_uint256)49_storage": {
        "base": "t_uint256",
        "encoding": "inplace",
        "label": "uint256[49]",
        "numberOfBytes": "1568"
      },
      "t_array(t_uint256)50_storage": {
        "base": "t_uint256",
        "encoding": "inplace",
        "label": "uint256[50]",
        "numberOfBytes": "1600"
      },
      "t_bool": {
        "encoding": "inplace",
        "label": "bool",
        "numberOfBytes": "1"
      },
      "t_contract(IPrime)9531": {
        "encoding": "inplace",
        "label": "contract IPrime",
        "numberOfBytes": "20"
      },
      "t_uint256": {
        "encoding": "inplace",
        "label": "uint256",
        "numberOfBytes": "32"
      },
      "t_uint8": {
        "encoding": "inplace",
        "label": "uint8",
        "numberOfBytes": "1"
      }
    }
  }
}